2025/02/17 04:03:57.178654 8=FIX.4.4|9=94|35=A|34=1|49=JPM|52=20250217-04:03:57.178|56=AMSTEL|98=0|108=30|141=Y|553=Amstel|554=BondbloX|10=024|
2025/02/17 04:04:32.341958 8=FIX.4.4|9=88|35=A|34=3|49=JPM|52=20250217-04:04:32.341|56=AMSTEL|98=0|108=30|553=Amstel|554=BondbloX|10=226|
2025/02/17 04:05:07.495330 8=FIX.4.4|9=88|35=A|34=4|49=JPM|52=20250217-04:05:07.495|56=AMSTEL|98=0|108=30|553=Amstel|554=BondbloX|10=240|
2025/02/17 04:05:42.711525 8=FIX.4.4|9=88|35=A|34=5|49=JPM|52=20250217-04:05:42.711|56=AMSTEL|98=0|108=30|553=Amstel|554=BondbloX|10=231|
2025/02/17 04:06:17.871801 8=FIX.4.4|9=88|35=A|34=6|49=JPM|52=20250217-04:06:17.871|56=AMSTEL|98=0|108=30|553=Amstel|554=BondbloX|10=242|
2025/02/17 04:06:53.034367 8=FIX.4.4|9=88|35=A|34=7|49=JPM|52=20250217-04:06:53.034|56=AMSTEL|98=0|108=30|553=Amstel|554=BondbloX|10=234|
2025/02/17 04:07:28.308906 8=FIX.4.4|9=88|35=A|34=8|49=JPM|52=20250217-04:07:28.308|56=AMSTEL|98=0|108=30|553=Amstel|554=BondbloX|10=242|
2025/02/17 04:08:03.464202 8=FIX.4.4|9=88|35=A|34=9|49=JPM|52=20250217-04:08:03.464|56=AMSTEL|98=0|108=30|553=Amstel|554=BondbloX|10=240|
2025/02/17 04:08:38.622967 8=FIX.4.4|9=89|35=A|34=10|49=JPM|52=20250217-04:08:38.622|56=AMSTEL|98=0|108=30|553=Amstel|554=BondbloX|10=029|
2025/02/17 04:09:13.891358 8=FIX.4.4|9=89|35=A|34=11|49=JPM|52=20250217-04:09:13.891|56=AMSTEL|98=0|108=30|553=Amstel|554=BondbloX|10=032|
2025/02/17 04:09:49.067753 8=FIX.4.4|9=89|35=A|34=12|49=JPM|52=20250217-04:09:49.067|56=AMSTEL|98=0|108=30|553=Amstel|554=BondbloX|10=037|
2025/02/17 04:10:07.120937 8=FIX.4.4|9=94|35=A|34=1|49=JPM|52=20250217-04:10:07.120|56=AMSTEL|98=0|108=30|141=Y|553=Amstel|554=BondbloX|10=004|
2025/02/17 04:10:07.174268 8=FIX.4.4|9=75|35=5|34=1|49=AMSTEL|52=20250217-04:10:07.166|56=JPM|58=Invalid Credentials|10=134|
2025/02/17 04:10:37.341954 8=FIX.4.4|9=88|35=A|34=2|49=JPM|52=20250217-04:10:37.341|56=AMSTEL|98=0|108=30|553=Amstel|554=BondbloX|10=227|
2025/02/17 04:10:37.394056 8=FIX.4.4|9=75|35=5|34=1|49=AMSTEL|52=20250217-04:10:37.387|56=JPM|58=Invalid Credentials|10=142|
2025/02/17 04:11:07.502168 8=FIX.4.4|9=88|35=A|34=4|49=JPM|52=20250217-04:11:07.502|56=AMSTEL|98=0|108=30|553=Amstel|554=BondbloX|10=226|
2025/02/17 04:11:07.554129 8=FIX.4.4|9=75|35=5|34=1|49=AMSTEL|52=20250217-04:11:07.546|56=JPM|58=Invalid Credentials|10=137|
2025/02/17 04:11:37.666604 8=FIX.4.4|9=88|35=A|34=5|49=JPM|52=20250217-04:11:37.666|56=AMSTEL|98=0|108=30|553=Amstel|554=BondbloX|10=241|
2025/02/17 04:11:37.718584 8=FIX.4.4|9=75|35=5|34=1|49=AMSTEL|52=20250217-04:11:37.711|56=JPM|58=Invalid Credentials|10=134|
2025/02/17 04:12:07.881598 8=FIX.4.4|9=88|35=A|34=6|49=JPM|52=20250217-04:12:07.881|56=AMSTEL|98=0|108=30|553=Amstel|554=BondbloX|10=239|
2025/02/17 04:12:07.934281 8=FIX.4.4|9=75|35=5|34=1|49=AMSTEL|52=20250217-04:12:07.927|56=JPM|58=Invalid Credentials|10=141|
2025/02/17 04:12:16.002688 8=FIX.4.4|9=94|35=A|34=1|49=JPM|52=20250217-04:12:16.002|56=AMSTEL|98=0|108=30|141=Y|553=Amstel|554=BondbloX|10=005|
2025/02/17 04:12:16.103763 8=FIX.4.4|9=75|35=5|34=1|49=AMSTEL|52=20250217-04:12:16.102|56=JPM|58=Invalid Credentials|10=126|
2025/02/17 04:12:46.106882 8=FIX.4.4|9=88|35=A|34=2|49=JPM|52=20250217-04:12:46.106|56=AMSTEL|98=0|108=30|553=Amstel|554=BondbloX|10=228|
2025/02/17 04:12:46.206789 8=FIX.4.4|9=75|35=5|34=1|49=AMSTEL|52=20250217-04:12:46.205|56=JPM|58=Invalid Credentials|10=133|
2025/02/17 04:13:16.209605 8=FIX.4.4|9=88|35=A|34=3|49=JPM|52=20250217-04:13:16.209|56=AMSTEL|98=0|108=30|553=Amstel|554=BondbloX|10=231|
2025/02/17 04:13:16.308484 8=FIX.4.4|9=75|35=5|34=1|49=AMSTEL|52=20250217-04:13:16.307|56=JPM|58=Invalid Credentials|10=134|
2025/02/17 04:13:46.311353 8=FIX.4.4|9=88|35=A|34=4|49=JPM|52=20250217-04:13:46.311|56=AMSTEL|98=0|108=30|553=Amstel|554=BondbloX|10=229|
2025/02/17 04:13:46.412159 8=FIX.4.4|9=75|35=5|34=1|49=AMSTEL|52=20250217-04:13:46.411|56=JPM|58=Invalid Credentials|10=133|
2025/02/17 04:14:16.414814 8=FIX.4.4|9=88|35=A|34=5|49=JPM|52=20250217-04:14:16.414|56=AMSTEL|98=0|108=30|553=Amstel|554=BondbloX|10=232|
2025/02/17 04:14:16.515750 8=FIX.4.4|9=75|35=5|34=1|49=AMSTEL|52=20250217-04:14:16.514|56=JPM|58=Invalid Credentials|10=135|
2025/02/17 04:14:46.519303 8=FIX.4.4|9=88|35=A|34=6|49=JPM|52=20250217-04:14:46.519|56=AMSTEL|98=0|108=30|553=Amstel|554=BondbloX|10=242|
2025/02/17 04:14:46.618864 8=FIX.4.4|9=75|35=5|34=1|49=AMSTEL|52=20250217-04:14:46.618|56=JPM|58=Invalid Credentials|10=143|
2025/02/17 04:15:16.621633 8=FIX.4.4|9=88|35=A|34=7|49=JPM|52=20250217-04:15:16.621|56=AMSTEL|98=0|108=30|553=Amstel|554=BondbloX|10=235|
2025/02/17 04:15:16.724170 8=FIX.4.4|9=75|35=5|34=1|49=AMSTEL|52=20250217-04:15:16.723|56=JPM|58=Invalid Credentials|10=138|
2025/02/17 04:15:46.727050 8=FIX.4.4|9=88|35=A|34=8|49=JPM|52=20250217-04:15:46.726|56=AMSTEL|98=0|108=30|553=Amstel|554=BondbloX|10=245|
2025/02/17 04:15:46.828603 8=FIX.4.4|9=75|35=5|34=1|49=AMSTEL|52=20250217-04:15:46.827|56=JPM|58=Invalid Credentials|10=146|
2025/02/17 04:16:16.831526 8=FIX.4.4|9=88|35=A|34=9|49=JPM|52=20250217-04:16:16.831|56=AMSTEL|98=0|108=30|553=Amstel|554=BondbloX|10=241|
2025/02/17 04:16:16.933631 8=FIX.4.4|9=75|35=5|34=1|49=AMSTEL|52=20250217-04:16:16.932|56=JPM|58=Invalid Credentials|10=141|
2025/02/17 04:16:46.936529 8=FIX.4.4|9=89|35=A|34=10|49=JPM|52=20250217-04:16:46.936|56=AMSTEL|98=0|108=30|553=Amstel|554=BondbloX|10=035|
2025/02/17 04:16:47.035495 8=FIX.4.4|9=75|35=5|34=1|49=AMSTEL|52=20250217-04:16:47.035|56=JPM|58=Invalid Credentials|10=139|
2025/02/17 04:17:17.037939 8=FIX.4.4|9=89|35=A|34=11|49=JPM|52=20250217-04:17:17.037|56=AMSTEL|98=0|108=30|553=Amstel|554=BondbloX|10=027|
2025/02/17 04:17:17.141478 8=FIX.4.4|9=75|35=5|34=1|49=AMSTEL|52=20250217-04:17:17.140|56=JPM|58=Invalid Credentials|10=134|
2025/02/17 04:17:47.145197 8=FIX.4.4|9=89|35=A|34=12|49=JPM|52=20250217-04:17:47.145|56=AMSTEL|98=0|108=30|553=Amstel|554=BondbloX|10=031|
2025/02/17 04:17:47.248033 8=FIX.4.4|9=75|35=5|34=1|49=AMSTEL|52=20250217-04:17:47.246|56=JPM|58=Invalid Credentials|10=144|
2025/02/17 04:18:17.251852 8=FIX.4.4|9=89|35=A|34=13|49=JPM|52=20250217-04:18:17.251|56=AMSTEL|98=0|108=30|553=Amstel|554=BondbloX|10=028|
2025/02/17 04:18:17.354468 8=FIX.4.4|9=75|35=5|34=1|49=AMSTEL|52=20250217-04:18:17.353|56=JPM|58=Invalid Credentials|10=141|
2025/02/17 04:18:47.357741 8=FIX.4.4|9=89|35=A|34=14|49=JPM|52=20250217-04:18:47.357|56=AMSTEL|98=0|108=30|553=Amstel|554=BondbloX|10=039|
2025/02/17 04:18:47.457081 8=FIX.4.4|9=75|35=5|34=1|49=AMSTEL|52=20250217-04:18:47.456|56=JPM|58=Invalid Credentials|10=148|
2025/02/17 04:19:17.460521 8=FIX.4.4|9=89|35=A|34=15|49=JPM|52=20250217-04:19:17.460|56=AMSTEL|98=0|108=30|553=Amstel|554=BondbloX|10=033|
2025/02/17 04:19:17.571693 8=FIX.4.4|9=75|35=5|34=1|49=AMSTEL|52=20250217-04:19:17.570|56=JPM|58=Invalid Credentials|10=143|
2025/02/17 04:19:47.574705 8=FIX.4.4|9=89|35=A|34=16|49=JPM|52=20250217-04:19:47.574|56=AMSTEL|98=0|108=30|553=Amstel|554=BondbloX|10=043|
2025/02/17 04:19:47.673032 8=FIX.4.4|9=75|35=5|34=1|49=AMSTEL|52=20250217-04:19:47.672|56=JPM|58=Invalid Credentials|10=149|
2025/02/17 04:20:17.676191 8=FIX.4.4|9=89|35=A|34=17|49=JPM|52=20250217-04:20:17.676|56=AMSTEL|98=0|108=30|553=Amstel|554=BondbloX|10=036|
2025/02/17 04:20:17.780504 8=FIX.4.4|9=75|35=5|34=1|49=AMSTEL|52=20250217-04:20:17.780|56=JPM|58=Invalid Credentials|10=138|
2025/02/17 04:20:47.784017 8=FIX.4.4|9=89|35=A|34=18|49=JPM|52=20250217-04:20:47.783|56=AMSTEL|98=0|108=30|553=Amstel|554=BondbloX|10=039|
2025/02/17 04:20:47.883881 8=FIX.4.4|9=75|35=5|34=1|49=AMSTEL|52=20250217-04:20:47.883|56=JPM|58=Invalid Credentials|10=145|
2025/02/17 04:21:17.886415 8=FIX.4.4|9=89|35=A|34=19|49=JPM|52=20250217-04:21:17.886|56=AMSTEL|98=0|108=30|553=Amstel|554=BondbloX|10=042|
2025/02/17 04:21:17.985661 8=FIX.4.4|9=75|35=5|34=1|49=AMSTEL|52=20250217-04:21:17.984|56=JPM|58=Invalid Credentials|10=145|
2025/02/17 04:21:47.989707 8=FIX.4.4|9=89|35=A|34=20|49=JPM|52=20250217-04:21:47.989|56=AMSTEL|98=0|108=30|553=Amstel|554=BondbloX|10=041|
2025/02/17 04:21:48.098448 8=FIX.4.4|9=75|35=5|34=1|49=AMSTEL|52=20250217-04:21:48.097|56=JPM|58=Invalid Credentials|10=144|
2025/02/17 04:22:18.102152 8=FIX.4.4|9=89|35=A|34=21|49=JPM|52=20250217-04:22:18.102|56=AMSTEL|98=0|108=30|553=Amstel|554=BondbloX|10=018|
2025/02/17 04:22:18.205743 8=FIX.4.4|9=75|35=5|34=1|49=AMSTEL|52=20250217-04:22:18.204|56=JPM|58=Invalid Credentials|10=132|
2025/02/17 04:22:48.208510 8=FIX.4.4|9=89|35=A|34=22|49=JPM|52=20250217-04:22:48.208|56=AMSTEL|98=0|108=30|553=Amstel|554=BondbloX|10=029|
2025/02/17 04:22:48.313629 8=FIX.4.4|9=75|35=5|34=1|49=AMSTEL|52=20250217-04:22:48.312|56=JPM|58=Invalid Credentials|10=135|
2025/02/17 04:23:07.001842 8=FIX.4.4|9=94|35=A|34=1|49=JPM|52=20250217-04:23:07.001|56=AMSTEL|98=0|108=30|141=Y|553=Amstel|554=BondbloX|10=006|
2025/02/17 04:23:07.109065 8=FIX.4.4|9=70|35=A|34=1|49=AMSTEL|52=20250217-04:23:07.108|56=JPM|98=0|108=30|141=Y|10=211|
2025/02/17 04:23:41.236465 8=FIX.4.4|9=94|35=A|34=1|49=JPM|52=20250217-04:23:41.236|56=AMSTEL|98=0|108=30|141=Y|553=Amstel|554=BondbloX|10=014|
2025/02/17 04:23:41.291639 8=FIX.4.4|9=70|35=A|34=1|49=AMSTEL|52=20250217-04:23:41.283|56=JPM|98=0|108=30|141=Y|10=213|
2025/02/17 04:23:50.952375 8=FIX.4.4|9=76|35=x|34=2|49=JPM|52=20250217-04:23:50.952|56=AMSTEL|320=SECURITYREQID|559=4|10=165|
2025/02/17 04:23:51.019152 8=FIX.4.4|9=3722|35=y|34=2|49=AMSTEL|52=20250217-04:23:51.006|56=JPM|146=226|55=XS2114327302|55=XS2113136092|55=XS2121187962|55=XS2116222022|55=HK0000910544|55=XS2445374213|55=XS2429304368|55=US00084EAE86|55=XS2585673820|55=US606822BN36|55=XS2109790183|55=XS2101828452|55=US500630DQ87|55=XS2379456895|55=HK0000910189|55=XS2125599626|55=XS2449761076|55=US606822AU87|55=XS2423459242|55=XS2447949475|55=XS2123955952|55=XS2305026762|55=XS2125922349|55=XS2451285253|55=XS0893206747|55=XS2127855711|55=XS2126300479|55=XS2462338612|55=XS2451854991|55=USJ7771YLQ81|55=US438127AA08|55=USG9T27HAD62|55=XS1200840111|55=XS2453962107|55=XS2129684127|55=US00131MAB90|55=US2027A1KH95|55=US2027A1KJ51|55=XS1788514039|55=XS2450979484|55=US718286AP29|55=USY68856AN67|55=XS2133246673|55=XS2140589529|55=XS2248032653|55=US06407F2B71|55=XS2110952962|55=XS2122900330|55=XS2077601610|55=XS2122990737|55=XL2334361271|55=SG7V35954653|55=XS2453395001|55=XS2453372992|55=XS2455213590|55=US55608RBK59|55=US55608RBJ86|55=XS2454321519|55=XS2442748971|55=XS2432576382|55=XS2406886627|55=USJ46186BC59|55=XS2450206516|55=XS2049728004|55=USY6080GAA59|55=XS2460254282|55=XS2436799238|55=US056752AQ10|55=XS2446844834|55=US91127LAG59|55=XS2455963590|55=USV3856JAA17|55=XS2113708155|55=US65504LAN73|55=XS2406805213|55=XS1213177295|55=US44891CBK80|55=XS2426804998|55=XS2461794922|55=USJ4706DLU20|55=XS2484016643|55=XS2450908970|55=XS1791937441|55=XS2471135926|55=XS2458278731|55=XS1811213435|55=XS1810775145|55=XS2203824789|55=US71567RAD89|55=US50066RAR75|55=XS2125052261|55=USU3821WAD93|55=XS2068971980|55=XS2473321037|55=XS2180856440|55=USY0889VAA80|55=XS2133816012|55=XS2155486868|55=XS2445143329|55=USY5749LAA99|55=XS1214406792|55=XS2207192191|55=USG21184AB52|55=XS2158482211|55=USY3815NBE05|55=US82460EAP51|55=XS2471295969|55=XS2471127584|55=XS2432500309|55=XS2472507511|55=XS2465969132|55=XS2471231998|55=XS2158820477|55=XS2461426459|55=XS2471305867|55=XS2471384045|55=USG8201JAC56|55=XS2334361271|55=XS2470956322|55=US09681MAM01|55=XS2247552446|55=XS2163022739|55=XS2250030090|55=XS2227351900|55=XS1810963147|55=US500769GQ12|55=US50050HAM88|55=US12634MAB63|55=USY7133MAC39|55=USY4836TBT70|55=XS2451515279|55=USY4836TCE92|55=XS1226628961|55=XS2161924605|55=XS1227064430|55=XS1230332055|55=XS2078641888|55=XS2162033729|55=USG82016AN96|55=XS2469673698|55=USG5320CAB49|55=USY7140WAE85|55=XS2463140637|55=XS2475862533|55=XS2479371028|55=XS2169280919|55=XS2447552089|55=USY4872AHZ31|55=XS1402177601|55=XS1233275194|55=XS1227947097|55=XS2464646186|55=XS2079668609|55=AU3FN0069209|55=XS2176713613|55=US404280CS68|55=XS2471903331|55=XS1234958459|55=XS2085045503|55=XS2178924739|55=US20271BAJ44|55=XS2178949561|55=XS2481329733|55=XS1242348164|55=XS1234197074|55=XS2345678900|55=XS2470154779|55=XS2485520261|55=XS2446005907|55=XS2446008083|55=XS2484328021|55=USU1793TAA08|55=XS2181972568|55=XS1240913068|55=USY8137FAC24|55=XS2178853375|55=XS2179842898|55=XS2182877865|55=XS2472512354|55=USG5975LAA47|55=XS2487342300|55=XS2496620977|55=HK0000929692|55=HK0000854296|55=XS2485572148|55=XS2563889794|55=XS2473375124|55=USG8850LAA82|55=US55608YAB11|55=XS2590538380|55=XS2475950155|55=XS2433131559|55=CND10006G534|55=XS1822295983|55=XS1252209249|55=US71567RAN61|55=USY4907LAC64|55=XS2489981485|55=XS2484991844|55=XS2480876254|55=USY4899GCB78|55=USY4907LAB81|55=XS2489151709|55=XS2478801942|55=US056752AG38|55=XS2199681774|55=XS2480444970|55=XS2186093766|55=USG60744AE27|55=HK0000611928|55=US45604HAH03|55=XS2189906816|55=XS2179917906|55=FR0013428414|55=XS2190999834|55=XS2489808423|55=XS2190467667|55=US44891CCF86|55=XS1248248343|55=XS2489897343|55=XS1627599654|55=XS2861551898|55=XS2361426559|55=XS2484016642|55=XS2495307865|55=XS1253849357|320=SECURITYREQID|322=SECURITYREQIDRESP|560=0|10=027|
2025/02/20 03:17:03.391045 8=FIX.4.4|9=94|35=A|34=1|49=JPM|52=20250220-03:17:03.390|56=AMSTEL|98=0|108=30|141=Y|553=Amstel|554=BondbloX|10=009|
2025/02/20 03:17:03.446076 8=FIX.4.4|9=70|35=A|34=1|49=AMSTEL|52=20250220-03:17:03.461|56=JPM|98=0|108=30|141=Y|10=205|
