2025/02/11 15:12:06.115778 8=FIX.4.4|9=93|35=A|34=1|49=CITI|52=20250211-15:12:06.115|56=ISLD|98=0|108=30|141=Y|553=Amstel|554=BondbloX|10=172|
2025/02/11 15:12:06.173555 8=FIX.4.4|9=69|35=A|34=1|49=ISLD|52=20250211-15:12:06.187|56=CITI|98=0|108=30|141=Y|10=131|
2025/02/11 15:12:20.161109 8=FIX.4.4|9=75|35=x|34=2|49=CITI|52=20250211-15:12:20.160|56=ISLD|320=SECURITYREQID|559=4|10=058|
2025/02/11 15:12:20.229663 8=FIX.4.4|9=4025|35=y|34=2|49=ISLD|52=20250211-15:12:20.229|56=CITI|146=245|55=XS2382032956|55=USY20721BG36|55=XS2099045515|55=XS2099372802|55=XS2050614796|55=XS2258819874|55=XS2388867751|55=USY7133MAC39|55=XS2169280919|55=USY7140WAE85|55=US71567RAD89|55=USY8137FAC24|55=XS1268430201|55=XS1681502537|55=XS1891336932|55=XS2093792013|55=USY8137FAE89|55=USY39690AA30|55=USY20721BN86|55=XS2199575569|55=XS2787477277|55=XS2279432384|55=XS2291793573|55=US69370RAK32|55=XS2313088739|55=US71567RAF38|55=XS2577785921|55=XS2322319398|55=XS2340901607|55=US71567RAR75|55=USY8137FAF54|55=USY708CHAB61|55=USN5276YAD87|55=XS2012546714|55=XS2219433765|55=USY20721BQ18|55=XS2744911756|55=USY56607AA51|55=XS2100404396|55=XS2314514477|55=XS2068075980|55=XS2301051541|55=XS2344284893|55=USY6142NAC21|55=US71567RAN61|55=US71567RAH93|55=XS2099273737|55=XS1810775145|55=USY7141BAA18|55=USY8137FAH11|55=XS2207510319|55=USY6142NAF51|55=XS2399476972|55=XS2407048623|55=XS2189919637|55=XS2202749003|55=US455780CD62|55=US455780DQ66|55=USY6142NAG35|55=XS0972298300|55=USY8137FAL23|55=US455780CF11|55=XS2327392234|55=XS2099563228|55=XS1432493440|55=XS2191510713|55=USY59500AA95|55=USY7140WAC20|55=US71567RAX44|55=XS2194913443|55=XS2198145422|55=US71568QAG29|55=XS2419405274|55=US455780CH76|55=US71567RAM88|55=XS2774954650|55=US455780DT06|55=USY8137FAP37|55=XS2774954577|55=XS2209978639|55=XS2208939368|55=USY6142NAH18|55=XS2330597738|55=USY68613AA90|55=US71568QAJ67|55=XS2366690332|55=XS2223798229|55=XS2207510582|55=XS1729875598|55=XS2199718003|55=US71568QAC15|55=US71567RAK23|55=US71567RAU05|55=XS2334361271|55=XS2390472624|55=USY20721BT56|55=XS2104985598|55=US69370RAD98|55=US455780CK06|55=XS1991219442|55=XS2334361354|55=US718286CK14|55=US71568QAL14|55=US455780CQ75|55=USY8137FAR92|55=US718286CN52|55=USY7141MAA72|55=USY7140WAF50|55=US718286AP29|55=US71567RAP10|55=US718286CJ41|55=US71568QAN79|55=US718286CL96|55=US718286CH84|55=US718286CC97|55=USN57445AA17|55=US455780CS32|55=US718286CP01|55=US718286CQ83|55=US69370RAL15|55=US718286CR66|55=XS2322319638|55=XS2349180104|55=US71567RAS58|55=USY6142NAE86|55=XS2069959398|55=US718286CG02|55=US718286BZ91|55=USY6972HLP91|55=USY7141BAB90|55=XS2399787899|55=US455780DN36|55=US718286DE45|55=US455780DR40|55=XS2280331898|55=US718286CY18|55=US69370RAH03|55=US69370RAF47|55=US455780CV60|55=XS2334361511|55=US718286CB15|55=US718286CA32|55=US455780DJ24|55=US455780CY00|55=US718286CW51|55=US71567RAY27|55=US455780DU78|55=US718286BW60|55=XS2387734317|55=USY7329CAA37|55=USY68613AB73|55=US455780DX18|55=US718286DD61|55=US718286DA23|55=USY20721AE96|55=US718286BN61|55=USN54360AD95|55=USN57445AB99|55=USY20721AL30|55=US718286CX35|55=US718286DB06|55=US718286CT23|55=USY7138AAB62|55=USY20721BB49|55=US718286CU95|55=USY7138AAD29|55=US71568QAB32|55=USY20721BE87|55=USY7138AAF76|55=USY20721BK48|55=US69370RAA59|55=USY20721BM04|55=US718286BD89|55=USY7133MAB55|55=US718286BG11|55=USY20721BP35|55=USY20721BR90|55=US718286AY36|55=USY20721BU20|55=XS2921409756|55=US455780CE46|55=USY7140WAD03|55=US71568QAH02|55=US455780CJ33|55=US71568QAK31|55=US69370RAE71|55=USY51478AA66|55=US71568QAF46|55=US71568QAD97|55=US637193BA03|55=US718286CV78|55=US718286BB24|55=USY7083VAD11|55=XS2690996827|55=US455780CN45|55=US71568QAM96|55=USY7140WAG34|55=XS2219370660|55=US71568QAP28|55=US455780CT15|55=US71567RAT32|55=US455780DK96|55=USY7141BAC73|55=XS2399788277|55=US455780DP83|55=US455780DS23|55=US455780DV51|55=USY68613AC56|55=US455780CU87|55=PH0000057598|55=XS2813319816|55=XS2346954873|55=XS2385923722|55=XS2098881654|55=XS2072777381|55=XS2239056174|55=XS2207320701|55=XS2862924532|55=XS2191367734|55=XS2244367269|55=USY20721AJ83|55=XS2314639761|55=XS2343321399|55=XS2322321964|55=USY7140EAA65|55=US69370RAC16|55=US71567RAQ92|55=XS2191367494|55=US71567RAV87|55=US69370RAJ68|55=US69370RAG20|55=US455780CR58|55=US455780DW35|55=US455780CX27|55=PHY7998PAB23|55=PHY7998PAA40|55=XS2205566206|55=XS2758096759|55=US455780DG84|55=US059891AA97|55=US455780CW44|55=US718286DC88|55=XS1506085114|55=US455780DM52|55=XS2785437901|320=SECURITYREQID|322=SECURITYREQIDRESP|560=0|10=251|
2025/02/11 15:12:50.162441 8=FIX.4.4|9=51|35=0|34=3|49=CITI|52=20250211-15:12:50.162|56=ISLD|10=029|
2025/02/11 15:12:50.228134 8=FIX.4.4|9=51|35=0|34=3|49=ISLD|52=20250211-15:12:50.243|56=CITI|10=029|
2025/02/11 15:13:20.163257 8=FIX.4.4|9=51|35=0|34=4|49=CITI|52=20250211-15:13:20.163|56=ISLD|10=029|
2025/02/11 15:13:20.228281 8=FIX.4.4|9=51|35=0|34=4|49=ISLD|52=20250211-15:13:20.243|56=CITI|10=028|
2025/02/11 15:13:50.164962 8=FIX.4.4|9=51|35=0|34=5|49=CITI|52=20250211-15:13:50.164|56=ISLD|10=034|
2025/02/11 15:13:50.229732 8=FIX.4.4|9=51|35=0|34=5|49=ISLD|52=20250211-15:13:50.244|56=CITI|10=033|
2025/02/11 15:14:20.166359 8=FIX.4.4|9=51|35=0|34=6|49=CITI|52=20250211-15:14:20.166|56=ISLD|10=035|
2025/02/11 15:14:20.231139 8=FIX.4.4|9=51|35=0|34=6|49=ISLD|52=20250211-15:14:20.245|56=CITI|10=033|
2025/02/11 15:14:50.168341 8=FIX.4.4|9=51|35=0|34=7|49=CITI|52=20250211-15:14:50.168|56=ISLD|10=041|
2025/02/11 15:14:50.232822 8=FIX.4.4|9=51|35=0|34=7|49=ISLD|52=20250211-15:14:50.247|56=CITI|10=039|
2025/02/11 15:15:20.169934 8=FIX.4.4|9=51|35=0|34=8|49=CITI|52=20250211-15:15:20.169|56=ISLD|10=041|
2025/02/11 15:15:20.233644 8=FIX.4.4|9=51|35=0|34=8|49=ISLD|52=20250211-15:15:20.247|56=CITI|10=038|
2025/02/11 15:15:50.171455 8=FIX.4.4|9=51|35=0|34=9|49=CITI|52=20250211-15:15:50.171|56=ISLD|10=038|
2025/02/11 15:15:50.234048 8=FIX.4.4|9=51|35=0|34=9|49=ISLD|52=20250211-15:15:50.248|56=CITI|10=043|
2025/02/11 15:16:20.173241 8=FIX.4.4|9=52|35=0|34=10|49=CITI|52=20250211-15:16:20.173|56=ISLD|10=079|
2025/02/11 15:16:20.234831 8=FIX.4.4|9=52|35=0|34=10|49=ISLD|52=20250211-15:16:20.249|56=CITI|10=083|
2025/02/11 15:16:50.174554 8=FIX.4.4|9=52|35=0|34=11|49=CITI|52=20250211-15:16:50.174|56=ISLD|10=084|
2025/02/11 15:16:50.234972 8=FIX.4.4|9=52|35=0|34=11|49=ISLD|52=20250211-15:16:50.250|56=CITI|10=079|
2025/02/11 15:17:20.175922 8=FIX.4.4|9=52|35=0|34=12|49=CITI|52=20250211-15:17:20.175|56=ISLD|10=084|
2025/02/11 15:17:20.237017 8=FIX.4.4|9=52|35=0|34=12|49=ISLD|52=20250211-15:17:20.251|56=CITI|10=079|
2025/02/11 15:17:50.177384 8=FIX.4.4|9=52|35=0|34=13|49=CITI|52=20250211-15:17:50.177|56=ISLD|10=090|
2025/02/11 15:17:50.237387 8=FIX.4.4|9=52|35=0|34=13|49=ISLD|52=20250211-15:17:50.252|56=CITI|10=084|
2025/02/11 15:18:20.179665 8=FIX.4.4|9=52|35=0|34=14|49=CITI|52=20250211-15:18:20.179|56=ISLD|10=091|
2025/02/11 15:18:20.237956 8=FIX.4.4|9=52|35=0|34=14|49=ISLD|52=20250211-15:18:20.252|56=CITI|10=083|
2025/02/11 15:18:50.184293 8=FIX.4.4|9=52|35=0|34=15|49=CITI|52=20250211-15:18:50.184|56=ISLD|10=091|
2025/02/11 15:18:50.239236 8=FIX.4.4|9=52|35=0|34=15|49=ISLD|52=20250211-15:18:50.253|56=CITI|10=088|
2025/02/11 15:19:20.187600 8=FIX.4.4|9=52|35=0|34=16|49=CITI|52=20250211-15:19:20.187|56=ISLD|10=093|
2025/02/11 15:19:20.239399 8=FIX.4.4|9=52|35=0|34=16|49=ISLD|52=20250211-15:19:20.254|56=CITI|10=088|
2025/02/11 15:19:50.190764 8=FIX.4.4|9=52|35=0|34=17|49=CITI|52=20250211-15:19:50.190|56=ISLD|10=091|
2025/02/11 15:19:50.240915 8=FIX.4.4|9=52|35=0|34=17|49=ISLD|52=20250211-15:19:50.255|56=CITI|10=093|
2025/02/11 15:20:20.193242 8=FIX.4.4|9=52|35=0|34=18|49=CITI|52=20250211-15:20:20.193|56=ISLD|10=084|
2025/02/11 15:20:20.242739 8=FIX.4.4|9=52|35=0|34=18|49=ISLD|52=20250211-15:20:20.255|56=CITI|10=083|
2025/02/11 15:20:50.195602 8=FIX.4.4|9=52|35=0|34=19|49=CITI|52=20250211-15:20:50.195|56=ISLD|10=090|
2025/02/11 15:20:50.241841 8=FIX.4.4|9=52|35=0|34=19|49=ISLD|52=20250211-15:20:50.256|56=CITI|10=088|
2025/02/11 15:21:20.198123 8=FIX.4.4|9=52|35=0|34=20|49=CITI|52=20250211-15:21:20.197|56=ISLD|10=082|
2025/02/11 15:21:20.242552 8=FIX.4.4|9=52|35=0|34=20|49=ISLD|52=20250211-15:21:20.256|56=CITI|10=078|
2025/02/11 15:21:50.201475 8=FIX.4.4|9=52|35=0|34=21|49=CITI|52=20250211-15:21:50.201|56=ISLD|10=072|
2025/02/11 15:21:50.244276 8=FIX.4.4|9=52|35=0|34=21|49=ISLD|52=20250211-15:21:50.257|56=CITI|10=083|
2025/02/11 15:22:20.204040 8=FIX.4.4|9=52|35=0|34=22|49=CITI|52=20250211-15:22:20.203|56=ISLD|10=073|
2025/02/11 15:22:20.246666 8=FIX.4.4|9=52|35=0|34=22|49=ISLD|52=20250211-15:22:20.258|56=CITI|10=083|
2025/02/11 15:22:50.206445 8=FIX.4.4|9=52|35=0|34=23|49=CITI|52=20250211-15:22:50.206|56=ISLD|10=080|
2025/02/11 15:22:50.245618 8=FIX.4.4|9=52|35=0|34=23|49=ISLD|52=20250211-15:22:50.259|56=CITI|10=088|
2025/02/11 15:23:20.208220 8=FIX.4.4|9=52|35=0|34=24|49=CITI|52=20250211-15:23:20.208|56=ISLD|10=081|
2025/02/11 15:23:20.247071 8=FIX.4.4|9=52|35=0|34=24|49=ISLD|52=20250211-15:23:20.260|56=CITI|10=079|
2025/02/11 15:23:50.210608 8=FIX.4.4|9=52|35=0|34=25|49=CITI|52=20250211-15:23:50.210|56=ISLD|10=078|
2025/02/11 15:23:50.248656 8=FIX.4.4|9=52|35=0|34=25|49=ISLD|52=20250211-15:23:50.261|56=CITI|10=084|
2025/02/11 15:24:20.212883 8=FIX.4.4|9=52|35=0|34=26|49=CITI|52=20250211-15:24:20.212|56=ISLD|10=079|
2025/02/11 15:24:20.250992 8=FIX.4.4|9=52|35=0|34=26|49=ISLD|52=20250211-15:24:20.262|56=CITI|10=084|
2025/02/11 15:24:50.215532 8=FIX.4.4|9=52|35=0|34=27|49=CITI|52=20250211-15:24:50.215|56=ISLD|10=086|
2025/02/11 15:24:50.249555 8=FIX.4.4|9=52|35=0|34=27|49=ISLD|52=20250211-15:24:50.262|56=CITI|10=088|
2025/02/11 15:25:20.218003 8=FIX.4.4|9=52|35=0|34=28|49=CITI|52=20250211-15:25:20.217|56=ISLD|10=087|
2025/02/11 15:25:20.249827 8=FIX.4.4|9=52|35=0|34=28|49=ISLD|52=20250211-15:25:20.263|56=CITI|10=088|
2025/02/11 15:25:50.220641 8=FIX.4.4|9=52|35=0|34=29|49=CITI|52=20250211-15:25:50.220|56=ISLD|10=085|
2025/02/11 15:25:50.251350 8=FIX.4.4|9=52|35=0|34=29|49=ISLD|52=20250211-15:25:50.264|56=CITI|10=093|
2025/02/11 15:26:30.575250 8=FIX.4.4|9=93|35=A|34=1|49=CITI|52=20250211-15:26:30.574|56=ISLD|98=0|108=30|141=Y|553=Amstel|554=BondbloX|10=183|
2025/02/11 15:26:30.638264 8=FIX.4.4|9=69|35=A|34=1|49=ISLD|52=20250211-15:26:30.657|56=CITI|98=0|108=30|141=Y|10=135|
2025/02/11 15:27:00.115723 8=FIX.4.4|9=93|35=A|34=1|49=CITI|52=20250211-15:27:00.115|56=ISLD|98=0|108=30|141=Y|553=Amstel|554=BondbloX|10=172|
2025/02/11 15:27:00.174539 8=FIX.4.4|9=69|35=A|34=1|49=ISLD|52=20250211-15:27:00.206|56=CITI|98=0|108=30|141=Y|10=123|
2025/02/11 15:27:21.180836 8=FIX.4.4|9=75|35=x|34=2|49=CITI|52=20250211-15:27:21.180|56=ISLD|320=SECURITYREQID|559=4|10=067|
2025/02/11 15:27:21.258220 8=FIX.4.4|9=4025|35=y|34=2|49=ISLD|52=20250211-15:27:21.275|56=CITI|146=245|55=XS2382032956|55=USY20721BG36|55=XS2099045515|55=XS2099372802|55=XS2050614796|55=XS2258819874|55=XS2388867751|55=USY7133MAC39|55=XS2169280919|55=USY7140WAE85|55=US71567RAD89|55=USY8137FAC24|55=XS1268430201|55=XS1681502537|55=XS1891336932|55=XS2093792013|55=USY8137FAE89|55=USY39690AA30|55=USY20721BN86|55=XS2199575569|55=XS2787477277|55=XS2279432384|55=XS2291793573|55=US69370RAK32|55=XS2313088739|55=US71567RAF38|55=XS2577785921|55=XS2322319398|55=XS2340901607|55=US71567RAR75|55=USY8137FAF54|55=USY708CHAB61|55=USN5276YAD87|55=XS2012546714|55=XS2219433765|55=USY20721BQ18|55=XS2744911756|55=USY56607AA51|55=XS2100404396|55=XS2314514477|55=XS2068075980|55=XS2301051541|55=XS2344284893|55=USY6142NAC21|55=US71567RAN61|55=US71567RAH93|55=XS2099273737|55=XS1810775145|55=USY7141BAA18|55=USY8137FAH11|55=XS2207510319|55=USY6142NAF51|55=XS2399476972|55=XS2407048623|55=XS2189919637|55=XS2202749003|55=US455780CD62|55=US455780DQ66|55=USY6142NAG35|55=XS0972298300|55=USY8137FAL23|55=US455780CF11|55=XS2327392234|55=XS2099563228|55=XS1432493440|55=XS2191510713|55=USY59500AA95|55=USY7140WAC20|55=US71567RAX44|55=XS2194913443|55=XS2198145422|55=US71568QAG29|55=XS2419405274|55=US455780CH76|55=US71567RAM88|55=XS2774954650|55=US455780DT06|55=USY8137FAP37|55=XS2774954577|55=XS2209978639|55=XS2208939368|55=USY6142NAH18|55=XS2330597738|55=USY68613AA90|55=US71568QAJ67|55=XS2366690332|55=XS2223798229|55=XS2207510582|55=XS1729875598|55=XS2199718003|55=US71568QAC15|55=US71567RAK23|55=US71567RAU05|55=XS2334361271|55=XS2390472624|55=USY20721BT56|55=XS2104985598|55=US69370RAD98|55=US455780CK06|55=XS1991219442|55=XS2334361354|55=US718286CK14|55=US71568QAL14|55=US455780CQ75|55=USY8137FAR92|55=US718286CN52|55=USY7141MAA72|55=USY7140WAF50|55=US718286AP29|55=US71567RAP10|55=US718286CJ41|55=US71568QAN79|55=US718286CL96|55=US718286CH84|55=US718286CC97|55=USN57445AA17|55=US455780CS32|55=US718286CP01|55=US718286CQ83|55=US69370RAL15|55=US718286CR66|55=XS2322319638|55=XS2349180104|55=US71567RAS58|55=USY6142NAE86|55=XS2069959398|55=US718286CG02|55=US718286BZ91|55=USY6972HLP91|55=USY7141BAB90|55=XS2399787899|55=US455780DN36|55=US718286DE45|55=US455780DR40|55=XS2280331898|55=US718286CY18|55=US69370RAH03|55=US69370RAF47|55=US455780CV60|55=XS2334361511|55=US718286CB15|55=US718286CA32|55=US455780DJ24|55=US455780CY00|55=US718286CW51|55=US71567RAY27|55=US455780DU78|55=US718286BW60|55=XS2387734317|55=USY7329CAA37|55=USY68613AB73|55=US455780DX18|55=US718286DD61|55=US718286DA23|55=USY20721AE96|55=US718286BN61|55=USN54360AD95|55=USN57445AB99|55=USY20721AL30|55=US718286CX35|55=US718286DB06|55=US718286CT23|55=USY7138AAB62|55=USY20721BB49|55=US718286CU95|55=USY7138AAD29|55=US71568QAB32|55=USY20721BE87|55=USY7138AAF76|55=USY20721BK48|55=US69370RAA59|55=USY20721BM04|55=US718286BD89|55=USY7133MAB55|55=US718286BG11|55=USY20721BP35|55=USY20721BR90|55=US718286AY36|55=USY20721BU20|55=XS2921409756|55=US455780CE46|55=USY7140WAD03|55=US71568QAH02|55=US455780CJ33|55=US71568QAK31|55=US69370RAE71|55=USY51478AA66|55=US71568QAF46|55=US71568QAD97|55=US637193BA03|55=US718286CV78|55=US718286BB24|55=USY7083VAD11|55=XS2690996827|55=US455780CN45|55=US71568QAM96|55=USY7140WAG34|55=XS2219370660|55=US71568QAP28|55=US455780CT15|55=US71567RAT32|55=US455780DK96|55=USY7141BAC73|55=XS2399788277|55=US455780DP83|55=US455780DS23|55=US455780DV51|55=USY68613AC56|55=US455780CU87|55=PH0000057598|55=XS2813319816|55=XS2346954873|55=XS2385923722|55=XS2098881654|55=XS2072777381|55=XS2239056174|55=XS2207320701|55=XS2862924532|55=XS2191367734|55=XS2244367269|55=USY20721AJ83|55=XS2314639761|55=XS2343321399|55=XS2322321964|55=USY7140EAA65|55=US69370RAC16|55=US71567RAQ92|55=XS2191367494|55=US71567RAV87|55=US69370RAJ68|55=US69370RAG20|55=US455780CR58|55=US455780DW35|55=US455780CX27|55=PHY7998PAB23|55=PHY7998PAA40|55=XS2205566206|55=XS2758096759|55=US455780DG84|55=US059891AA97|55=US455780CW44|55=US718286DC88|55=XS1506085114|55=US455780DM52|55=XS2785437901|320=SECURITYREQID|322=SECURITYREQIDRESP|560=0|10=003|
