2025/02/11 11:54:16.002964 8=FIX.4.4|9=91|35=A|34=1|49=TW|52=20250211-11:54:16.002|56=ISLD|98=0|108=30|141=Y|553=Amstel|554=BondbloX|10=042|
2025/02/11 11:54:16.104579 8=FIX.4.4|9=67|35=A|34=1|49=ISLD|52=20250211-11:54:16.104|56=TW|98=0|108=30|141=Y|10=251|
2025/02/11 11:54:35.156559 8=FIX.4.4|9=73|35=x|34=2|49=TW|52=20250211-11:54:35.155|56=ISLD|320=SECURITYREQID|559=4|10=198|
2025/02/11 11:54:35.340376 8=FIX.4.4|9=3719|35=y|34=2|49=ISLD|52=20250211-11:54:35.337|56=TW|146=226|55=XS2114327302|55=XS2113136092|55=XS2121187962|55=XS2116222022|55=HK0000910544|55=XS2445374213|55=XS2429304368|55=US00084EAE86|55=XS2585673820|55=US606822BN36|55=XS2109790183|55=XS2101828452|55=US500630DQ87|55=XS2379456895|55=HK0000910189|55=XS2125599626|55=XS2449761076|55=US606822AU87|55=XS2423459242|55=XS2447949475|55=XS2123955952|55=XS2305026762|55=XS2125922349|55=XS2451285253|55=XS0893206747|55=XS2127855711|55=XS2126300479|55=XS2462338612|55=XS2451854991|55=USJ7771YLQ81|55=US438127AA08|55=USG9T27HAD62|55=XS1200840111|55=XS2453962107|55=XS2129684127|55=US00131MAB90|55=US2027A1KH95|55=US2027A1KJ51|55=XS1788514039|55=XS2450979484|55=US718286AP29|55=USY68856AN67|55=XS2133246673|55=XS2140589529|55=XS2248032653|55=US06407F2B71|55=XS2110952962|55=XS2122900330|55=XL2334361271|55=XS2077601610|55=XS2122990737|55=SG7V35954653|55=XS2453395001|55=XS2453372992|55=XS2455213590|55=US55608RBK59|55=US55608RBJ86|55=XS2454321519|55=XS2442748971|55=XS2432576382|55=XS2406886627|55=USJ46186BC59|55=XS2450206516|55=XS2049728004|55=USY6080GAA59|55=XS2460254282|55=XS2436799238|55=US056752AQ10|55=XS2446844834|55=US91127LAG59|55=XS2455963590|55=USV3856JAA17|55=XS2113708155|55=US65504LAN73|55=XS2406805213|55=XS1213177295|55=US44891CBK80|55=XS2426804998|55=XS2461794922|55=USJ4706DLU20|55=XS2484016643|55=XS2450908970|55=XS1791937441|55=XS2471135926|55=XS2458278731|55=XS1811213435|55=XS1810775145|55=XS2203824789|55=US71567RAD89|55=US50066RAR75|55=XS2125052261|55=USU3821WAD93|55=XS2068971980|55=XS2473321037|55=XS2180856440|55=USY0889VAA80|55=XS2133816012|55=XS2155486868|55=XS2445143329|55=USY5749LAA99|55=XS1214406792|55=XS2207192191|55=USG21184AB52|55=XS2158482211|55=USY3815NBE05|55=US82460EAP51|55=XS2471295969|55=XS2471127584|55=XS2432500309|55=XS2472507511|55=XS2465969132|55=XS2471231998|55=XS2158820477|55=XS2461426459|55=XS2471305867|55=XS2471384045|55=USG8201JAC56|55=XS2470956322|55=XS2334361271|55=US09681MAM01|55=XS2247552446|55=XS2163022739|55=XS2250030090|55=XS2227351900|55=XS1810963147|55=US500769GQ12|55=US50050HAM88|55=US12634MAB63|55=USY7133MAC39|55=USY4836TBT70|55=XS2451515279|55=USY4836TCE92|55=XS1226628961|55=XS2161924605|55=XS1227064430|55=XS1230332055|55=XS2078641888|55=XS2162033729|55=USG82016AN96|55=XS2469673698|55=USG5320CAB49|55=USY7140WAE85|55=XS2463140637|55=XS2475862533|55=XS2479371028|55=XS2169280919|55=XS2447552089|55=USY4872AHZ31|55=XS1402177601|55=XS1233275194|55=XS1227947097|55=XS2464646186|55=XS2079668609|55=AU3FN0069209|55=XS2176713613|55=US404280CS68|55=XS2471903331|55=XS1234958459|55=XS2085045503|55=XS2178924739|55=US20271BAJ44|55=XS2178949561|55=XS2481329733|55=XS1234197074|55=XS2345678900|55=XS2470154779|55=XS2485520261|55=XS2446005907|55=XS2446008083|55=XS2484328021|55=USU1793TAA08|55=XS2181972568|55=XS1240913068|55=USY8137FAC24|55=XS2178853375|55=XS2179842898|55=XS2182877865|55=XS1242348164|55=XS2472512354|55=USG5975LAA47|55=XS2487342300|55=XS2496620977|55=HK0000929692|55=HK0000854296|55=XS2485572148|55=XS2563889794|55=XS2473375124|55=USG8850LAA82|55=US55608YAB11|55=XS2590538380|55=XS2475950155|55=XS2433131559|55=CND10006G534|55=XS1822295983|55=XS1252209249|55=US71567RAN61|55=USY4907LAC64|55=XS2489981485|55=XS2484991844|55=XS2480876254|55=USY4899GCB78|55=USY4907LAB81|55=XS2489151709|55=XS2478801942|55=US056752AG38|55=XS2199681774|55=XS2480444970|55=XS2186093766|55=USG60744AE27|55=HK0000611928|55=US45604HAH03|55=XS2189906816|55=XS2179917906|55=FR0013428414|55=XS2190999834|55=XS2489808423|55=XS2190467667|55=US44891CCF86|55=XS1248248343|55=XS2489897343|55=XS1627599654|55=XS2861551898|55=XS2361426559|55=XS2484016642|55=XS2495307865|55=XS1253849357|320=SECURITYREQID|322=SECURITYREQIDRESP|560=0|10=080|
2025/02/11 14:34:46.083900 8=FIX.4.4|9=91|35=A|34=1|49=TW|52=20250211-14:34:46.083|56=ISLD|98=0|108=30|141=Y|553=Amstel|554=BondbloX|10=055|
2025/02/11 14:34:46.148251 8=FIX.4.4|9=67|35=A|34=1|49=ISLD|52=20250211-14:34:46.175|56=TW|98=0|108=30|141=Y|10=007|
2025/02/11 14:34:58.723451 8=FIX.4.4|9=73|35=x|34=2|49=TW|52=20250211-14:34:58.722|56=ISLD|320=SECURITYREQID|559=4|10=204|
2025/02/11 14:34:58.782930 8=FIX.4.4|9=3719|35=y|34=2|49=ISLD|52=20250211-14:34:58.808|56=TW|146=226|55=XS2114327302|55=XS2113136092|55=XS2121187962|55=XS2116222022|55=HK0000910544|55=XS2445374213|55=XS2429304368|55=US00084EAE86|55=XS2585673820|55=US606822BN36|55=XS2109790183|55=XS2101828452|55=US500630DQ87|55=XS2379456895|55=HK0000910189|55=XS2125599626|55=XS2449761076|55=US606822AU87|55=XS2423459242|55=XS2447949475|55=XS2123955952|55=XS2305026762|55=XS2125922349|55=XS2451285253|55=XS0893206747|55=XS2127855711|55=XS2126300479|55=XS2462338612|55=XS2451854991|55=USJ7771YLQ81|55=US438127AA08|55=USG9T27HAD62|55=XS1200840111|55=XS2453962107|55=XS2129684127|55=US00131MAB90|55=US2027A1KH95|55=US2027A1KJ51|55=XS1788514039|55=XS2450979484|55=US718286AP29|55=USY68856AN67|55=XS2133246673|55=XS2140589529|55=XS2248032653|55=US06407F2B71|55=XS2110952962|55=XS2122900330|55=XL2334361271|55=XS2077601610|55=XS2122990737|55=SG7V35954653|55=XS2453395001|55=XS2453372992|55=XS2455213590|55=US55608RBK59|55=US55608RBJ86|55=XS2454321519|55=XS2442748971|55=XS2432576382|55=XS2406886627|55=USJ46186BC59|55=XS2450206516|55=XS2049728004|55=USY6080GAA59|55=XS2460254282|55=XS2436799238|55=US056752AQ10|55=XS2446844834|55=US91127LAG59|55=XS2455963590|55=USV3856JAA17|55=XS2113708155|55=US65504LAN73|55=XS2406805213|55=XS1213177295|55=US44891CBK80|55=XS2426804998|55=XS2461794922|55=USJ4706DLU20|55=XS2484016643|55=XS2450908970|55=XS1791937441|55=XS2471135926|55=XS2458278731|55=XS1811213435|55=XS1810775145|55=XS2203824789|55=US71567RAD89|55=US50066RAR75|55=XS2125052261|55=USU3821WAD93|55=XS2068971980|55=XS2473321037|55=XS2180856440|55=USY0889VAA80|55=XS2133816012|55=XS2155486868|55=XS2445143329|55=USY5749LAA99|55=XS1214406792|55=XS2207192191|55=USG21184AB52|55=XS2158482211|55=USY3815NBE05|55=US82460EAP51|55=XS2471295969|55=XS2471127584|55=XS2432500309|55=XS2472507511|55=XS2465969132|55=XS2471231998|55=XS2158820477|55=XS2461426459|55=XS2471305867|55=XS2471384045|55=USG8201JAC56|55=XS2470956322|55=XS2334361271|55=US09681MAM01|55=XS2247552446|55=XS2163022739|55=XS2250030090|55=XS2227351900|55=XS1810963147|55=US500769GQ12|55=US50050HAM88|55=US12634MAB63|55=USY7133MAC39|55=USY4836TBT70|55=XS2451515279|55=USY4836TCE92|55=XS1226628961|55=XS2161924605|55=XS1227064430|55=XS1230332055|55=XS2078641888|55=XS2162033729|55=USG82016AN96|55=XS2469673698|55=USG5320CAB49|55=USY7140WAE85|55=XS2463140637|55=XS2475862533|55=XS2479371028|55=XS2169280919|55=XS2447552089|55=USY4872AHZ31|55=XS1402177601|55=XS1233275194|55=XS1227947097|55=XS2464646186|55=XS2079668609|55=AU3FN0069209|55=XS2176713613|55=US404280CS68|55=XS2471903331|55=XS1234958459|55=XS2085045503|55=XS2178924739|55=US20271BAJ44|55=XS2178949561|55=XS2481329733|55=XS1234197074|55=XS2345678900|55=XS2470154779|55=XS2485520261|55=XS2446005907|55=XS2446008083|55=XS2484328021|55=USU1793TAA08|55=XS2181972568|55=XS1240913068|55=USY8137FAC24|55=XS2178853375|55=XS2179842898|55=XS2182877865|55=XS1242348164|55=XS2472512354|55=USG5975LAA47|55=XS2487342300|55=XS2496620977|55=HK0000929692|55=HK0000854296|55=XS2485572148|55=XS2563889794|55=XS2473375124|55=USG8850LAA82|55=US55608YAB11|55=XS2590538380|55=XS2475950155|55=XS2433131559|55=CND10006G534|55=XS1822295983|55=XS1252209249|55=US71567RAN61|55=USY4907LAC64|55=XS2489981485|55=XS2484991844|55=XS2480876254|55=USY4899GCB78|55=USY4907LAB81|55=XS2489151709|55=XS2478801942|55=US056752AG38|55=XS2199681774|55=XS2480444970|55=XS2186093766|55=USG60744AE27|55=HK0000611928|55=US45604HAH03|55=XS2189906816|55=XS2179917906|55=FR0013428414|55=XS2190999834|55=XS2489808423|55=XS2190467667|55=US44891CCF86|55=XS1248248343|55=XS2489897343|55=XS1627599654|55=XS2861551898|55=XS2361426559|55=XS2484016642|55=XS2495307865|55=XS1253849357|320=SECURITYREQID|322=SECURITYREQIDRESP|560=0|10=089|
2025/02/11 14:35:28.726306 8=FIX.4.4|9=49|35=0|34=3|49=TW|52=20250211-14:35:28.726|56=ISLD|10=181|
2025/02/11 14:35:28.784481 8=FIX.4.4|9=49|35=0|34=3|49=ISLD|52=20250211-14:35:28.812|56=TW|10=177|
2025/02/11 14:35:58.729700 8=FIX.4.4|9=49|35=0|34=4|49=TW|52=20250211-14:35:58.729|56=ISLD|10=188|
2025/02/11 14:35:58.785477 8=FIX.4.4|9=49|35=0|34=4|49=ISLD|52=20250211-14:35:58.813|56=TW|10=182|
2025/02/11 14:36:28.732187 8=FIX.4.4|9=49|35=0|34=5|49=TW|52=20250211-14:36:28.732|56=ISLD|10=181|
2025/02/11 14:36:28.786288 8=FIX.4.4|9=49|35=0|34=5|49=ISLD|52=20250211-14:36:28.813|56=TW|10=181|
2025/02/11 14:36:58.734783 8=FIX.4.4|9=49|35=0|34=6|49=TW|52=20250211-14:36:58.734|56=ISLD|10=187|
2025/02/11 14:36:58.788085 8=FIX.4.4|9=49|35=0|34=6|49=ISLD|52=20250211-14:36:58.815|56=TW|10=187|
2025/02/11 14:37:28.737388 8=FIX.4.4|9=49|35=0|34=7|49=TW|52=20250211-14:37:28.737|56=ISLD|10=189|
2025/02/11 14:37:28.790407 8=FIX.4.4|9=49|35=0|34=7|49=ISLD|52=20250211-14:37:28.816|56=TW|10=187|
2025/02/11 14:37:58.738616 8=FIX.4.4|9=49|35=0|34=8|49=TW|52=20250211-14:37:58.738|56=ISLD|10=194|
2025/02/11 14:37:58.789069 8=FIX.4.4|9=49|35=0|34=8|49=ISLD|52=20250211-14:37:58.817|56=TW|10=192|
2025/02/11 14:38:28.749132 8=FIX.4.4|9=49|35=0|34=9|49=TW|52=20250211-14:38:28.748|56=ISLD|10=194|
2025/02/11 14:38:28.800102 8=FIX.4.4|9=49|35=0|34=9|49=ISLD|52=20250211-14:38:28.818|56=TW|10=192|
2025/02/11 14:38:58.755444 8=FIX.4.4|9=50|35=0|34=10|49=TW|52=20250211-14:38:58.755|56=ISLD|10=227|
2025/02/11 14:38:58.803370 8=FIX.4.4|9=50|35=0|34=10|49=ISLD|52=20250211-14:38:58.818|56=TW|10=227|
2025/02/11 14:39:28.758998 8=FIX.4.4|9=50|35=0|34=11|49=TW|52=20250211-14:39:28.758|56=ISLD|10=229|
2025/02/11 14:39:28.804767 8=FIX.4.4|9=50|35=0|34=11|49=ISLD|52=20250211-14:39:28.819|56=TW|10=227|
2025/02/11 14:40:12.441665 8=FIX.4.4|9=91|35=A|34=1|49=TW|52=20250211-14:40:12.441|56=ISLD|98=0|108=30|141=Y|553=Amstel|554=BondbloX|10=043|
2025/02/11 14:40:12.501038 8=FIX.4.4|9=67|35=A|34=1|49=ISLD|52=20250211-14:40:12.514|56=TW|98=0|108=30|141=Y|10=250|
2025/02/11 14:40:24.479716 8=FIX.4.4|9=73|35=x|34=2|49=TW|52=20250211-14:40:24.479|56=ISLD|320=SECURITYREQID|559=4|10=203|
2025/02/11 14:40:24.538818 8=FIX.4.4|9=3719|35=y|34=2|49=ISLD|52=20250211-14:40:24.551|56=TW|146=226|55=XS2114327302|55=XS2113136092|55=XS2121187962|55=XS2116222022|55=HK0000910544|55=XS2445374213|55=XS2429304368|55=US00084EAE86|55=XS2585673820|55=US606822BN36|55=XS2109790183|55=XS2101828452|55=US500630DQ87|55=XS2379456895|55=HK0000910189|55=XS2125599626|55=XS2449761076|55=US606822AU87|55=XS2423459242|55=XS2447949475|55=XS2123955952|55=XS2305026762|55=XS2125922349|55=XS2451285253|55=XS0893206747|55=XS2127855711|55=XS2126300479|55=XS2462338612|55=XS2451854991|55=USJ7771YLQ81|55=US438127AA08|55=USG9T27HAD62|55=XS1200840111|55=XS2453962107|55=XS2129684127|55=US00131MAB90|55=US2027A1KH95|55=US2027A1KJ51|55=XS1788514039|55=XS2450979484|55=US718286AP29|55=USY68856AN67|55=XS2133246673|55=XS2140589529|55=XS2248032653|55=US06407F2B71|55=XS2110952962|55=XS2122900330|55=XL2334361271|55=XS2077601610|55=XS2122990737|55=SG7V35954653|55=XS2453395001|55=XS2453372992|55=XS2455213590|55=US55608RBK59|55=US55608RBJ86|55=XS2454321519|55=XS2442748971|55=XS2432576382|55=XS2406886627|55=USJ46186BC59|55=XS2450206516|55=XS2049728004|55=USY6080GAA59|55=XS2460254282|55=XS2436799238|55=US056752AQ10|55=XS2446844834|55=US91127LAG59|55=XS2455963590|55=USV3856JAA17|55=XS2113708155|55=US65504LAN73|55=XS2406805213|55=XS1213177295|55=US44891CBK80|55=XS2426804998|55=XS2461794922|55=USJ4706DLU20|55=XS2484016643|55=XS2450908970|55=XS1791937441|55=XS2471135926|55=XS2458278731|55=XS1811213435|55=XS1810775145|55=XS2203824789|55=US71567RAD89|55=US50066RAR75|55=XS2125052261|55=USU3821WAD93|55=XS2068971980|55=XS2473321037|55=XS2180856440|55=USY0889VAA80|55=XS2133816012|55=XS2155486868|55=XS2445143329|55=USY5749LAA99|55=XS1214406792|55=XS2207192191|55=USG21184AB52|55=XS2158482211|55=USY3815NBE05|55=US82460EAP51|55=XS2471295969|55=XS2471127584|55=XS2432500309|55=XS2472507511|55=XS2465969132|55=XS2471231998|55=XS2158820477|55=XS2461426459|55=XS2471305867|55=XS2471384045|55=USG8201JAC56|55=XS2470956322|55=XS2334361271|55=US09681MAM01|55=XS2247552446|55=XS2163022739|55=XS2250030090|55=XS2227351900|55=XS1810963147|55=US500769GQ12|55=US50050HAM88|55=US12634MAB63|55=USY7133MAC39|55=USY4836TBT70|55=XS2451515279|55=USY4836TCE92|55=XS1226628961|55=XS2161924605|55=XS1227064430|55=XS1230332055|55=XS2078641888|55=XS2162033729|55=USG82016AN96|55=XS2469673698|55=USG5320CAB49|55=USY7140WAE85|55=XS2463140637|55=XS2475862533|55=XS2479371028|55=XS2169280919|55=XS2447552089|55=USY4872AHZ31|55=XS1402177601|55=XS1233275194|55=XS1227947097|55=XS2464646186|55=XS2079668609|55=AU3FN0069209|55=XS2176713613|55=US404280CS68|55=XS2471903331|55=XS1234958459|55=XS2085045503|55=XS2178924739|55=US20271BAJ44|55=XS2178949561|55=XS2481329733|55=XS1234197074|55=XS2345678900|55=XS2470154779|55=XS2485520261|55=XS2446005907|55=XS2446008083|55=XS2484328021|55=USU1793TAA08|55=XS2181972568|55=XS1240913068|55=USY8137FAC24|55=XS2178853375|55=XS2179842898|55=XS2182877865|55=XS1242348164|55=XS2472512354|55=USG5975LAA47|55=XS2487342300|55=XS2496620977|55=HK0000929692|55=HK0000854296|55=XS2485572148|55=XS2563889794|55=XS2473375124|55=USG8850LAA82|55=US55608YAB11|55=XS2590538380|55=XS2475950155|55=XS2433131559|55=CND10006G534|55=XS1822295983|55=XS1252209249|55=US71567RAN61|55=USY4907LAC64|55=XS2489981485|55=XS2484991844|55=XS2480876254|55=USY4899GCB78|55=USY4907LAB81|55=XS2489151709|55=XS2478801942|55=US056752AG38|55=XS2199681774|55=XS2480444970|55=XS2186093766|55=USG60744AE27|55=HK0000611928|55=US45604HAH03|55=XS2189906816|55=XS2179917906|55=FR0013428414|55=XS2190999834|55=XS2489808423|55=XS2190467667|55=US44891CCF86|55=XS1248248343|55=XS2489897343|55=XS1627599654|55=XS2861551898|55=XS2361426559|55=XS2484016642|55=XS2495307865|55=XS1253849357|320=SECURITYREQID|322=SECURITYREQIDRESP|560=0|10=074|
2025/02/11 14:40:54.482458 8=FIX.4.4|9=49|35=0|34=3|49=TW|52=20250211-14:40:54.482|56=ISLD|10=175|
2025/02/11 14:40:54.541550 8=FIX.4.4|9=49|35=0|34=3|49=ISLD|52=20250211-14:40:54.555|56=TW|10=176|
2025/02/11 14:41:24.485591 8=FIX.4.4|9=49|35=0|34=4|49=TW|52=20250211-14:41:24.485|56=ISLD|10=177|
2025/02/11 14:41:24.542602 8=FIX.4.4|9=49|35=0|34=4|49=ISLD|52=20250211-14:41:24.556|56=TW|10=176|
2025/02/11 14:41:54.487652 8=FIX.4.4|9=49|35=0|34=5|49=TW|52=20250211-14:41:54.487|56=ISLD|10=183|
2025/02/11 14:41:54.545038 8=FIX.4.4|9=49|35=0|34=5|49=ISLD|52=20250211-14:41:54.558|56=TW|10=182|
2025/02/11 14:42:24.489410 8=FIX.4.4|9=49|35=0|34=6|49=TW|52=20250211-14:42:24.488|56=ISLD|10=183|
2025/02/11 14:42:24.546201 8=FIX.4.4|9=49|35=0|34=6|49=ISLD|52=20250211-14:42:24.559|56=TW|10=182|
2025/02/11 14:42:54.491461 8=FIX.4.4|9=49|35=0|34=7|49=TW|52=20250211-14:42:54.491|56=ISLD|10=181|
2025/02/11 14:42:54.545643 8=FIX.4.4|9=49|35=0|34=7|49=ISLD|52=20250211-14:42:54.560|56=TW|10=178|
2025/02/11 14:43:24.493408 8=FIX.4.4|9=49|35=0|34=8|49=TW|52=20250211-14:43:24.493|56=ISLD|10=182|
2025/02/11 14:43:24.547472 8=FIX.4.4|9=49|35=0|34=8|49=ISLD|52=20250211-14:43:24.561|56=TW|10=178|
2025/02/11 14:43:54.496046 8=FIX.4.4|9=49|35=0|34=9|49=TW|52=20250211-14:43:54.495|56=ISLD|10=188|
2025/02/11 14:43:54.548296 8=FIX.4.4|9=49|35=0|34=9|49=ISLD|52=20250211-14:43:54.562|56=TW|10=183|
2025/02/11 14:44:24.500651 8=FIX.4.4|9=50|35=0|34=10|49=TW|52=20250211-14:44:24.500|56=ISLD|10=205|
2025/02/11 14:44:24.549682 8=FIX.4.4|9=50|35=0|34=10|49=ISLD|52=20250211-14:44:24.563|56=TW|10=214|
2025/02/11 14:44:54.503292 8=FIX.4.4|9=50|35=0|34=11|49=TW|52=20250211-14:44:54.503|56=ISLD|10=212|
2025/02/11 14:44:54.550242 8=FIX.4.4|9=50|35=0|34=11|49=ISLD|52=20250211-14:44:54.564|56=TW|10=219|
2025/02/11 14:45:24.506144 8=FIX.4.4|9=50|35=0|34=12|49=TW|52=20250211-14:45:24.505|56=ISLD|10=213|
2025/02/11 14:45:24.551787 8=FIX.4.4|9=50|35=0|34=12|49=ISLD|52=20250211-14:45:24.565|56=TW|10=219|
2025/02/11 14:45:54.508840 8=FIX.4.4|9=50|35=0|34=13|49=TW|52=20250211-14:45:54.508|56=ISLD|10=220|
2025/02/11 14:45:54.553645 8=FIX.4.4|9=50|35=0|34=13|49=ISLD|52=20250211-14:45:54.566|56=TW|10=224|
2025/02/11 14:46:24.512015 8=FIX.4.4|9=50|35=0|34=14|49=TW|52=20250211-14:46:24.511|56=ISLD|10=213|
2025/02/11 14:46:24.553644 8=FIX.4.4|9=50|35=0|34=14|49=ISLD|52=20250211-14:46:24.567|56=TW|10=224|
2025/02/11 14:46:54.514603 8=FIX.4.4|9=50|35=0|34=15|49=TW|52=20250211-14:46:54.514|56=ISLD|10=220|
2025/02/11 14:46:54.554313 8=FIX.4.4|9=50|35=0|34=15|49=ISLD|52=20250211-14:46:54.567|56=TW|10=228|
2025/02/11 14:47:24.517622 8=FIX.4.4|9=50|35=0|34=16|49=TW|52=20250211-14:47:24.517|56=ISLD|10=222|
2025/02/11 14:47:24.554776 8=FIX.4.4|9=50|35=0|34=16|49=ISLD|52=20250211-14:47:24.568|56=TW|10=228|
2025/02/11 14:47:54.520387 8=FIX.4.4|9=50|35=0|34=17|49=TW|52=20250211-14:47:54.520|56=ISLD|10=220|
2025/02/11 14:47:54.557915 8=FIX.4.4|9=50|35=0|34=17|49=ISLD|52=20250211-14:47:54.569|56=TW|10=233|
2025/02/11 14:48:24.523363 8=FIX.4.4|9=50|35=0|34=18|49=TW|52=20250211-14:48:24.523|56=ISLD|10=222|
2025/02/11 14:48:24.557422 8=FIX.4.4|9=50|35=0|34=18|49=ISLD|52=20250211-14:48:24.570|56=TW|10=224|
2025/02/11 14:48:54.527223 8=FIX.4.4|9=50|35=0|34=19|49=TW|52=20250211-14:48:54.525|56=ISLD|10=228|
2025/02/11 14:48:54.559112 8=FIX.4.4|9=50|35=0|34=19|49=ISLD|52=20250211-14:48:54.571|56=TW|10=229|
2025/02/11 14:49:24.528672 8=FIX.4.4|9=50|35=0|34=20|49=TW|52=20250211-14:49:24.528|56=ISLD|10=221|
2025/02/11 14:49:24.559686 8=FIX.4.4|9=50|35=0|34=20|49=ISLD|52=20250211-14:49:24.572|56=TW|10=220|
2025/02/11 14:49:54.533560 8=FIX.4.4|9=50|35=0|34=21|49=TW|52=20250211-14:49:54.533|56=ISLD|10=221|
2025/02/11 14:49:54.559787 8=FIX.4.4|9=50|35=0|34=21|49=ISLD|52=20250211-14:49:54.572|56=TW|10=224|
2025/02/11 14:50:24.535684 8=FIX.4.4|9=50|35=0|34=22|49=TW|52=20250211-14:50:24.535|56=ISLD|10=213|
2025/02/11 14:50:24.561118 8=FIX.4.4|9=50|35=0|34=22|49=ISLD|52=20250211-14:50:24.573|56=TW|10=215|
2025/02/11 14:50:54.538343 8=FIX.4.4|9=50|35=0|34=23|49=TW|52=20250211-14:50:54.538|56=ISLD|10=220|
2025/02/11 14:50:54.561384 8=FIX.4.4|9=50|35=0|34=23|49=ISLD|52=20250211-14:50:54.573|56=TW|10=219|
2025/02/11 14:51:24.541723 8=FIX.4.4|9=50|35=0|34=24|49=TW|52=20250211-14:51:24.541|56=ISLD|10=213|
2025/02/11 14:51:24.562907 8=FIX.4.4|9=50|35=0|34=24|49=ISLD|52=20250211-14:51:24.574|56=TW|10=219|
2025/02/11 14:51:54.544681 8=FIX.4.4|9=50|35=0|34=25|49=TW|52=20250211-14:51:54.544|56=ISLD|10=220|
2025/02/11 14:51:54.562860 8=FIX.4.4|9=50|35=0|34=25|49=ISLD|52=20250211-14:51:54.575|56=TW|10=224|
2025/02/11 14:52:24.547315 8=FIX.4.4|9=50|35=0|34=26|49=TW|52=20250211-14:52:24.547|56=ISLD|10=222|
2025/02/11 14:52:24.563307 8=FIX.4.4|9=50|35=0|34=26|49=ISLD|52=20250211-14:52:24.575|56=TW|10=223|
2025/02/11 14:52:54.550864 8=FIX.4.4|9=50|35=0|34=27|49=TW|52=20250211-14:52:54.549|56=ISLD|10=228|
2025/02/11 14:52:54.564217 8=FIX.4.4|9=50|35=0|34=27|49=ISLD|52=20250211-14:52:54.576|56=TW|10=228|
2025/02/11 14:53:24.553275 8=FIX.4.4|9=50|35=0|34=28|49=TW|52=20250211-14:53:24.553|56=ISLD|10=222|
2025/02/11 14:53:24.564833 8=FIX.4.4|9=50|35=0|34=28|49=ISLD|52=20250211-14:53:24.577|56=TW|10=228|
2025/02/11 14:53:54.556181 8=FIX.4.4|9=50|35=0|34=29|49=TW|52=20250211-14:53:54.556|56=ISLD|10=229|
2025/02/11 14:53:54.566004 8=FIX.4.4|9=50|35=0|34=29|49=ISLD|52=20250211-14:53:54.578|56=TW|10=233|
2025/02/11 14:54:24.562306 8=FIX.4.4|9=50|35=0|34=30|49=TW|52=20250211-14:54:24.562|56=ISLD|10=216|
2025/02/11 14:54:24.576270 8=FIX.4.4|9=50|35=0|34=30|49=ISLD|52=20250211-14:54:24.579|56=TW|10=224|
2025/02/11 14:54:54.568451 8=FIX.4.4|9=50|35=0|34=31|49=TW|52=20250211-14:54:54.566|56=ISLD|10=224|
2025/02/11 14:54:54.574838 8=FIX.4.4|9=50|35=0|34=31|49=ISLD|52=20250211-14:54:54.580|56=TW|10=220|
2025/02/11 14:55:10.500510 8=FIX.4.4|9=91|35=A|34=1|49=TW|52=20250211-14:55:10.500|56=ISLD|98=0|108=30|141=Y|553=Amstel|554=BondbloX|10=043|
2025/02/11 14:55:10.567690 8=FIX.4.4|9=67|35=A|34=1|49=ISLD|52=20250211-14:55:10.572|56=TW|98=0|108=30|141=Y|10=002|
2025/02/11 14:55:18.542110 8=FIX.4.4|9=73|35=x|34=2|49=TW|52=20250211-14:55:18.541|56=ISLD|320=SECURITYREQID|559=4|10=202|
2025/02/11 14:55:18.605022 8=FIX.4.4|9=3719|35=y|34=2|49=ISLD|52=20250211-14:55:18.601|56=TW|146=226|55=XS2114327302|55=XS2113136092|55=XS2121187962|55=XS2116222022|55=HK0000910544|55=XS2445374213|55=XS2429304368|55=US00084EAE86|55=XS2585673820|55=US606822BN36|55=XS2109790183|55=XS2101828452|55=US500630DQ87|55=XS2379456895|55=HK0000910189|55=XS2125599626|55=XS2449761076|55=US606822AU87|55=XS2423459242|55=XS2447949475|55=XS2123955952|55=XS2305026762|55=XS2125922349|55=XS2451285253|55=XS0893206747|55=XS2127855711|55=XS2126300479|55=XS2462338612|55=XS2451854991|55=USJ7771YLQ81|55=US438127AA08|55=USG9T27HAD62|55=XS1200840111|55=XS2453962107|55=XS2129684127|55=US00131MAB90|55=US2027A1KH95|55=US2027A1KJ51|55=XS1788514039|55=XS2450979484|55=US718286AP29|55=USY68856AN67|55=XS2133246673|55=XS2140589529|55=XS2248032653|55=US06407F2B71|55=XS2110952962|55=XS2122900330|55=XL2334361271|55=XS2077601610|55=XS2122990737|55=SG7V35954653|55=XS2453395001|55=XS2453372992|55=XS2455213590|55=US55608RBK59|55=US55608RBJ86|55=XS2454321519|55=XS2442748971|55=XS2432576382|55=XS2406886627|55=USJ46186BC59|55=XS2450206516|55=XS2049728004|55=USY6080GAA59|55=XS2460254282|55=XS2436799238|55=US056752AQ10|55=XS2446844834|55=US91127LAG59|55=XS2455963590|55=USV3856JAA17|55=XS2113708155|55=US65504LAN73|55=XS2406805213|55=XS1213177295|55=US44891CBK80|55=XS2426804998|55=XS2461794922|55=USJ4706DLU20|55=XS2484016643|55=XS2450908970|55=XS1791937441|55=XS2471135926|55=XS2458278731|55=XS1811213435|55=XS1810775145|55=XS2203824789|55=US71567RAD89|55=US50066RAR75|55=XS2125052261|55=USU3821WAD93|55=XS2068971980|55=XS2473321037|55=XS2180856440|55=USY0889VAA80|55=XS2133816012|55=XS2155486868|55=XS2445143329|55=USY5749LAA99|55=XS1214406792|55=XS2207192191|55=USG21184AB52|55=XS2158482211|55=USY3815NBE05|55=US82460EAP51|55=XS2471295969|55=XS2471127584|55=XS2432500309|55=XS2472507511|55=XS2465969132|55=XS2471231998|55=XS2158820477|55=XS2461426459|55=XS2471305867|55=XS2471384045|55=USG8201JAC56|55=XS2470956322|55=XS2334361271|55=US09681MAM01|55=XS2247552446|55=XS2163022739|55=XS2250030090|55=XS2227351900|55=XS1810963147|55=US500769GQ12|55=US50050HAM88|55=US12634MAB63|55=USY7133MAC39|55=USY4836TBT70|55=XS2451515279|55=USY4836TCE92|55=XS1226628961|55=XS2161924605|55=XS1227064430|55=XS1230332055|55=XS2078641888|55=XS2162033729|55=USG82016AN96|55=XS2469673698|55=USG5320CAB49|55=USY7140WAE85|55=XS2463140637|55=XS2475862533|55=XS2479371028|55=XS2169280919|55=XS2447552089|55=USY4872AHZ31|55=XS1402177601|55=XS1233275194|55=XS1227947097|55=XS2464646186|55=XS2079668609|55=AU3FN0069209|55=XS2176713613|55=US404280CS68|55=XS2471903331|55=XS1234958459|55=XS2085045503|55=XS2178924739|55=US20271BAJ44|55=XS2178949561|55=XS2481329733|55=XS1234197074|55=XS2345678900|55=XS2470154779|55=XS2485520261|55=XS2446005907|55=XS2446008083|55=XS2484328021|55=USU1793TAA08|55=XS2181972568|55=XS1240913068|55=USY8137FAC24|55=XS2178853375|55=XS2179842898|55=XS2182877865|55=XS1242348164|55=XS2472512354|55=USG5975LAA47|55=XS2487342300|55=XS2496620977|55=HK0000929692|55=HK0000854296|55=XS2485572148|55=XS2563889794|55=XS2473375124|55=USG8850LAA82|55=US55608YAB11|55=XS2590538380|55=XS2475950155|55=XS2433131559|55=CND10006G534|55=XS1822295983|55=XS1252209249|55=US71567RAN61|55=USY4907LAC64|55=XS2489981485|55=XS2484991844|55=XS2480876254|55=USY4899GCB78|55=USY4907LAB81|55=XS2489151709|55=XS2478801942|55=US056752AG38|55=XS2199681774|55=XS2480444970|55=XS2186093766|55=USG60744AE27|55=HK0000611928|55=US45604HAH03|55=XS2189906816|55=XS2179917906|55=FR0013428414|55=XS2190999834|55=XS2489808423|55=XS2190467667|55=US44891CCF86|55=XS1248248343|55=XS2489897343|55=XS1627599654|55=XS2861551898|55=XS2361426559|55=XS2484016642|55=XS2495307865|55=XS1253849357|320=SECURITYREQID|322=SECURITYREQIDRESP|560=0|10=079|
2025/02/11 14:55:48.544149 8=FIX.4.4|9=49|35=0|34=3|49=TW|52=20250211-14:55:48.543|56=ISLD|10=182|
2025/02/11 14:55:48.605979 8=FIX.4.4|9=49|35=0|34=3|49=ISLD|52=20250211-14:55:48.610|56=TW|10=177|
2025/02/11 14:56:18.546166 8=FIX.4.4|9=49|35=0|34=4|49=TW|52=20250211-14:56:18.546|56=ISLD|10=184|
2025/02/11 14:56:18.607314 8=FIX.4.4|9=49|35=0|34=4|49=ISLD|52=20250211-14:56:18.611|56=TW|10=177|
2025/02/11 14:56:48.548225 8=FIX.4.4|9=49|35=0|34=5|49=TW|52=20250211-14:56:48.548|56=ISLD|10=190|
2025/02/11 14:56:48.608388 8=FIX.4.4|9=49|35=0|34=5|49=ISLD|52=20250211-14:56:48.612|56=TW|10=182|
2025/02/11 14:57:18.551168 8=FIX.4.4|9=49|35=0|34=6|49=TW|52=20250211-14:57:18.551|56=ISLD|10=183|
2025/02/11 14:57:18.609138 8=FIX.4.4|9=49|35=0|34=6|49=ISLD|52=20250211-14:57:18.612|56=TW|10=181|
2025/02/11 14:57:48.552940 8=FIX.4.4|9=49|35=0|34=7|49=TW|52=20250211-14:57:48.552|56=ISLD|10=188|
2025/02/11 14:57:48.609757 8=FIX.4.4|9=49|35=0|34=7|49=ISLD|52=20250211-14:57:48.613|56=TW|10=186|
2025/02/11 14:58:18.555415 8=FIX.4.4|9=49|35=0|34=8|49=TW|52=20250211-14:58:18.555|56=ISLD|10=190|
2025/02/11 14:58:18.610255 8=FIX.4.4|9=49|35=0|34=8|49=ISLD|52=20250211-14:58:18.614|56=TW|10=186|
2025/02/11 14:58:48.557484 8=FIX.4.4|9=49|35=0|34=9|49=TW|52=20250211-14:58:48.557|56=ISLD|10=196|
2025/02/11 14:58:48.611318 8=FIX.4.4|9=49|35=0|34=9|49=ISLD|52=20250211-14:58:48.615|56=TW|10=191|
2025/02/11 14:59:18.560415 8=FIX.4.4|9=50|35=0|34=10|49=TW|52=20250211-14:59:18.560|56=ISLD|10=220|
2025/02/11 14:59:18.612172 8=FIX.4.4|9=50|35=0|34=10|49=ISLD|52=20250211-14:59:18.615|56=TW|10=221|
2025/02/11 14:59:48.562323 8=FIX.4.4|9=50|35=0|34=11|49=TW|52=20250211-14:59:48.562|56=ISLD|10=226|
2025/02/11 14:59:48.613607 8=FIX.4.4|9=50|35=0|34=11|49=ISLD|52=20250211-14:59:48.616|56=TW|10=226|
2025/02/11 15:00:18.565348 8=FIX.4.4|9=50|35=0|34=12|49=TW|52=20250211-15:00:18.565|56=ISLD|10=214|
2025/02/11 15:00:18.614017 8=FIX.4.4|9=50|35=0|34=12|49=ISLD|52=20250211-15:00:18.617|56=TW|10=212|
2025/02/11 15:00:48.567500 8=FIX.4.4|9=50|35=0|34=13|49=TW|52=20250211-15:00:48.567|56=ISLD|10=220|
2025/02/11 15:00:48.614864 8=FIX.4.4|9=50|35=0|34=13|49=ISLD|52=20250211-15:00:48.618|56=TW|10=217|
2025/02/11 15:01:18.570830 8=FIX.4.4|9=50|35=0|34=14|49=TW|52=20250211-15:01:18.570|56=ISLD|10=213|
2025/02/11 15:01:18.616413 8=FIX.4.4|9=50|35=0|34=14|49=ISLD|52=20250211-15:01:18.618|56=TW|10=216|
2025/02/11 15:01:48.573586 8=FIX.4.4|9=50|35=0|34=15|49=TW|52=20250211-15:01:48.573|56=ISLD|10=220|
2025/02/11 15:01:48.618429 8=FIX.4.4|9=50|35=0|34=15|49=ISLD|52=20250211-15:01:48.619|56=TW|10=221|
2025/02/11 15:02:18.576630 8=FIX.4.4|9=50|35=0|34=16|49=TW|52=20250211-15:02:18.576|56=ISLD|10=222|
2025/02/11 15:02:18.621043 8=FIX.4.4|9=50|35=0|34=16|49=ISLD|52=20250211-15:02:18.620|56=TW|10=212|
2025/02/11 15:02:48.577744 8=FIX.4.4|9=50|35=0|34=17|49=TW|52=20250211-15:02:48.577|56=ISLD|10=227|
2025/02/11 15:02:48.618617 8=FIX.4.4|9=50|35=0|34=17|49=ISLD|52=20250211-15:02:48.621|56=TW|10=217|
2025/02/11 15:03:18.580203 8=FIX.4.4|9=50|35=0|34=18|49=TW|52=20250211-15:03:18.580|56=ISLD|10=220|
2025/02/11 15:03:18.621893 8=FIX.4.4|9=50|35=0|34=18|49=ISLD|52=20250211-15:03:18.622|56=TW|10=217|
2025/02/11 15:03:48.581742 8=FIX.4.4|9=50|35=0|34=19|49=TW|52=20250211-15:03:48.581|56=ISLD|10=225|
2025/02/11 15:03:48.623208 8=FIX.4.4|9=50|35=0|34=19|49=ISLD|52=20250211-15:03:48.623|56=TW|10=222|
2025/02/11 15:04:18.585136 8=FIX.4.4|9=50|35=0|34=20|49=TW|52=20250211-15:04:18.584|56=ISLD|10=218|
2025/02/11 15:04:18.622663 8=FIX.4.4|9=50|35=0|34=20|49=ISLD|52=20250211-15:04:18.624|56=TW|10=213|
2025/02/11 15:04:48.587079 8=FIX.4.4|9=50|35=0|34=21|49=TW|52=20250211-15:04:48.586|56=ISLD|10=224|
2025/02/11 15:04:48.623584 8=FIX.4.4|9=50|35=0|34=21|49=ISLD|52=20250211-15:04:48.625|56=TW|10=218|
2025/02/11 15:05:18.590582 8=FIX.4.4|9=50|35=0|34=22|49=TW|52=20250211-15:05:18.590|56=ISLD|10=218|
2025/02/11 15:05:18.624647 8=FIX.4.4|9=50|35=0|34=22|49=ISLD|52=20250211-15:05:18.626|56=TW|10=218|
2025/02/11 15:05:48.594618 8=FIX.4.4|9=50|35=0|34=23|49=TW|52=20250211-15:05:48.594|56=ISLD|10=226|
2025/02/11 15:05:48.626894 8=FIX.4.4|9=50|35=0|34=23|49=ISLD|52=20250211-15:05:48.627|56=TW|10=223|
2025/02/11 15:06:18.596914 8=FIX.4.4|9=50|35=0|34=24|49=TW|52=20250211-15:06:18.596|56=ISLD|10=227|
2025/02/11 15:06:18.626943 8=FIX.4.4|9=50|35=0|34=24|49=ISLD|52=20250211-15:06:18.628|56=TW|10=223|
2025/02/11 15:08:59.119696 8=FIX.4.4|9=91|35=A|34=1|49=TW|52=20250211-15:08:59.119|56=ISLD|98=0|108=30|141=Y|553=Amstel|554=BondbloX|10=061|
2025/02/11 15:09:29.297234 8=FIX.4.4|9=85|35=A|34=3|49=TW|52=20250211-15:09:29.296|56=ISLD|98=0|108=30|553=Amstel|554=BondbloX|10=025|
2025/02/11 15:09:59.455497 8=FIX.4.4|9=85|35=A|34=4|49=TW|52=20250211-15:09:59.455|56=ISLD|98=0|108=30|553=Amstel|554=BondbloX|10=026|
2025/02/11 15:10:19.114564 8=FIX.4.4|9=91|35=A|34=1|49=TW|52=20250211-15:10:19.114|56=ISLD|98=0|108=30|141=Y|553=Amstel|554=BondbloX|10=045|
2025/02/11 15:10:49.262901 8=FIX.4.4|9=85|35=A|34=3|49=TW|52=20250211-15:10:49.262|56=ISLD|98=0|108=30|553=Amstel|554=BondbloX|10=012|
2025/02/11 15:11:19.422078 8=FIX.4.4|9=85|35=A|34=4|49=TW|52=20250211-15:11:19.422|56=ISLD|98=0|108=30|553=Amstel|554=BondbloX|10=009|
2025/02/11 15:11:49.580753 8=FIX.4.4|9=85|35=A|34=5|49=TW|52=20250211-15:11:49.580|56=ISLD|98=0|108=30|553=Amstel|554=BondbloX|10=018|
2025/02/11 15:27:33.128125 8=FIX.4.4|9=91|35=A|34=1|49=TW|52=20250211-15:27:33.127|56=ISLD|98=0|108=30|141=Y|553=Amstel|554=BondbloX|10=053|
2025/02/11 15:28:03.294413 8=FIX.4.4|9=85|35=A|34=3|49=TW|52=20250211-15:28:03.294|56=ISLD|98=0|108=30|553=Amstel|554=BondbloX|10=016|
2025/02/11 15:28:33.452616 8=FIX.4.4|9=85|35=A|34=4|49=TW|52=20250211-15:28:33.452|56=ISLD|98=0|108=30|553=Amstel|554=BondbloX|10=016|
2025/02/11 15:28:55.132709 8=FIX.4.4|9=91|35=A|34=1|49=TW|52=20250211-15:28:55.132|56=ISLD|98=0|108=30|141=Y|553=Amstel|554=BondbloX|10=054|
2025/02/11 15:29:25.295911 8=FIX.4.4|9=85|35=A|34=2|49=TW|52=20250211-15:29:25.295|56=ISLD|98=0|108=30|553=Amstel|554=BondbloX|10=021|
2025/02/11 15:29:39.131052 8=FIX.4.4|9=91|35=A|34=1|49=TW|52=20250211-15:29:39.130|56=ISLD|98=0|108=30|141=Y|553=Amstel|554=BondbloX|10=055|
2025/02/11 15:30:09.289240 8=FIX.4.4|9=85|35=A|34=2|49=TW|52=20250211-15:30:09.289|56=ISLD|98=0|108=30|553=Amstel|554=BondbloX|10=018|
2025/02/11 15:30:39.445256 8=FIX.4.4|9=85|35=A|34=3|49=TW|52=20250211-15:30:39.445|56=ISLD|98=0|108=30|553=Amstel|554=BondbloX|10=016|
2025/02/11 15:31:07.128473 8=FIX.4.4|9=91|35=A|34=1|49=TW|52=20250211-15:31:07.128|56=ISLD|98=0|108=30|141=Y|553=Amstel|554=BondbloX|10=050|
2025/02/11 15:31:07.191633 8=FIX.4.4|9=67|35=A|34=1|49=ISLD|52=20250211-15:31:07.228|56=TW|98=0|108=30|141=Y|10=001|
2025/02/11 15:31:24.144638 8=FIX.4.4|9=73|35=x|34=2|49=TW|52=20250211-15:31:24.144|56=ISLD|320=SECURITYREQID|559=4|10=193|
2025/02/11 15:31:24.210404 8=FIX.4.4|9=4023|35=y|34=2|49=ISLD|52=20250211-15:31:24.242|56=TW|146=245|55=XS2382032956|55=USY20721BG36|55=XS2099045515|55=XS2099372802|55=XS2050614796|55=XS2258819874|55=XS2388867751|55=USY7133MAC39|55=XS2169280919|55=USY7140WAE85|55=US71567RAD89|55=USY8137FAC24|55=XS1268430201|55=XS1681502537|55=XS1891336932|55=XS2093792013|55=USY8137FAE89|55=USY39690AA30|55=USY20721BN86|55=XS2199575569|55=XS2787477277|55=XS2279432384|55=XS2291793573|55=US69370RAK32|55=XS2313088739|55=US71567RAF38|55=XS2577785921|55=XS2322319398|55=XS2340901607|55=US71567RAR75|55=USY8137FAF54|55=USY708CHAB61|55=USN5276YAD87|55=XS2012546714|55=XS2219433765|55=USY20721BQ18|55=XS2744911756|55=USY56607AA51|55=XS2100404396|55=XS2314514477|55=XS2068075980|55=XS2301051541|55=XS2344284893|55=USY6142NAC21|55=US71567RAN61|55=US71567RAH93|55=XS2099273737|55=XS1810775145|55=USY7141BAA18|55=USY8137FAH11|55=XS2207510319|55=USY6142NAF51|55=XS2399476972|55=XS2407048623|55=XS2189919637|55=XS2202749003|55=US455780CD62|55=US455780DQ66|55=USY6142NAG35|55=XS0972298300|55=USY8137FAL23|55=US455780CF11|55=XS2327392234|55=XS2099563228|55=XS1432493440|55=XS2191510713|55=USY59500AA95|55=USY7140WAC20|55=US71567RAX44|55=XS2194913443|55=XS2198145422|55=US71568QAG29|55=XS2419405274|55=US455780CH76|55=US71567RAM88|55=XS2774954650|55=US455780DT06|55=USY8137FAP37|55=XS2774954577|55=XS2209978639|55=XS2208939368|55=USY6142NAH18|55=XS2330597738|55=USY68613AA90|55=US71568QAJ67|55=XS2366690332|55=XS2223798229|55=XS2207510582|55=XS1729875598|55=XS2199718003|55=US71568QAC15|55=US71567RAK23|55=US71567RAU05|55=XS2334361271|55=XS2390472624|55=USY20721BT56|55=XS2104985598|55=US69370RAD98|55=US455780CK06|55=XS1991219442|55=XS2334361354|55=US718286CK14|55=US71568QAL14|55=US455780CQ75|55=USY8137FAR92|55=US718286CN52|55=USY7141MAA72|55=USY7140WAF50|55=US718286AP29|55=US71567RAP10|55=US718286CJ41|55=US71568QAN79|55=US718286CL96|55=US718286CH84|55=US718286CC97|55=USN57445AA17|55=US455780CS32|55=US718286CP01|55=US718286CQ83|55=US69370RAL15|55=US718286CR66|55=XS2322319638|55=XS2349180104|55=US71567RAS58|55=USY6142NAE86|55=XS2069959398|55=US718286CG02|55=US718286BZ91|55=USY6972HLP91|55=USY7141BAB90|55=XS2399787899|55=US455780DN36|55=US718286DE45|55=US455780DR40|55=XS2280331898|55=US718286CY18|55=US69370RAH03|55=US69370RAF47|55=US455780CV60|55=XS2334361511|55=US718286CB15|55=US718286CA32|55=US455780DJ24|55=US455780CY00|55=US718286CW51|55=US71567RAY27|55=US455780DU78|55=US718286BW60|55=XS2387734317|55=USY7329CAA37|55=USY68613AB73|55=US455780DX18|55=US718286DD61|55=US718286DA23|55=USY20721AE96|55=US718286BN61|55=USN54360AD95|55=USN57445AB99|55=USY20721AL30|55=US718286CX35|55=US718286DB06|55=US718286CT23|55=USY7138AAB62|55=USY20721BB49|55=US718286CU95|55=USY7138AAD29|55=US71568QAB32|55=USY20721BE87|55=USY7138AAF76|55=USY20721BK48|55=US69370RAA59|55=USY20721BM04|55=US718286BD89|55=USY7133MAB55|55=US718286BG11|55=USY20721BP35|55=USY20721BR90|55=US718286AY36|55=USY20721BU20|55=XS2921409756|55=US455780CE46|55=USY7140WAD03|55=US71568QAH02|55=US455780CJ33|55=US71568QAK31|55=US69370RAE71|55=USY51478AA66|55=US71568QAF46|55=US71568QAD97|55=US637193BA03|55=US718286CV78|55=US718286BB24|55=USY7083VAD11|55=XS2690996827|55=US455780CN45|55=US71568QAM96|55=USY7140WAG34|55=XS2219370660|55=US71568QAP28|55=US455780CT15|55=US71567RAT32|55=US455780DK96|55=USY7141BAC73|55=XS2399788277|55=US455780DP83|55=US455780DS23|55=US455780DV51|55=USY68613AC56|55=US455780CU87|55=PH0000057598|55=XS2813319816|55=XS2346954873|55=XS2385923722|55=XS2098881654|55=XS2072777381|55=XS2239056174|55=XS2207320701|55=XS2862924532|55=XS2191367734|55=XS2244367269|55=USY20721AJ83|55=XS2314639761|55=XS2343321399|55=XS2322321964|55=USY7140EAA65|55=US69370RAC16|55=US71567RAQ92|55=XS2191367494|55=US71567RAV87|55=US69370RAJ68|55=US69370RAG20|55=US455780CR58|55=US455780DW35|55=US455780CX27|55=PHY7998PAB23|55=PHY7998PAA40|55=XS2205566206|55=XS2758096759|55=US455780DG84|55=US059891AA97|55=US455780CW44|55=US718286DC88|55=XS1506085114|55=US455780DM52|55=XS2785437901|320=SECURITYREQID|322=SECURITYREQIDRESP|560=0|10=123|
2025/02/11 15:31:54.146030 8=FIX.4.4|9=49|35=0|34=3|49=TW|52=20250211-15:31:54.145|56=ISLD|10=172|
2025/02/11 15:31:54.209314 8=FIX.4.4|9=49|35=0|34=3|49=ISLD|52=20250211-15:31:54.246|56=TW|10=174|
2025/02/11 15:32:24.148589 8=FIX.4.4|9=49|35=0|34=4|49=TW|52=20250211-15:32:24.148|56=ISLD|10=174|
2025/02/11 15:32:24.210925 8=FIX.4.4|9=49|35=0|34=4|49=ISLD|52=20250211-15:32:24.247|56=TW|10=174|
2025/02/11 15:32:54.149930 8=FIX.4.4|9=49|35=0|34=5|49=TW|52=20250211-15:32:54.149|56=ISLD|10=179|
2025/02/11 15:32:54.210559 8=FIX.4.4|9=49|35=0|34=5|49=ISLD|52=20250211-15:32:54.248|56=TW|10=179|
2025/02/11 15:33:24.152820 8=FIX.4.4|9=49|35=0|34=6|49=TW|52=20250211-15:33:24.152|56=ISLD|10=172|
2025/02/11 15:33:24.212756 8=FIX.4.4|9=49|35=0|34=6|49=ISLD|52=20250211-15:33:24.250|56=TW|10=171|
2025/02/11 15:38:04.127077 8=FIX.4.4|9=91|35=A|34=1|49=TW|52=20250211-15:38:04.126|56=ISLD|98=0|108=30|141=Y|553=Amstel|554=BondbloX|10=052|
2025/02/11 15:42:27.134011 8=FIX.4.4|9=91|35=A|34=1|49=TW|52=20250211-15:42:27.133|56=ISLD|98=0|108=30|141=Y|553=Amstel|554=BondbloX|10=050|
2025/02/13 06:18:46.535176 8=FIX.4.4|9=91|35=A|34=1|49=TW|52=20250213-06:18:46.534|56=ISLD|98=0|108=30|141=Y|553=Amstel|554=BondbloX|10=061|
2025/02/13 06:18:46.589730 8=FIX.4.4|9=67|35=A|34=1|49=ISLD|52=20250213-06:18:46.588|56=TW|98=0|108=30|141=Y|10=020|
2025/02/13 06:18:58.458770 8=FIX.4.4|9=112|35=V|34=2|49=TW|52=20250213-06:18:58.458|56=ISLD|146=1|55=XS2314639761|262=MARKETDATAID|263=1|264=0|267=1|269=0|10=229|
2025/02/13 06:18:58.511599 8=FIX.4.4|9=135|35=X|34=2|49=ISLD|52=20250213-06:18:58.508|56=TW|262=MARKETDATAID|268=1|269=0|55=XS2314639761|270=0.0|272=1-01-1|273=00:00|282=C|423=3|10=033|
2025/02/13 06:19:28.460001 8=FIX.4.4|9=49|35=0|34=3|49=TW|52=20250213-06:19:28.459|56=ISLD|10=189|
2025/02/13 06:19:28.520374 8=FIX.4.4|9=49|35=0|34=3|49=ISLD|52=20250213-06:19:28.509|56=TW|10=185|
2025/02/13 06:19:58.463897 8=FIX.4.4|9=49|35=0|34=4|49=TW|52=20250213-06:19:58.463|56=ISLD|10=188|
2025/02/13 06:19:58.512801 8=FIX.4.4|9=49|35=0|34=4|49=ISLD|52=20250213-06:19:58.510|56=TW|10=181|
2025/02/13 06:20:28.466182 8=FIX.4.4|9=49|35=0|34=5|49=TW|52=20250213-06:20:28.466|56=ISLD|10=181|
2025/02/13 06:20:28.513626 8=FIX.4.4|9=49|35=0|34=5|49=ISLD|52=20250213-06:20:28.511|56=TW|10=172|
2025/02/13 06:20:58.467770 8=FIX.4.4|9=49|35=0|34=6|49=TW|52=20250213-06:20:58.467|56=ISLD|10=186|
2025/02/13 06:20:58.523161 8=FIX.4.4|9=49|35=0|34=6|49=ISLD|52=20250213-06:20:58.511|56=TW|10=176|
2025/02/13 06:21:28.470088 8=FIX.4.4|9=49|35=0|34=7|49=TW|52=20250213-06:21:28.470|56=ISLD|10=179|
2025/02/13 06:21:28.513869 8=FIX.4.4|9=49|35=0|34=7|49=ISLD|52=20250213-06:21:28.512|56=TW|10=176|
2025/02/13 06:21:58.446591 8=FIX.4.4|9=49|35=0|34=8|49=TW|52=20250213-06:21:58.446|56=ISLD|10=186|
2025/02/13 06:21:58.490988 8=FIX.4.4|9=49|35=0|34=8|49=ISLD|52=20250213-06:21:58.513|56=TW|10=181|
2025/02/13 06:22:30.143168 8=FIX.4.4|9=91|35=A|34=1|49=TW|52=20250213-06:22:30.142|56=ISLD|98=0|108=30|141=Y|553=Amstel|554=BondbloX|10=044|
2025/02/13 06:22:30.201231 8=FIX.4.4|9=67|35=A|34=1|49=ISLD|52=20250213-06:22:30.235|56=TW|98=0|108=30|141=Y|10=253|
2025/02/13 06:22:57.032909 8=FIX.4.4|9=112|35=V|34=2|49=TW|52=20250213-06:22:57.032|56=ISLD|146=1|55=XS2314639761|262=MARKETDATAID|263=1|264=0|267=1|269=0|10=211|
2025/02/13 06:22:57.089097 8=FIX.4.4|9=135|35=X|34=2|49=ISLD|52=20250213-06:22:57.122|56=TW|262=MARKETDATAID|268=1|269=0|55=XS2314639761|270=0.0|272=1-01-1|273=00:00|282=C|423=3|10=019|
2025/02/13 06:23:27.034006 8=FIX.4.4|9=49|35=0|34=3|49=TW|52=20250213-06:23:27.033|56=ISLD|10=171|
2025/02/13 06:23:27.087744 8=FIX.4.4|9=49|35=0|34=3|49=ISLD|52=20250213-06:23:27.123|56=TW|10=171|
2025/02/13 06:23:57.035543 8=FIX.4.4|9=49|35=0|34=4|49=TW|52=20250213-06:23:57.035|56=ISLD|10=177|
2025/02/13 06:23:57.089800 8=FIX.4.4|9=49|35=0|34=4|49=ISLD|52=20250213-06:23:57.125|56=TW|10=177|
2025/02/13 06:24:27.037870 8=FIX.4.4|9=49|35=0|34=5|49=TW|52=20250213-06:24:27.037|56=ISLD|10=178|
2025/02/13 06:24:27.093975 8=FIX.4.4|9=49|35=0|34=5|49=ISLD|52=20250213-06:24:27.125|56=TW|10=176|
2025/02/13 06:24:57.039131 8=FIX.4.4|9=49|35=0|34=6|49=TW|52=20250213-06:24:57.039|56=ISLD|10=184|
2025/02/13 06:24:57.091934 8=FIX.4.4|9=49|35=0|34=6|49=ISLD|52=20250213-06:24:57.127|56=TW|10=182|
2025/02/13 06:25:27.039403 8=FIX.4.4|9=49|35=0|34=7|49=TW|52=20250213-06:25:27.039|56=ISLD|10=183|
2025/02/13 06:25:27.090646 8=FIX.4.4|9=49|35=0|34=7|49=ISLD|52=20250213-06:25:27.127|56=TW|10=181|
2025/02/13 06:25:42.162009 8=FIX.4.4|9=91|35=A|34=1|49=TW|52=20250213-06:25:42.161|56=ISLD|98=0|108=30|141=Y|553=Amstel|554=BondbloX|10=051|
2025/02/13 06:25:42.223487 8=FIX.4.4|9=67|35=A|34=1|49=ISLD|52=20250213-06:25:42.260|56=TW|98=0|108=30|141=Y|10=001|
2025/02/13 06:25:50.553587 8=FIX.4.4|9=112|35=V|34=2|49=TW|52=20250213-06:25:50.553|56=ISLD|146=1|55=US00084EAE86|262=MARKETDATAID|263=1|264=0|267=1|269=0|10=255|
2025/02/13 06:25:50.616338 8=FIX.4.4|9=142|35=X|34=2|49=ISLD|52=20250213-06:25:50.649|56=TW|262=MARKETDATAID|268=1|269=0|55=US00084EAE86|270=100.12|272=24-10-2024|273=12:18|282=C|423=3|10=175|
2025/02/13 06:26:20.554774 8=FIX.4.4|9=49|35=0|34=3|49=TW|52=20250213-06:26:20.554|56=ISLD|10=175|
2025/02/13 06:26:20.616741 8=FIX.4.4|9=49|35=0|34=3|49=ISLD|52=20250213-06:26:20.653|56=TW|10=175|
2025/02/13 06:26:50.556109 8=FIX.4.4|9=49|35=0|34=4|49=TW|52=20250213-06:26:50.556|56=ISLD|10=181|
2025/02/13 06:26:50.618181 8=FIX.4.4|9=49|35=0|34=4|49=ISLD|52=20250213-06:26:50.654|56=TW|10=180|
2025/02/13 06:27:20.557742 8=FIX.4.4|9=49|35=0|34=5|49=TW|52=20250213-06:27:20.557|56=ISLD|10=181|
2025/02/13 06:27:20.620063 8=FIX.4.4|9=49|35=0|34=5|49=ISLD|52=20250213-06:27:20.655|56=TW|10=180|
2025/02/13 06:27:50.558955 8=FIX.4.4|9=49|35=0|34=6|49=TW|52=20250213-06:27:50.558|56=ISLD|10=186|
2025/02/13 06:27:50.619501 8=FIX.4.4|9=49|35=0|34=6|49=ISLD|52=20250213-06:27:50.656|56=TW|10=185|
2025/02/13 06:28:09.152455 8=FIX.4.4|9=91|35=A|34=1|49=TW|52=20250213-06:28:09.152|56=ISLD|98=0|108=30|141=Y|553=Amstel|554=BondbloX|10=057|
2025/02/13 06:28:09.210158 8=FIX.4.4|9=67|35=A|34=1|49=ISLD|52=20250213-06:28:09.245|56=TW|98=0|108=30|141=Y|10=010|
2025/02/13 06:28:14.726888 8=FIX.4.4|9=112|35=V|34=2|49=TW|52=20250213-06:28:14.726|56=ISLD|146=1|55=US00084EAE86|262=MARKETDATAID|263=1|264=0|267=1|269=0|10=004|
2025/02/13 06:28:14.781927 8=FIX.4.4|9=142|35=X|34=2|49=ISLD|52=20250213-06:28:14.817|56=TW|262=MARKETDATAID|268=1|269=0|55=US00084EAE86|270=100.12|272=24-10-2024|273=12:18|282=C|423=3|10=175|
2025/02/13 06:28:44.727844 8=FIX.4.4|9=49|35=0|34=3|49=TW|52=20250213-06:28:44.727|56=ISLD|10=185|
2025/02/13 06:28:44.781756 8=FIX.4.4|9=49|35=0|34=3|49=ISLD|52=20250213-06:28:44.818|56=TW|10=186|
2025/02/13 06:29:14.732630 8=FIX.4.4|9=49|35=0|34=4|49=TW|52=20250213-06:29:14.732|56=ISLD|10=180|
2025/02/13 06:29:14.780983 8=FIX.4.4|9=49|35=0|34=4|49=ISLD|52=20250213-06:29:14.818|56=TW|10=185|
2025/02/13 06:29:24.121575 8=FIX.4.4|9=91|35=A|34=1|49=TW|52=20250213-06:29:24.121|56=ISLD|98=0|108=30|141=Y|553=Amstel|554=BondbloX|10=051|
2025/02/13 06:29:24.181773 8=FIX.4.4|9=67|35=A|34=1|49=ISLD|52=20250213-06:29:24.220|56=TW|98=0|108=30|141=Y|10=001|
2025/02/13 06:29:48.124798 8=FIX.4.4|9=91|35=A|34=1|49=TW|52=20250213-06:29:48.124|56=ISLD|98=0|108=30|141=Y|553=Amstel|554=BondbloX|10=060|
2025/02/13 06:29:48.181393 8=FIX.4.4|9=67|35=A|34=1|49=ISLD|52=20250213-06:29:48.220|56=TW|98=0|108=30|141=Y|10=007|
2025/02/13 06:30:04.070609 8=FIX.4.4|9=112|35=V|34=2|49=TW|52=20250213-06:30:04.070|56=ISLD|146=1|55=US00084EAE86|262=MARKETDATAID|263=1|264=0|267=1|269=0|10=244|
2025/02/13 06:30:04.126017 8=FIX.4.4|9=142|35=X|34=2|49=ISLD|52=20250213-06:30:04.161|56=TW|262=MARKETDATAID|268=1|269=0|55=US00084EAE86|270=100.12|272=24-10-2024|273=12:18|282=C|423=3|10=159|
2025/02/13 06:30:34.071853 8=FIX.4.4|9=49|35=0|34=3|49=TW|52=20250213-06:30:34.071|56=ISLD|10=169|
2025/02/13 06:30:34.129278 8=FIX.4.4|9=49|35=0|34=3|49=ISLD|52=20250213-06:30:34.162|56=TW|10=170|
2025/02/13 06:31:04.073875 8=FIX.4.4|9=49|35=0|34=4|49=TW|52=20250213-06:31:04.073|56=ISLD|10=170|
2025/02/13 06:31:04.131234 8=FIX.4.4|9=49|35=0|34=4|49=ISLD|52=20250213-06:31:04.163|56=TW|10=170|
2025/02/13 06:32:16.002010 8=FIX.4.4|9=91|35=A|34=1|49=TW|52=20250213-06:32:16.001|56=ISLD|98=0|108=30|141=Y|553=Amstel|554=BondbloX|10=043|
2025/02/13 06:32:16.111328 8=FIX.4.4|9=67|35=A|34=1|49=ISLD|52=20250213-06:32:16.110|56=TW|98=0|108=30|141=Y|10=250|
2025/02/13 06:32:24.010925 8=FIX.4.4|9=112|35=V|34=2|49=TW|52=20250213-06:32:24.009|56=ISLD|146=1|55=US00084EAE86|262=MARKETDATAID|263=1|264=0|267=1|269=0|10=250|
2025/02/13 06:32:24.139061 8=FIX.4.4|9=171|35=X|34=2|49=ISLD|52=20250213-06:32:24.138|56=TW|262=MARKETDATAID|268=1|269=0|55=US00084EAE86|711=1|309=US00084EAE86|305=4|270=100.12|272=24-10-2024|273=17:48|282=C|423=3|10=122|
2025/02/13 06:32:54.012154 8=FIX.4.4|9=49|35=0|34=3|49=TW|52=20250213-06:32:54.012|56=ISLD|10=168|
2025/02/13 06:32:54.140790 8=FIX.4.4|9=49|35=0|34=3|49=ISLD|52=20250213-06:32:54.139|56=TW|10=178|
2025/02/13 06:33:24.013582 8=FIX.4.4|9=49|35=0|34=4|49=TW|52=20250213-06:33:24.013|56=ISLD|10=168|
2025/02/13 06:33:24.141566 8=FIX.4.4|9=49|35=0|34=4|49=ISLD|52=20250213-06:33:24.140|56=TW|10=169|
2025/02/13 06:33:54.016845 8=FIX.4.4|9=49|35=0|34=5|49=TW|52=20250213-06:33:54.016|56=ISLD|10=175|
2025/02/13 06:33:54.142867 8=FIX.4.4|9=49|35=0|34=5|49=ISLD|52=20250213-06:33:54.142|56=TW|10=175|
2025/02/13 06:34:24.018746 8=FIX.4.4|9=49|35=0|34=6|49=TW|52=20250213-06:34:24.018|56=ISLD|10=176|
2025/02/13 06:34:24.144770 8=FIX.4.4|9=49|35=0|34=6|49=ISLD|52=20250213-06:34:24.143|56=TW|10=175|
2025/02/13 06:34:54.020610 8=FIX.4.4|9=49|35=0|34=7|49=TW|52=20250213-06:34:54.020|56=ISLD|10=173|
2025/02/13 06:34:54.146382 8=FIX.4.4|9=49|35=0|34=7|49=ISLD|52=20250213-06:34:54.145|56=TW|10=181|
2025/02/13 06:35:24.022152 8=FIX.4.4|9=49|35=0|34=8|49=TW|52=20250213-06:35:24.022|56=ISLD|10=174|
2025/02/13 06:35:24.147939 8=FIX.4.4|9=49|35=0|34=8|49=ISLD|52=20250213-06:35:24.146|56=TW|10=181|
2025/02/13 06:35:54.024286 8=FIX.4.4|9=49|35=0|34=9|49=TW|52=20250213-06:35:54.024|56=ISLD|10=180|
2025/02/13 06:35:54.149432 8=FIX.4.4|9=49|35=0|34=9|49=ISLD|52=20250213-06:35:54.148|56=TW|10=187|
2025/02/13 06:36:24.025689 8=FIX.4.4|9=50|35=0|34=10|49=TW|52=20250213-06:36:24.025|56=ISLD|10=211|
2025/02/13 06:36:24.150456 8=FIX.4.4|9=50|35=0|34=10|49=ISLD|52=20250213-06:36:24.149|56=TW|10=218|
2025/02/13 08:09:52.633611 8=FIX.4.4|9=91|35=A|34=1|49=TW|52=20250213-08:09:52.633|56=ISLD|98=0|108=30|141=Y|553=Amstel|554=BondbloX|10=060|
2025/02/13 08:09:52.689318 8=FIX.4.4|9=67|35=A|34=1|49=ISLD|52=20250213-08:09:52.688|56=TW|98=0|108=30|141=Y|10=020|
2025/02/13 08:10:03.276854 8=FIX.4.4|9=112|35=V|34=2|49=TW|52=20250213-08:10:03.276|56=ISLD|146=1|55=US00084EAE86|262=MARKETDATAID|263=1|264=0|267=1|269=0|10=251|
2025/02/13 08:10:03.337218 8=FIX.4.4|9=171|35=X|34=2|49=ISLD|52=20250213-08:10:03.332|56=TW|262=MARKETDATAID|268=1|269=0|55=US00084EAE86|711=1|309=US00084EAE86|305=4|270=100.12|272=24-10-2024|273=12:18|282=C|423=3|10=105|
2025/02/13 08:10:33.279756 8=FIX.4.4|9=49|35=0|34=3|49=TW|52=20250213-08:10:33.279|56=ISLD|10=178|
2025/02/13 08:10:33.336089 8=FIX.4.4|9=49|35=0|34=3|49=ISLD|52=20250213-08:10:33.334|56=TW|10=170|
2025/02/13 08:11:03.282342 8=FIX.4.4|9=49|35=0|34=4|49=TW|52=20250213-08:11:03.282|56=ISLD|10=171|
2025/02/13 08:11:03.338359 8=FIX.4.4|9=49|35=0|34=4|49=ISLD|52=20250213-08:11:03.335|56=TW|10=170|
2025/02/13 08:11:33.285023 8=FIX.4.4|9=49|35=0|34=5|49=TW|52=20250213-08:11:33.284|56=ISLD|10=177|
2025/02/13 08:11:33.338546 8=FIX.4.4|9=49|35=0|34=5|49=ISLD|52=20250213-08:11:33.335|56=TW|10=174|
2025/02/13 08:12:03.287704 8=FIX.4.4|9=49|35=0|34=6|49=TW|52=20250213-08:12:03.287|56=ISLD|10=179|
2025/02/13 08:12:03.339526 8=FIX.4.4|9=49|35=0|34=6|49=ISLD|52=20250213-08:12:03.336|56=TW|10=174|
2025/02/13 08:12:33.290114 8=FIX.4.4|9=49|35=0|34=7|49=TW|52=20250213-08:12:33.289|56=ISLD|10=185|
2025/02/13 08:12:33.347691 8=FIX.4.4|9=49|35=0|34=7|49=ISLD|52=20250213-08:12:33.337|56=TW|10=179|
2025/02/13 08:13:03.293320 8=FIX.4.4|9=49|35=0|34=8|49=TW|52=20250213-08:13:03.293|56=ISLD|10=179|
2025/02/13 08:13:03.342736 8=FIX.4.4|9=49|35=0|34=8|49=ISLD|52=20250213-08:13:03.338|56=TW|10=179|
2025/02/13 08:13:33.296287 8=FIX.4.4|9=49|35=0|34=9|49=TW|52=20250213-08:13:33.296|56=ISLD|10=186|
2025/02/13 08:13:33.342224 8=FIX.4.4|9=49|35=0|34=9|49=ISLD|52=20250213-08:13:33.339|56=TW|10=184|
2025/02/13 08:14:03.298160 8=FIX.4.4|9=50|35=0|34=10|49=TW|52=20250213-08:14:03.297|56=ISLD|10=217|
2025/02/13 08:14:03.344363 8=FIX.4.4|9=50|35=0|34=10|49=ISLD|52=20250213-08:14:03.340|56=TW|10=206|
2025/02/13 08:14:33.301076 8=FIX.4.4|9=50|35=0|34=11|49=TW|52=20250213-08:14:33.300|56=ISLD|10=206|
2025/02/13 08:14:33.344282 8=FIX.4.4|9=50|35=0|34=11|49=ISLD|52=20250213-08:14:33.341|56=TW|10=211|
2025/02/13 08:15:03.304649 8=FIX.4.4|9=50|35=0|34=12|49=TW|52=20250213-08:15:03.304|56=ISLD|10=209|
2025/02/13 08:15:03.350067 8=FIX.4.4|9=50|35=0|34=12|49=ISLD|52=20250213-08:15:03.341|56=TW|10=210|
2025/02/13 08:15:33.307721 8=FIX.4.4|9=50|35=0|34=13|49=TW|52=20250213-08:15:33.307|56=ISLD|10=216|
2025/02/13 08:15:33.345942 8=FIX.4.4|9=50|35=0|34=13|49=ISLD|52=20250213-08:15:33.342|56=TW|10=215|
2025/02/13 08:16:03.311133 8=FIX.4.4|9=50|35=0|34=14|49=TW|52=20250213-08:16:03.311|56=ISLD|10=210|
2025/02/13 08:16:03.351158 8=FIX.4.4|9=50|35=0|34=14|49=ISLD|52=20250213-08:16:03.343|56=TW|10=215|
2025/02/13 08:16:33.313655 8=FIX.4.4|9=50|35=0|34=15|49=TW|52=20250213-08:16:33.313|56=ISLD|10=216|
2025/02/13 08:16:33.396463 8=FIX.4.4|9=50|35=0|34=15|49=ISLD|52=20250213-08:16:33.344|56=TW|10=220|
2025/02/13 08:17:03.315452 8=FIX.4.4|9=50|35=0|34=16|49=TW|52=20250213-08:17:03.315|56=ISLD|10=217|
2025/02/13 08:17:03.353010 8=FIX.4.4|9=50|35=0|34=16|49=ISLD|52=20250213-08:17:03.345|56=TW|10=220|
2025/02/13 08:17:33.319051 8=FIX.4.4|9=50|35=0|34=17|49=TW|52=20250213-08:17:33.318|56=ISLD|10=224|
2025/02/13 08:17:33.350498 8=FIX.4.4|9=50|35=0|34=17|49=ISLD|52=20250213-08:17:33.346|56=TW|10=225|
2025/02/13 08:18:03.321186 8=FIX.4.4|9=50|35=0|34=18|49=TW|52=20250213-08:18:03.321|56=ISLD|10=217|
2025/02/13 08:18:03.354531 8=FIX.4.4|9=50|35=0|34=18|49=ISLD|52=20250213-08:18:03.347|56=TW|10=225|
2025/02/13 08:18:33.324171 8=FIX.4.4|9=50|35=0|34=19|49=TW|52=20250213-08:18:33.323|56=ISLD|10=223|
2025/02/13 08:18:33.353970 8=FIX.4.4|9=50|35=0|34=19|49=ISLD|52=20250213-08:18:33.349|56=TW|10=231|
2025/02/13 08:19:03.326178 8=FIX.4.4|9=50|35=0|34=20|49=TW|52=20250213-08:19:03.326|56=ISLD|10=216|
2025/02/13 08:19:03.355586 8=FIX.4.4|9=50|35=0|34=20|49=ISLD|52=20250213-08:19:03.350|56=TW|10=213|
2025/02/13 08:19:33.329902 8=FIX.4.4|9=50|35=0|34=21|49=TW|52=20250213-08:19:33.329|56=ISLD|10=223|
2025/02/13 08:19:33.356304 8=FIX.4.4|9=50|35=0|34=21|49=ISLD|52=20250213-08:19:33.350|56=TW|10=217|
2025/02/13 08:20:03.332770 8=FIX.4.4|9=50|35=0|34=22|49=TW|52=20250213-08:20:03.332|56=ISLD|10=207|
2025/02/13 08:20:03.357225 8=FIX.4.4|9=50|35=0|34=22|49=ISLD|52=20250213-08:20:03.352|56=TW|10=209|
2025/02/13 08:20:33.334552 8=FIX.4.4|9=50|35=0|34=23|49=TW|52=20250213-08:20:33.334|56=ISLD|10=213|
2025/02/13 08:20:33.358507 8=FIX.4.4|9=50|35=0|34=23|49=ISLD|52=20250213-08:20:33.353|56=TW|10=214|
2025/02/13 08:21:03.334307 8=FIX.4.4|9=50|35=0|34=24|49=TW|52=20250213-08:21:03.334|56=ISLD|10=212|
2025/02/13 08:21:03.358859 8=FIX.4.4|9=50|35=0|34=24|49=ISLD|52=20250213-08:21:03.354|56=TW|10=214|
2025/02/13 08:21:33.336783 8=FIX.4.4|9=50|35=0|34=25|49=TW|52=20250213-08:21:33.336|56=ISLD|10=218|
2025/02/13 08:21:33.362396 8=FIX.4.4|9=50|35=0|34=25|49=ISLD|52=20250213-08:21:33.354|56=TW|10=218|
2025/02/13 08:22:03.339429 8=FIX.4.4|9=50|35=0|34=26|49=TW|52=20250213-08:22:03.339|56=ISLD|10=220|
2025/02/13 08:22:03.358926 8=FIX.4.4|9=50|35=0|34=26|49=ISLD|52=20250213-08:22:03.354|56=TW|10=217|
2025/02/13 08:22:33.343106 8=FIX.4.4|9=50|35=0|34=27|49=TW|52=20250213-08:22:33.342|56=ISLD|10=218|
2025/02/13 08:22:33.359872 8=FIX.4.4|9=50|35=0|34=27|49=ISLD|52=20250213-08:22:33.356|56=TW|10=223|
2025/02/13 08:23:03.347774 8=FIX.4.4|9=50|35=0|34=28|49=TW|52=20250213-08:23:03.347|56=ISLD|10=222|
2025/02/13 08:23:03.361949 8=FIX.4.4|9=50|35=0|34=28|49=ISLD|52=20250213-08:23:03.357|56=TW|10=223|
2025/02/13 08:23:33.350996 8=FIX.4.4|9=50|35=0|34=29|49=TW|52=20250213-08:23:33.349|56=ISLD|10=228|
2025/02/13 08:23:33.363265 8=FIX.4.4|9=50|35=0|34=29|49=ISLD|52=20250213-08:23:33.358|56=TW|10=228|
2025/02/13 08:24:03.353975 8=FIX.4.4|9=50|35=0|34=30|49=TW|52=20250213-08:24:03.353|56=ISLD|10=213|
2025/02/13 08:24:03.363370 8=FIX.4.4|9=50|35=0|34=30|49=ISLD|52=20250213-08:24:03.358|56=TW|10=218|
2025/02/13 08:24:33.357798 8=FIX.4.4|9=50|35=0|34=31|49=TW|52=20250213-08:24:33.357|56=ISLD|10=221|
2025/02/13 08:24:33.366319 8=FIX.4.4|9=50|35=0|34=31|49=ISLD|52=20250213-08:24:33.359|56=TW|10=223|
2025/02/13 08:25:03.360656 8=FIX.4.4|9=50|35=0|34=32|49=TW|52=20250213-08:25:03.360|56=ISLD|10=214|
2025/02/13 08:25:03.369530 8=FIX.4.4|9=50|35=0|34=32|49=ISLD|52=20250213-08:25:03.360|56=TW|10=214|
2025/02/13 08:26:39.680200 8=FIX.4.4|9=50|35=0|34=33|49=ISLD|52=20250213-08:25:33.361|56=TW|10=219|
2025/02/13 08:26:39.682138 8=FIX.4.4|9=59|35=1|34=34|49=ISLD|52=20250213-08:25:39.414|56=TW|112=TEST|10=253|
2025/02/13 08:26:39.684082 8=FIX.4.4|9=59|35=0|34=33|49=TW|52=20250213-08:26:39.683|56=ISLD|112=TEST|10=004|
2025/02/13 08:27:10.209674 8=FIX.4.4|9=86|35=A|34=34|49=TW|52=20250213-08:27:10.209|56=ISLD|98=0|108=30|553=Amstel|554=BondbloX|10=066|
2025/02/13 08:27:10.272137 8=FIX.4.4|9=61|35=A|34=1|49=ISLD|52=20250213-08:27:10.284|56=TW|98=0|108=30|10=211|
2025/02/13 08:27:10.273275 8=FIX.4.4|9=100|35=5|34=35|49=TW|52=20250213-08:27:10.273|56=ISLD|58=MsgSeqNum too low, expecting 35 but received 1|10=218|
2025/02/13 08:27:40.382915 8=FIX.4.4|9=86|35=A|34=36|49=TW|52=20250213-08:27:40.382|56=ISLD|98=0|108=30|553=Amstel|554=BondbloX|10=073|
2025/02/13 08:27:40.439267 8=FIX.4.4|9=61|35=A|34=1|49=ISLD|52=20250213-08:27:40.452|56=TW|98=0|108=30|10=211|
2025/02/13 08:27:40.439584 8=FIX.4.4|9=100|35=5|34=37|49=TW|52=20250213-08:27:40.439|56=ISLD|58=MsgSeqNum too low, expecting 35 but received 1|10=227|
2025/02/13 08:28:10.549596 8=FIX.4.4|9=86|35=A|34=38|49=TW|52=20250213-08:28:10.549|56=ISLD|98=0|108=30|553=Amstel|554=BondbloX|10=078|
2025/02/13 08:28:10.606602 8=FIX.4.4|9=61|35=A|34=1|49=ISLD|52=20250213-08:28:10.619|56=TW|98=0|108=30|10=214|
2025/02/13 08:28:10.606853 8=FIX.4.4|9=100|35=5|34=39|49=TW|52=20250213-08:28:10.606|56=ISLD|58=MsgSeqNum too low, expecting 35 but received 1|10=223|
2025/02/13 08:28:40.723967 8=FIX.4.4|9=86|35=A|34=40|49=TW|52=20250213-08:28:40.723|56=ISLD|98=0|108=30|553=Amstel|554=BondbloX|10=068|
2025/02/13 08:28:40.780355 8=FIX.4.4|9=61|35=A|34=1|49=ISLD|52=20250213-08:28:40.792|56=TW|98=0|108=30|10=219|
2025/02/13 08:28:40.780651 8=FIX.4.4|9=100|35=5|34=41|49=TW|52=20250213-08:28:40.780|56=ISLD|58=MsgSeqNum too low, expecting 35 but received 1|10=222|
2025/02/13 08:29:10.890004 8=FIX.4.4|9=86|35=A|34=42|49=TW|52=20250213-08:29:10.889|56=ISLD|98=0|108=30|553=Amstel|554=BondbloX|10=081|
2025/02/13 08:29:10.945858 8=FIX.4.4|9=61|35=A|34=1|49=ISLD|52=20250213-08:29:10.959|56=TW|98=0|108=30|10=222|
2025/02/13 08:29:10.946320 8=FIX.4.4|9=100|35=5|34=43|49=TW|52=20250213-08:29:10.946|56=ISLD|58=MsgSeqNum too low, expecting 35 but received 1|10=226|
2025/02/13 08:29:41.059602 8=FIX.4.4|9=86|35=A|34=44|49=TW|52=20250213-08:29:41.059|56=ISLD|98=0|108=30|553=Amstel|554=BondbloX|10=076|
2025/02/13 08:29:41.113492 8=FIX.4.4|9=61|35=A|34=1|49=ISLD|52=20250213-08:29:41.127|56=TW|98=0|108=30|10=213|
2025/02/13 08:29:41.113736 8=FIX.4.4|9=100|35=5|34=45|49=TW|52=20250213-08:29:41.113|56=ISLD|58=MsgSeqNum too low, expecting 35 but received 1|10=218|
2025/02/13 08:30:11.228744 8=FIX.4.4|9=86|35=A|34=46|49=TW|52=20250213-08:30:11.228|56=ISLD|98=0|108=30|553=Amstel|554=BondbloX|10=065|
2025/02/13 08:30:11.289824 8=FIX.4.4|9=61|35=A|34=1|49=ISLD|52=20250213-08:30:11.303|56=TW|98=0|108=30|10=198|
2025/02/13 08:30:11.290183 8=FIX.4.4|9=100|35=5|34=47|49=TW|52=20250213-08:30:11.290|56=ISLD|58=MsgSeqNum too low, expecting 35 but received 1|10=215|
2025/02/13 08:30:41.403172 8=FIX.4.4|9=86|35=A|34=48|49=TW|52=20250213-08:30:41.403|56=ISLD|98=0|108=30|553=Amstel|554=BondbloX|10=065|
2025/02/13 08:30:41.459956 8=FIX.4.4|9=61|35=A|34=1|49=ISLD|52=20250213-08:30:41.472|56=TW|98=0|108=30|10=208|
2025/02/13 08:30:41.460275 8=FIX.4.4|9=100|35=5|34=49|49=TW|52=20250213-08:30:41.460|56=ISLD|58=MsgSeqNum too low, expecting 35 but received 1|10=219|
2025/02/13 08:31:11.577851 8=FIX.4.4|9=86|35=A|34=50|49=TW|52=20250213-08:31:11.577|56=ISLD|98=0|108=30|553=Amstel|554=BondbloX|10=068|
2025/02/13 08:31:11.633259 8=FIX.4.4|9=61|35=A|34=1|49=ISLD|52=20250213-08:31:11.647|56=TW|98=0|108=30|10=210|
2025/02/13 08:31:11.633477 8=FIX.4.4|9=100|35=5|34=51|49=TW|52=20250213-08:31:11.633|56=ISLD|58=MsgSeqNum too low, expecting 35 but received 1|10=212|
2025/02/13 08:31:41.757397 8=FIX.4.4|9=86|35=A|34=52|49=TW|52=20250213-08:31:41.757|56=ISLD|98=0|108=30|553=Amstel|554=BondbloX|10=073|
2025/02/13 08:31:41.821245 8=FIX.4.4|9=61|35=A|34=1|49=ISLD|52=20250213-08:31:41.827|56=TW|98=0|108=30|10=213|
2025/02/13 08:31:41.821614 8=FIX.4.4|9=100|35=5|34=53|49=TW|52=20250213-08:31:41.821|56=ISLD|58=MsgSeqNum too low, expecting 35 but received 1|10=216|
2025/02/13 08:32:11.946813 8=FIX.4.4|9=86|35=A|34=54|49=TW|52=20250213-08:32:11.946|56=ISLD|98=0|108=30|553=Amstel|554=BondbloX|10=073|
2025/02/13 08:32:12.005046 8=FIX.4.4|9=61|35=A|34=1|49=ISLD|52=20250213-08:32:12.018|56=TW|98=0|108=30|10=204|
2025/02/13 08:32:12.005289 8=FIX.4.4|9=100|35=5|34=55|49=TW|52=20250213-08:32:12.005|56=ISLD|58=MsgSeqNum too low, expecting 35 but received 1|10=211|
2025/02/13 08:32:42.114056 8=FIX.4.4|9=86|35=A|34=56|49=TW|52=20250213-08:32:42.113|56=ISLD|98=0|108=30|553=Amstel|554=BondbloX|10=065|
2025/02/13 08:32:42.176529 8=FIX.4.4|9=61|35=A|34=1|49=ISLD|52=20250213-08:32:42.190|56=TW|98=0|108=30|10=208|
2025/02/13 08:32:42.176856 8=FIX.4.4|9=100|35=5|34=57|49=TW|52=20250213-08:32:42.176|56=ISLD|58=MsgSeqNum too low, expecting 35 but received 1|10=225|
2025/02/13 08:33:12.323151 8=FIX.4.4|9=86|35=A|34=58|49=TW|52=20250213-08:33:12.323|56=ISLD|98=0|108=30|553=Amstel|554=BondbloX|10=068|
2025/02/13 08:33:12.404039 8=FIX.4.4|9=61|35=A|34=1|49=ISLD|52=20250213-08:33:12.397|56=TW|98=0|108=30|10=215|
2025/02/13 08:33:12.404407 8=FIX.4.4|9=100|35=5|34=59|49=TW|52=20250213-08:33:12.404|56=ISLD|58=MsgSeqNum too low, expecting 35 but received 1|10=219|
2025/02/13 08:33:42.509817 8=FIX.4.4|9=86|35=A|34=60|49=TW|52=20250213-08:33:42.509|56=ISLD|98=0|108=30|553=Amstel|554=BondbloX|10=070|
2025/02/13 08:33:42.565591 8=FIX.4.4|9=61|35=A|34=1|49=ISLD|52=20250213-08:33:42.580|56=TW|98=0|108=30|10=212|
2025/02/13 08:33:42.565686 8=FIX.4.4|9=100|35=5|34=61|49=TW|52=20250213-08:33:42.565|56=ISLD|58=MsgSeqNum too low, expecting 35 but received 1|10=223|
2025/02/13 08:34:12.679904 8=FIX.4.4|9=86|35=A|34=62|49=TW|52=20250213-08:34:12.679|56=ISLD|98=0|108=30|553=Amstel|554=BondbloX|10=078|
2025/02/13 08:34:12.735580 8=FIX.4.4|9=61|35=A|34=1|49=ISLD|52=20250213-08:34:12.749|56=TW|98=0|108=30|10=217|
2025/02/13 08:34:12.735960 8=FIX.4.4|9=100|35=5|34=63|49=TW|52=20250213-08:34:12.735|56=ISLD|58=MsgSeqNum too low, expecting 35 but received 1|10=222|
2025/02/13 08:34:42.852087 8=FIX.4.4|9=86|35=A|34=64|49=TW|52=20250213-08:34:42.852|56=ISLD|98=0|108=30|553=Amstel|554=BondbloX|10=076|
2025/02/13 08:34:42.913658 8=FIX.4.4|9=61|35=A|34=1|49=ISLD|52=20250213-08:34:42.922|56=TW|98=0|108=30|10=213|
2025/02/13 08:34:42.914078 8=FIX.4.4|9=100|35=5|34=65|49=TW|52=20250213-08:34:42.914|56=ISLD|58=MsgSeqNum too low, expecting 35 but received 1|10=226|
2025/02/13 08:35:13.022751 8=FIX.4.4|9=86|35=A|34=66|49=TW|52=20250213-08:35:13.022|56=ISLD|98=0|108=30|553=Amstel|554=BondbloX|10=066|
2025/02/13 08:35:13.078491 8=FIX.4.4|9=61|35=A|34=1|49=ISLD|52=20250213-08:35:13.092|56=TW|98=0|108=30|10=210|
2025/02/13 08:35:13.078883 8=FIX.4.4|9=100|35=5|34=67|49=TW|52=20250213-08:35:13.078|56=ISLD|58=MsgSeqNum too low, expecting 35 but received 1|10=228|
2025/02/13 08:35:43.192140 8=FIX.4.4|9=86|35=A|34=68|49=TW|52=20250213-08:35:43.192|56=ISLD|98=0|108=30|553=Amstel|554=BondbloX|10=079|
2025/02/13 08:35:43.247964 8=FIX.4.4|9=61|35=A|34=1|49=ISLD|52=20250213-08:35:43.261|56=TW|98=0|108=30|10=211|
2025/02/13 08:35:43.248333 8=FIX.4.4|9=100|35=5|34=69|49=TW|52=20250213-08:35:43.248|56=ISLD|58=MsgSeqNum too low, expecting 35 but received 1|10=232|
2025/02/13 08:36:13.360870 8=FIX.4.4|9=86|35=A|34=70|49=TW|52=20250213-08:36:13.360|56=ISLD|98=0|108=30|553=Amstel|554=BondbloX|10=067|
2025/02/13 08:36:13.416804 8=FIX.4.4|9=61|35=A|34=1|49=ISLD|52=20250213-08:36:13.431|56=TW|98=0|108=30|10=208|
2025/02/13 08:36:13.418944 8=FIX.4.4|9=100|35=5|34=71|49=TW|52=20250213-08:36:13.417|56=ISLD|58=MsgSeqNum too low, expecting 35 but received 1|10=221|
2025/02/13 08:36:43.551981 8=FIX.4.4|9=86|35=A|34=72|49=TW|52=20250213-08:36:43.550|56=ISLD|98=0|108=30|553=Amstel|554=BondbloX|10=073|
2025/02/13 08:36:43.608129 8=FIX.4.4|9=61|35=A|34=1|49=ISLD|52=20250213-08:36:43.621|56=TW|98=0|108=30|10=212|
2025/02/13 08:36:43.608475 8=FIX.4.4|9=100|35=5|34=73|49=TW|52=20250213-08:36:43.608|56=ISLD|58=MsgSeqNum too low, expecting 35 but received 1|10=228|
2025/02/13 08:37:13.735240 8=FIX.4.4|9=86|35=A|34=74|49=TW|52=20250213-08:37:13.735|56=ISLD|98=0|108=30|553=Amstel|554=BondbloX|10=078|
2025/02/13 08:37:13.794867 8=FIX.4.4|9=61|35=A|34=1|49=ISLD|52=20250213-08:37:13.807|56=TW|98=0|108=30|10=216|
2025/02/13 08:37:13.795156 8=FIX.4.4|9=100|35=5|34=75|49=TW|52=20250213-08:37:13.795|56=ISLD|58=MsgSeqNum too low, expecting 35 but received 1|10=235|
2025/02/13 08:37:43.944967 8=FIX.4.4|9=86|35=A|34=76|49=TW|52=20250213-08:37:43.944|56=ISLD|98=0|108=30|553=Amstel|554=BondbloX|10=085|
2025/02/13 08:37:44.008256 8=FIX.4.4|9=61|35=A|34=1|49=ISLD|52=20250213-08:37:44.016|56=TW|98=0|108=30|10=212|
2025/02/13 08:37:44.008492 8=FIX.4.4|9=100|35=5|34=77|49=TW|52=20250213-08:37:44.008|56=ISLD|58=MsgSeqNum too low, expecting 35 but received 1|10=228|
2025/02/13 08:38:14.138890 8=FIX.4.4|9=86|35=A|34=78|49=TW|52=20250213-08:38:14.138|56=ISLD|98=0|108=30|553=Amstel|554=BondbloX|10=081|
2025/02/13 08:38:14.256915 8=FIX.4.4|9=61|35=A|34=1|49=ISLD|52=20250213-08:38:14.207|56=TW|98=0|108=30|10=212|
2025/02/13 08:38:14.257058 8=FIX.4.4|9=100|35=5|34=79|49=TW|52=20250213-08:38:14.257|56=ISLD|58=MsgSeqNum too low, expecting 35 but received 1|10=234|
2025/02/13 08:38:44.401215 8=FIX.4.4|9=86|35=A|34=80|49=TW|52=20250213-08:38:44.401|56=ISLD|98=0|108=30|553=Amstel|554=BondbloX|10=070|
2025/02/13 08:38:44.470122 8=FIX.4.4|9=61|35=A|34=1|49=ISLD|52=20250213-08:38:44.471|56=TW|98=0|108=30|10=218|
2025/02/13 08:38:44.470369 8=FIX.4.4|9=100|35=5|34=81|49=TW|52=20250213-08:38:44.470|56=ISLD|58=MsgSeqNum too low, expecting 35 but received 1|10=227|
2025/02/13 08:39:14.587075 8=FIX.4.4|9=86|35=A|34=82|49=TW|52=20250213-08:39:14.586|56=ISLD|98=0|108=30|553=Amstel|554=BondbloX|10=084|
2025/02/13 08:39:14.644740 8=FIX.4.4|9=61|35=A|34=1|49=ISLD|52=20250213-08:39:14.658|56=TW|98=0|108=30|10=223|
2025/02/13 08:39:14.645153 8=FIX.4.4|9=100|35=5|34=83|49=TW|52=20250213-08:39:14.645|56=ISLD|58=MsgSeqNum too low, expecting 35 but received 1|10=231|
2025/02/13 08:39:45.249630 8=FIX.4.4|9=86|35=A|34=84|49=TW|52=20250213-08:39:45.249|56=ISLD|98=0|108=30|553=Amstel|554=BondbloX|10=086|
2025/02/13 08:39:45.308582 8=FIX.4.4|9=61|35=A|34=1|49=ISLD|52=20250213-08:39:45.321|56=TW|98=0|108=30|10=214|
2025/02/13 08:39:45.308953 8=FIX.4.4|9=100|35=5|34=85|49=TW|52=20250213-08:39:45.308|56=ISLD|58=MsgSeqNum too low, expecting 35 but received 1|10=233|
2025/02/13 08:40:15.419114 8=FIX.4.4|9=86|35=A|34=86|49=TW|52=20250213-08:40:15.419|56=ISLD|98=0|108=30|553=Amstel|554=BondbloX|10=076|
2025/02/13 08:40:15.493529 8=FIX.4.4|9=61|35=A|34=1|49=ISLD|52=20250213-08:40:15.500|56=TW|98=0|108=30|10=202|
2025/02/13 08:40:15.493891 8=FIX.4.4|9=100|35=5|34=87|49=TW|52=20250213-08:40:15.493|56=ISLD|58=MsgSeqNum too low, expecting 35 but received 1|10=229|
2025/02/13 08:40:45.630210 8=FIX.4.4|9=86|35=A|34=88|49=TW|52=20250213-08:40:45.630|56=ISLD|98=0|108=30|553=Amstel|554=BondbloX|10=076|
2025/02/13 08:40:45.684524 8=FIX.4.4|9=61|35=A|34=1|49=ISLD|52=20250213-08:40:45.698|56=TW|98=0|108=30|10=223|
2025/02/13 08:40:45.684792 8=FIX.4.4|9=100|35=5|34=89|49=TW|52=20250213-08:40:45.684|56=ISLD|58=MsgSeqNum too low, expecting 35 but received 1|10=236|
2025/02/13 08:41:15.791466 8=FIX.4.4|9=86|35=A|34=90|49=TW|52=20250213-08:41:15.791|56=ISLD|98=0|108=30|553=Amstel|554=BondbloX|10=075|
2025/02/13 08:41:15.859281 8=FIX.4.4|9=61|35=A|34=1|49=ISLD|52=20250213-08:41:15.867|56=TW|98=0|108=30|10=219|
2025/02/13 08:41:15.859647 8=FIX.4.4|9=100|35=5|34=91|49=TW|52=20250213-08:41:15.859|56=ISLD|58=MsgSeqNum too low, expecting 35 but received 1|10=231|
2025/02/13 08:41:45.966285 8=FIX.4.4|9=86|35=A|34=92|49=TW|52=20250213-08:41:45.966|56=ISLD|98=0|108=30|553=Amstel|554=BondbloX|10=084|
2025/02/13 08:41:46.029378 8=FIX.4.4|9=61|35=A|34=1|49=ISLD|52=20250213-08:41:46.042|56=TW|98=0|108=30|10=208|
2025/02/13 08:41:46.029826 8=FIX.4.4|9=100|35=5|34=93|49=TW|52=20250213-08:41:46.029|56=ISLD|58=MsgSeqNum too low, expecting 35 but received 1|10=226|
2025/02/13 08:42:16.148991 8=FIX.4.4|9=86|35=A|34=94|49=TW|52=20250213-08:42:16.148|56=ISLD|98=0|108=30|553=Amstel|554=BondbloX|10=077|
2025/02/13 08:42:16.206922 8=FIX.4.4|9=61|35=A|34=1|49=ISLD|52=20250213-08:42:16.220|56=TW|98=0|108=30|10=204|
2025/02/13 08:42:16.207256 8=FIX.4.4|9=100|35=5|34=95|49=TW|52=20250213-08:42:16.207|56=ISLD|58=MsgSeqNum too low, expecting 35 but received 1|10=224|
2025/02/13 08:42:46.325516 8=FIX.4.4|9=86|35=A|34=96|49=TW|52=20250213-08:42:46.325|56=ISLD|98=0|108=30|553=Amstel|554=BondbloX|10=079|
2025/02/13 08:42:46.381400 8=FIX.4.4|9=61|35=A|34=1|49=ISLD|52=20250213-08:42:46.394|56=TW|98=0|108=30|10=219|
2025/02/13 08:42:46.381676 8=FIX.4.4|9=100|35=5|34=97|49=TW|52=20250213-08:42:46.381|56=ISLD|58=MsgSeqNum too low, expecting 35 but received 1|10=232|
2025/02/13 08:43:16.582084 8=FIX.4.4|9=86|35=A|34=98|49=TW|52=20250213-08:43:16.582|56=ISLD|98=0|108=30|553=Amstel|554=BondbloX|10=084|
2025/02/13 08:43:16.643580 8=FIX.4.4|9=61|35=A|34=1|49=ISLD|52=20250213-08:43:16.658|56=TW|98=0|108=30|10=220|
2025/02/13 08:43:16.643953 8=FIX.4.4|9=100|35=5|34=99|49=TW|52=20250213-08:43:16.643|56=ISLD|58=MsgSeqNum too low, expecting 35 but received 1|10=233|
2025/02/13 08:43:46.752130 8=FIX.4.4|9=87|35=A|34=100|49=TW|52=20250213-08:43:46.752|56=ISLD|98=0|108=30|553=Amstel|554=BondbloX|10=119|
2025/02/13 08:43:46.809577 8=FIX.4.4|9=61|35=A|34=1|49=ISLD|52=20250213-08:43:46.838|56=TW|98=0|108=30|10=223|
2025/02/13 08:43:46.809882 8=FIX.4.4|9=101|35=5|34=101|49=TW|52=20250213-08:43:46.809|56=ISLD|58=MsgSeqNum too low, expecting 35 but received 1|10=017|
2025/02/13 08:44:16.949929 8=FIX.4.4|9=87|35=A|34=102|49=TW|52=20250213-08:44:16.949|56=ISLD|98=0|108=30|553=Amstel|554=BondbloX|10=127|
2025/02/13 08:44:17.222608 8=FIX.4.4|9=61|35=A|34=1|49=ISLD|52=20250213-08:44:17.250|56=TW|98=0|108=30|10=210|
2025/02/13 08:44:17.222908 8=FIX.4.4|9=101|35=5|34=103|49=TW|52=20250213-08:44:17.222|56=ISLD|58=MsgSeqNum too low, expecting 35 but received 1|10=007|
2025/02/13 08:44:47.395838 8=FIX.4.4|9=87|35=A|34=104|49=TW|52=20250213-08:44:47.395|56=ISLD|98=0|108=30|553=Amstel|554=BondbloX|10=128|
2025/02/13 08:44:47.452564 8=FIX.4.4|9=61|35=A|34=1|49=ISLD|52=20250213-08:44:47.483|56=TW|98=0|108=30|10=221|
2025/02/13 08:44:47.452950 8=FIX.4.4|9=101|35=5|34=105|49=TW|52=20250213-08:44:47.452|56=ISLD|58=MsgSeqNum too low, expecting 35 but received 1|10=017|
2025/02/13 08:45:17.616744 8=FIX.4.4|9=87|35=A|34=106|49=TW|52=20250213-08:45:17.616|56=ISLD|98=0|108=30|553=Amstel|554=BondbloX|10=124|
2025/02/13 08:45:17.674742 8=FIX.4.4|9=61|35=A|34=1|49=ISLD|52=20250213-08:45:17.703|56=TW|98=0|108=30|10=214|
2025/02/13 08:45:17.675013 8=FIX.4.4|9=101|35=5|34=107|49=TW|52=20250213-08:45:17.674|56=ISLD|58=MsgSeqNum too low, expecting 35 but received 1|10=023|
2025/02/13 08:45:47.828379 8=FIX.4.4|9=87|35=A|34=108|49=TW|52=20250213-08:45:47.828|56=ISLD|98=0|108=30|553=Amstel|554=BondbloX|10=134|
2025/02/13 08:45:47.905939 8=FIX.4.4|9=61|35=A|34=1|49=ISLD|52=20250213-08:45:47.919|56=TW|98=0|108=30|10=226|
2025/02/13 08:45:47.906275 8=FIX.4.4|9=101|35=5|34=109|49=TW|52=20250213-08:45:47.906|56=ISLD|58=MsgSeqNum too low, expecting 35 but received 1|10=026|
2025/02/13 08:46:18.017900 8=FIX.4.4|9=87|35=A|34=110|49=TW|52=20250213-08:46:18.017|56=ISLD|98=0|108=30|553=Amstel|554=BondbloX|10=116|
2025/02/13 08:46:18.072716 8=FIX.4.4|9=61|35=A|34=1|49=ISLD|52=20250213-08:46:18.103|56=TW|98=0|108=30|10=210|
2025/02/13 08:46:18.073094 8=FIX.4.4|9=101|35=5|34=111|49=TW|52=20250213-08:46:18.073|56=ISLD|58=MsgSeqNum too low, expecting 35 but received 1|10=013|
2025/02/13 08:46:48.201965 8=FIX.4.4|9=87|35=A|34=112|49=TW|52=20250213-08:46:48.201|56=ISLD|98=0|108=30|553=Amstel|554=BondbloX|10=116|
2025/02/13 08:46:48.257412 8=FIX.4.4|9=61|35=A|34=1|49=ISLD|52=20250213-08:46:48.287|56=TW|98=0|108=30|10=226|
2025/02/13 08:46:48.257741 8=FIX.4.4|9=101|35=5|34=113|49=TW|52=20250213-08:46:48.257|56=ISLD|58=MsgSeqNum too low, expecting 35 but received 1|10=022|
2025/02/13 08:47:18.365892 8=FIX.4.4|9=87|35=A|34=114|49=TW|52=20250213-08:47:18.365|56=ISLD|98=0|108=30|553=Amstel|554=BondbloX|10=127|
2025/02/13 08:47:18.429015 8=FIX.4.4|9=61|35=A|34=1|49=ISLD|52=20250213-08:47:18.454|56=TW|98=0|108=30|10=220|
2025/02/13 08:47:18.429393 8=FIX.4.4|9=101|35=5|34=115|49=TW|52=20250213-08:47:18.429|56=ISLD|58=MsgSeqNum too low, expecting 35 but received 1|10=023|
2025/02/13 08:47:48.540206 8=FIX.4.4|9=87|35=A|34=116|49=TW|52=20250213-08:47:48.540|56=ISLD|98=0|108=30|553=Amstel|554=BondbloX|10=127|
2025/02/13 08:47:48.608710 8=FIX.4.4|9=61|35=A|34=1|49=ISLD|52=20250213-08:47:48.634|56=TW|98=0|108=30|10=223|
2025/02/13 08:47:48.609250 8=FIX.4.4|9=101|35=5|34=117|49=TW|52=20250213-08:47:48.609|56=ISLD|58=MsgSeqNum too low, expecting 35 but received 1|10=028|
