2025/02/25 06:55:00.003371 8=FIX.4.4|9=93|35=A|34=1|49=SC|52=20250225-06:55:00.003|56=AMSTEL|98=0|108=30|141=Y|553=Amstel|554=BondbloX|10=181|
2025/02/25 06:55:00.114979 8=FIX.4.4|9=69|35=A|34=1|49=AMSTEL|52=20250225-06:55:00.114|56=SC|98=0|108=30|141=Y|10=134|
2025/02/25 06:55:30.003701 8=FIX.4.4|9=51|35=0|34=2|49=SC|52=20250225-06:55:30.003|56=AMSTEL|10=039|
2025/02/25 06:55:30.116577 8=FIX.4.4|9=51|35=0|34=2|49=AMSTEL|52=20250225-06:55:30.116|56=SC|10=044|
2025/02/25 06:55:37.002555 8=FIX.4.4|9=93|35=A|34=1|49=SC|52=20250225-06:55:37.002|56=AMSTEL|98=0|108=30|141=Y|553=Amstel|554=BondbloX|10=190|
2025/02/25 06:55:37.107575 8=FIX.4.4|9=69|35=A|34=1|49=AMSTEL|52=20250225-06:55:37.107|56=SC|98=0|108=30|141=Y|10=146|
2025/02/25 06:56:06.998425 8=FIX.4.4|9=51|35=0|34=2|49=SC|52=20250225-06:56:06.998|56=AMSTEL|10=066|
2025/02/25 06:56:07.105143 8=FIX.4.4|9=51|35=0|34=2|49=AMSTEL|52=20250225-06:56:07.104|56=SC|10=046|
2025/02/25 06:56:36.997919 8=FIX.4.4|9=51|35=0|34=3|49=SC|52=20250225-06:56:36.997|56=AMSTEL|10=069|
2025/02/25 06:56:37.103873 8=FIX.4.4|9=51|35=0|34=3|49=AMSTEL|52=20250225-06:56:37.103|56=SC|10=049|
2025/02/25 06:57:06.998886 8=FIX.4.4|9=51|35=0|34=4|49=SC|52=20250225-06:57:06.998|56=AMSTEL|10=069|
2025/02/25 06:57:07.105144 8=FIX.4.4|9=51|35=0|34=4|49=AMSTEL|52=20250225-06:57:07.104|56=SC|10=049|
2025/02/25 06:57:37.000214 8=FIX.4.4|9=51|35=0|34=5|49=SC|52=20250225-06:57:36.999|56=AMSTEL|10=074|
2025/02/25 06:57:37.106464 8=FIX.4.4|9=51|35=0|34=5|49=AMSTEL|52=20250225-06:57:37.105|56=SC|10=054|
2025/02/25 06:58:19.002966 8=FIX.4.4|9=93|35=A|34=1|49=SC|52=20250225-06:58:19.002|56=AMSTEL|98=0|108=30|141=Y|553=Amstel|554=BondbloX|10=193|
2025/02/25 06:58:19.107675 8=FIX.4.4|9=69|35=A|34=1|49=AMSTEL|52=20250225-06:58:19.107|56=SC|98=0|108=30|141=Y|10=149|
2025/02/25 06:58:49.003360 8=FIX.4.4|9=51|35=0|34=2|49=SC|52=20250225-06:58:49.003|56=AMSTEL|10=052|
2025/02/25 06:58:49.109803 8=FIX.4.4|9=51|35=0|34=2|49=AMSTEL|52=20250225-06:58:49.108|56=SC|10=058|
2025/02/25 06:59:19.003692 8=FIX.4.4|9=51|35=0|34=3|49=SC|52=20250225-06:59:19.003|56=AMSTEL|10=051|
2025/02/25 06:59:19.110756 8=FIX.4.4|9=51|35=0|34=3|49=AMSTEL|52=20250225-06:59:19.110|56=SC|10=050|
2025/02/25 06:59:49.004226 8=FIX.4.4|9=51|35=0|34=4|49=SC|52=20250225-06:59:49.004|56=AMSTEL|10=056|
2025/02/25 06:59:49.111414 8=FIX.4.4|9=51|35=0|34=4|49=AMSTEL|52=20250225-06:59:49.110|56=SC|10=054|
2025/02/25 07:00:19.004965 8=FIX.4.4|9=51|35=0|34=5|49=SC|52=20250225-07:00:19.004|56=AMSTEL|10=041|
2025/02/25 07:00:19.112571 8=FIX.4.4|9=51|35=0|34=5|49=AMSTEL|52=20250225-07:00:19.112|56=SC|10=041|
2025/02/25 07:00:49.005865 8=FIX.4.4|9=51|35=0|34=6|49=SC|52=20250225-07:00:49.005|56=AMSTEL|10=046|
2025/02/25 07:00:49.117376 8=FIX.4.4|9=51|35=0|34=6|49=AMSTEL|52=20250225-07:00:49.116|56=SC|10=049|
2025/02/25 07:01:19.013648 8=FIX.4.4|9=51|35=0|34=7|49=SC|52=20250225-07:01:19.009|56=AMSTEL|10=049|
2025/02/25 07:01:19.119003 8=FIX.4.4|9=51|35=0|34=7|49=AMSTEL|52=20250225-07:01:19.118|56=SC|10=050|
2025/02/25 07:01:49.015916 8=FIX.4.4|9=51|35=0|34=8|49=SC|52=20250225-07:01:49.015|56=AMSTEL|10=050|
2025/02/25 07:01:49.122667 8=FIX.4.4|9=51|35=0|34=8|49=AMSTEL|52=20250225-07:01:49.119|56=SC|10=055|
2025/02/25 07:02:19.017759 8=FIX.4.4|9=51|35=0|34=9|49=SC|52=20250225-07:02:19.017|56=AMSTEL|10=051|
2025/02/25 07:02:19.123611 8=FIX.4.4|9=51|35=0|34=9|49=AMSTEL|52=20250225-07:02:19.123|56=SC|10=049|
2025/02/25 07:02:49.020587 8=FIX.4.4|9=52|35=0|34=10|49=SC|52=20250225-07:02:49.020|56=AMSTEL|10=089|
2025/02/25 07:02:49.124696 8=FIX.4.4|9=52|35=0|34=10|49=AMSTEL|52=20250225-07:02:49.124|56=SC|10=094|
2025/02/25 07:03:19.025005 8=FIX.4.4|9=52|35=0|34=11|49=SC|52=20250225-07:03:19.022|56=AMSTEL|10=090|
2025/02/25 07:03:19.126322 8=FIX.4.4|9=52|35=0|34=11|49=AMSTEL|52=20250225-07:03:19.125|56=SC|10=094|
