2025/02/17 04:01:23.717537 8=FIX.4.4|9=93|35=A|34=1|49=MS|52=20250217-04:01:23.717|56=AMSTEL|98=0|108=30|141=Y|553=Amstel|554=BondbloX|10=198|
2025/02/17 04:01:58.895304 8=FIX.4.4|9=87|35=A|34=3|49=MS|52=20250217-04:01:58.895|56=AMSTEL|98=0|108=30|553=Amstel|554=BondbloX|10=173|
