2025/02/20 08:42:22.515816 8=FIX.4.4|9=94|35=A|34=1|49=BBX|52=20250220-08:42:22.515|56=AMSTEL|98=0|108=30|141=Y|553=Amstel|554=BondbloX|10=001|
2025/02/20 08:42:22.572930 8=FIX.4.4|9=70|35=A|34=1|49=AMSTEL|52=20250220-08:42:22.615|56=BBX|98=0|108=30|141=Y|10=199|
2025/02/21 06:57:35.053330 8=FIX.4.4|9=94|35=A|34=1|49=BBX|52=20250221-06:57:35.052|56=AMSTEL|98=0|108=30|141=Y|553=Amstel|554=BondbloX|10=006|
2025/02/21 06:57:35.112375 8=FIX.4.4|9=70|35=A|34=1|49=AMSTEL|52=20250221-06:57:35.151|56=BBX|98=0|108=30|141=Y|10=203|
2025/02/21 09:20:00.406337 8=FIX.4.4|9=94|35=A|34=1|49=BBX|52=20250221-09:20:00.406|56=AMSTEL|98=0|108=30|141=Y|553=Amstel|554=BondbloX|10=250|
2025/02/21 09:20:00.477111 8=FIX.4.4|9=70|35=A|34=1|49=AMSTEL|52=20250221-09:20:00.509|56=BBX|98=0|108=30|141=Y|10=195|
2025/02/21 09:20:07.605082 8=FIX.4.4|9=76|35=x|34=2|49=BBX|52=20250221-09:20:07.604|56=AMSTEL|320=SECURITYREQID|559=4|10=147|
2025/02/21 09:20:07.663415 8=FIX.4.4|9=3722|35=y|34=2|49=AMSTEL|52=20250221-09:20:07.696|56=BBX|146=226|55=XS2114327302|55=XS2113136092|55=XS2121187962|55=XS2116222022|55=HK0000910544|55=XS2445374213|55=XS2429304368|55=US00084EAE86|55=XS2585673820|55=US606822BN36|55=XS2109790183|55=XS2101828452|55=US500630DQ87|55=XS2379456895|55=HK0000910189|55=XS2125599626|55=XS2449761076|55=US606822AU87|55=XS2423459242|55=XS2447949475|55=XS2123955952|55=XS2305026762|55=XS2125922349|55=XS2451285253|55=XS0893206747|55=XS2127855711|55=XS2126300479|55=XS2462338612|55=XS2451854991|55=USJ7771YLQ81|55=US438127AA08|55=USG9T27HAD62|55=XS1200840111|55=XS2453962107|55=XS2129684127|55=US00131MAB90|55=US2027A1KH95|55=US2027A1KJ51|55=XS1788514039|55=XS2450979484|55=US718286AP29|55=USY68856AN67|55=XS2133246673|55=XS2140589529|55=XS2248032653|55=US06407F2B71|55=XS2110952962|55=XS2122900330|55=XS2077601610|55=XS2122990737|55=XL2334361271|55=SG7V35954653|55=XS2453395001|55=XS2453372992|55=XS2455213590|55=US55608RBK59|55=US55608RBJ86|55=XS2454321519|55=XS2442748971|55=XS2432576382|55=XS2406886627|55=USJ46186BC59|55=XS2450206516|55=XS2049728004|55=USY6080GAA59|55=XS2460254282|55=XS2436799238|55=US056752AQ10|55=XS2446844834|55=US91127LAG59|55=XS2455963590|55=USV3856JAA17|55=XS2113708155|55=US65504LAN73|55=XS2406805213|55=XS1213177295|55=US44891CBK80|55=XS2426804998|55=XS2461794922|55=USJ4706DLU20|55=XS2484016643|55=XS2450908970|55=XS1791937441|55=XS2471135926|55=XS2458278731|55=XS1811213435|55=XS1810775145|55=XS2203824789|55=US71567RAD89|55=US50066RAR75|55=XS2125052261|55=USU3821WAD93|55=XS2068971980|55=XS2473321037|55=XS2180856440|55=USY0889VAA80|55=XS2133816012|55=XS2155486868|55=XS2445143329|55=USY5749LAA99|55=XS1214406792|55=XS2207192191|55=USG21184AB52|55=XS2158482211|55=USY3815NBE05|55=US82460EAP51|55=XS2471295969|55=XS2471127584|55=XS2432500309|55=XS2472507511|55=XS2465969132|55=XS2471231998|55=XS2158820477|55=XS2461426459|55=XS2471305867|55=XS2471384045|55=USG8201JAC56|55=XS2334361271|55=XS2470956322|55=US09681MAM01|55=XS2247552446|55=XS2163022739|55=XS2250030090|55=XS2227351900|55=XS1810963147|55=US500769GQ12|55=US50050HAM88|55=US12634MAB63|55=USY7133MAC39|55=USY4836TBT70|55=XS2451515279|55=USY4836TCE92|55=XS1226628961|55=XS2161924605|55=XS1227064430|55=XS1230332055|55=XS2078641888|55=XS2162033729|55=USG82016AN96|55=XS2469673698|55=USG5320CAB49|55=USY7140WAE85|55=XS2463140637|55=XS2475862533|55=XS2479371028|55=XS2169280919|55=XS2447552089|55=USY4872AHZ31|55=XS1402177601|55=XS1233275194|55=XS1227947097|55=XS2464646186|55=XS2079668609|55=AU3FN0069209|55=XS2176713613|55=US404280CS68|55=XS2471903331|55=XS1234958459|55=XS2085045503|55=XS2178924739|55=US20271BAJ44|55=XS2178949561|55=XS2481329733|55=XS1242348164|55=XS1234197074|55=XS2345678900|55=XS2470154779|55=XS2485520261|55=XS2446005907|55=XS2446008083|55=XS2484328021|55=USU1793TAA08|55=XS2181972568|55=XS1240913068|55=USY8137FAC24|55=XS2178853375|55=XS2179842898|55=XS2182877865|55=XS2472512354|55=USG5975LAA47|55=XS2487342300|55=XS2496620977|55=HK0000929692|55=HK0000854296|55=XS2485572148|55=XS2563889794|55=XS2473375124|55=USG8850LAA82|55=US55608YAB11|55=XS2590538380|55=XS2475950155|55=XS2433131559|55=CND10006G534|55=XS1822295983|55=XS1252209249|55=US71567RAN61|55=USY4907LAC64|55=XS2489981485|55=XS2484991844|55=XS2480876254|55=USY4899GCB78|55=USY4907LAB81|55=XS2489151709|55=XS2478801942|55=US056752AG38|55=XS2199681774|55=XS2480444970|55=XS2186093766|55=USG60744AE27|55=HK0000611928|55=US45604HAH03|55=XS2189906816|55=XS2179917906|55=FR0013428414|55=XS2190999834|55=XS2489808423|55=XS2190467667|55=US44891CCF86|55=XS1248248343|55=XS2489897343|55=XS1627599654|55=XS2861551898|55=XS2361426559|55=XS2484016642|55=XS2495307865|55=XS1253849357|320=SECURITYREQID|322=SECURITYREQIDRESP|560=0|10=029|
2025/02/24 05:52:49.418703 8=FIX.4.4|9=94|35=A|34=1|49=BBX|52=20250224-05:52:49.418|56=AMSTEL|98=0|108=30|141=Y|553=Amstel|554=BondbloX|10=014|
2025/02/24 05:52:49.475918 8=FIX.4.4|9=70|35=A|34=1|49=AMSTEL|52=20250224-05:52:49.561|56=BBX|98=0|108=30|141=Y|10=210|
2025/02/24 05:53:01.296177 8=FIX.4.4|9=76|35=x|34=2|49=BBX|52=20250224-05:53:01.295|56=AMSTEL|320=SECURITYREQID|559=4|10=152|
2025/02/24 05:53:01.381073 8=FIX.4.4|9=3722|35=y|34=2|49=AMSTEL|52=20250224-05:53:01.458|56=BBX|146=226|55=XS2114327302|55=XS2113136092|55=XS2121187962|55=XS2116222022|55=HK0000910544|55=XS2445374213|55=XS2429304368|55=US00084EAE86|55=XS2585673820|55=US606822BN36|55=XS2109790183|55=XS2101828452|55=US500630DQ87|55=XS2379456895|55=HK0000910189|55=XS2125599626|55=XS2449761076|55=US606822AU87|55=XS2423459242|55=XS2447949475|55=XS2123955952|55=XS2305026762|55=XS2125922349|55=XS2451285253|55=XS0893206747|55=XS2127855711|55=XS2126300479|55=XS2462338612|55=XS2451854991|55=USJ7771YLQ81|55=US438127AA08|55=USG9T27HAD62|55=XS1200840111|55=XS2453962107|55=XS2129684127|55=US00131MAB90|55=US2027A1KH95|55=US2027A1KJ51|55=XS1788514039|55=XS2450979484|55=US718286AP29|55=USY68856AN67|55=XS2133246673|55=XS2140589529|55=XS2248032653|55=US06407F2B71|55=XS2110952962|55=XS2122900330|55=XS2077601610|55=XS2122990737|55=XL2334361271|55=SG7V35954653|55=XS2453395001|55=XS2453372992|55=XS2455213590|55=US55608RBK59|55=US55608RBJ86|55=XS2454321519|55=XS2442748971|55=XS2432576382|55=XS2406886627|55=USJ46186BC59|55=XS2450206516|55=XS2049728004|55=USY6080GAA59|55=XS2460254282|55=XS2436799238|55=US056752AQ10|55=XS2446844834|55=US91127LAG59|55=XS2455963590|55=USV3856JAA17|55=XS2113708155|55=US65504LAN73|55=XS2406805213|55=XS1213177295|55=US44891CBK80|55=XS2426804998|55=XS2461794922|55=USJ4706DLU20|55=XS2484016643|55=XS2450908970|55=XS1791937441|55=XS2471135926|55=XS2458278731|55=XS1811213435|55=XS1810775145|55=XS2203824789|55=US71567RAD89|55=US50066RAR75|55=XS2125052261|55=USU3821WAD93|55=XS2068971980|55=XS2473321037|55=XS2180856440|55=USY0889VAA80|55=XS2133816012|55=XS2155486868|55=XS2445143329|55=USY5749LAA99|55=XS1214406792|55=XS2207192191|55=USG21184AB52|55=XS2158482211|55=USY3815NBE05|55=US82460EAP51|55=XS2471295969|55=XS2471127584|55=XS2432500309|55=XS2472507511|55=XS2465969132|55=XS2471231998|55=XS2158820477|55=XS2461426459|55=XS2471305867|55=XS2471384045|55=USG8201JAC56|55=XS2334361271|55=XS2470956322|55=US09681MAM01|55=XS2247552446|55=XS2163022739|55=XS2250030090|55=XS2227351900|55=XS1810963147|55=US500769GQ12|55=US50050HAM88|55=US12634MAB63|55=USY7133MAC39|55=USY4836TBT70|55=XS2451515279|55=USY4836TCE92|55=XS1226628961|55=XS2161924605|55=XS1227064430|55=XS1230332055|55=XS2078641888|55=XS2162033729|55=USG82016AN96|55=XS2469673698|55=USG5320CAB49|55=USY7140WAE85|55=XS2463140637|55=XS2475862533|55=XS2479371028|55=XS2169280919|55=XS2447552089|55=USY4872AHZ31|55=XS1402177601|55=XS1233275194|55=XS1227947097|55=XS2464646186|55=XS2079668609|55=AU3FN0069209|55=XS2176713613|55=US404280CS68|55=XS2471903331|55=XS1234958459|55=XS2085045503|55=XS2178924739|55=US20271BAJ44|55=XS2178949561|55=XS2481329733|55=XS1242348164|55=XS1234197074|55=XS2345678900|55=XS2470154779|55=XS2485520261|55=XS2446005907|55=XS2446008083|55=XS2484328021|55=USU1793TAA08|55=XS2181972568|55=XS1240913068|55=USY8137FAC24|55=XS2178853375|55=XS2179842898|55=XS2182877865|55=XS2472512354|55=USG5975LAA47|55=XS2487342300|55=XS2496620977|55=HK0000929692|55=HK0000854296|55=XS2485572148|55=XS2563889794|55=XS2473375124|55=USG8850LAA82|55=US55608YAB11|55=XS2590538380|55=XS2475950155|55=XS2433131559|55=CND10006G534|55=XS1822295983|55=XS1252209249|55=US71567RAN61|55=USY4907LAC64|55=XS2489981485|55=XS2484991844|55=XS2480876254|55=USY4899GCB78|55=USY4907LAB81|55=XS2489151709|55=XS2478801942|55=US056752AG38|55=XS2199681774|55=XS2480444970|55=XS2186093766|55=USG60744AE27|55=HK0000611928|55=US45604HAH03|55=XS2189906816|55=XS2179917906|55=FR0013428414|55=XS2190999834|55=XS2489808423|55=XS2190467667|55=US44891CCF86|55=XS1248248343|55=XS2489897343|55=XS1627599654|55=XS2861551898|55=XS2361426559|55=XS2484016642|55=XS2495307865|55=XS1253849357|320=SECURITYREQID|322=SECURITYREQIDRESP|560=0|10=024|
2025/02/24 05:53:31.298366 8=FIX.4.4|9=52|35=0|34=3|49=BBX|52=20250224-05:53:31.298|56=AMSTEL|10=124|
2025/02/24 05:53:31.380544 8=FIX.4.4|9=52|35=0|34=3|49=AMSTEL|52=20250224-05:53:31.467|56=BBX|10=122|
2025/02/24 06:00:27.121442 8=FIX.4.4|9=94|35=A|34=1|49=BBX|52=20250224-06:00:27.121|56=AMSTEL|98=0|108=30|141=Y|553=Amstel|554=BondbloX|10=251|
2025/02/24 06:00:27.182534 8=FIX.4.4|9=70|35=A|34=1|49=AMSTEL|52=20250224-06:00:27.275|56=BBX|98=0|108=30|141=Y|10=202|
2025/02/24 06:00:39.523360 8=FIX.4.4|9=76|35=x|34=2|49=BBX|52=20250224-06:00:39.523|56=AMSTEL|320=SECURITYREQID|559=4|10=150|
2025/02/24 06:00:39.587287 8=FIX.4.4|9=3722|35=y|34=2|49=AMSTEL|52=20250224-06:00:39.673|56=BBX|146=226|55=XS2114327302|55=XS2113136092|55=XS2121187962|55=XS2116222022|55=HK0000910544|55=XS2445374213|55=XS2429304368|55=US00084EAE86|55=XS2585673820|55=US606822BN36|55=XS2109790183|55=XS2101828452|55=US500630DQ87|55=XS2379456895|55=HK0000910189|55=XS2125599626|55=XS2449761076|55=US606822AU87|55=XS2423459242|55=XS2447949475|55=XS2123955952|55=XS2305026762|55=XS2125922349|55=XS2451285253|55=XS0893206747|55=XS2127855711|55=XS2126300479|55=XS2462338612|55=XS2451854991|55=USJ7771YLQ81|55=US438127AA08|55=USG9T27HAD62|55=XS1200840111|55=XS2453962107|55=XS2129684127|55=US00131MAB90|55=US2027A1KH95|55=US2027A1KJ51|55=XS1788514039|55=XS2450979484|55=US718286AP29|55=USY68856AN67|55=XS2133246673|55=XS2140589529|55=XS2248032653|55=US06407F2B71|55=XS2110952962|55=XS2122900330|55=XS2077601610|55=XS2122990737|55=XL2334361271|55=SG7V35954653|55=XS2453395001|55=XS2453372992|55=XS2455213590|55=US55608RBK59|55=US55608RBJ86|55=XS2454321519|55=XS2442748971|55=XS2432576382|55=XS2406886627|55=USJ46186BC59|55=XS2450206516|55=XS2049728004|55=USY6080GAA59|55=XS2460254282|55=XS2436799238|55=US056752AQ10|55=XS2446844834|55=US91127LAG59|55=XS2455963590|55=USV3856JAA17|55=XS2113708155|55=US65504LAN73|55=XS2406805213|55=XS1213177295|55=US44891CBK80|55=XS2426804998|55=XS2461794922|55=USJ4706DLU20|55=XS2484016643|55=XS2450908970|55=XS1791937441|55=XS2471135926|55=XS2458278731|55=XS1811213435|55=XS1810775145|55=XS2203824789|55=US71567RAD89|55=US50066RAR75|55=XS2125052261|55=USU3821WAD93|55=XS2068971980|55=XS2473321037|55=XS2180856440|55=USY0889VAA80|55=XS2133816012|55=XS2155486868|55=XS2445143329|55=USY5749LAA99|55=XS1214406792|55=XS2207192191|55=USG21184AB52|55=XS2158482211|55=USY3815NBE05|55=US82460EAP51|55=XS2471295969|55=XS2471127584|55=XS2432500309|55=XS2472507511|55=XS2465969132|55=XS2471231998|55=XS2158820477|55=XS2461426459|55=XS2471305867|55=XS2471384045|55=USG8201JAC56|55=XS2334361271|55=XS2470956322|55=US09681MAM01|55=XS2247552446|55=XS2163022739|55=XS2250030090|55=XS2227351900|55=XS1810963147|55=US500769GQ12|55=US50050HAM88|55=US12634MAB63|55=USY7133MAC39|55=USY4836TBT70|55=XS2451515279|55=USY4836TCE92|55=XS1226628961|55=XS2161924605|55=XS1227064430|55=XS1230332055|55=XS2078641888|55=XS2162033729|55=USG82016AN96|55=XS2469673698|55=USG5320CAB49|55=USY7140WAE85|55=XS2463140637|55=XS2475862533|55=XS2479371028|55=XS2169280919|55=XS2447552089|55=USY4872AHZ31|55=XS1402177601|55=XS1233275194|55=XS1227947097|55=XS2464646186|55=XS2079668609|55=AU3FN0069209|55=XS2176713613|55=US404280CS68|55=XS2471903331|55=XS1234958459|55=XS2085045503|55=XS2178924739|55=US20271BAJ44|55=XS2178949561|55=XS2481329733|55=XS1242348164|55=XS1234197074|55=XS2345678900|55=XS2470154779|55=XS2485520261|55=XS2446005907|55=XS2446008083|55=XS2484328021|55=USU1793TAA08|55=XS2181972568|55=XS1240913068|55=USY8137FAC24|55=XS2178853375|55=XS2179842898|55=XS2182877865|55=XS2472512354|55=USG5975LAA47|55=XS2487342300|55=XS2496620977|55=HK0000929692|55=HK0000854296|55=XS2485572148|55=XS2563889794|55=XS2473375124|55=USG8850LAA82|55=US55608YAB11|55=XS2590538380|55=XS2475950155|55=XS2433131559|55=CND10006G534|55=XS1822295983|55=XS1252209249|55=US71567RAN61|55=USY4907LAC64|55=XS2489981485|55=XS2484991844|55=XS2480876254|55=USY4899GCB78|55=USY4907LAB81|55=XS2489151709|55=XS2478801942|55=US056752AG38|55=XS2199681774|55=XS2480444970|55=XS2186093766|55=USG60744AE27|55=HK0000611928|55=US45604HAH03|55=XS2189906816|55=XS2179917906|55=FR0013428414|55=XS2190999834|55=XS2489808423|55=XS2190467667|55=US44891CCF86|55=XS1248248343|55=XS2489897343|55=XS1627599654|55=XS2861551898|55=XS2361426559|55=XS2484016642|55=XS2495307865|55=XS1253849357|320=SECURITYREQID|322=SECURITYREQIDRESP|560=0|10=027|
2025/02/24 06:01:09.526796 8=FIX.4.4|9=52|35=0|34=3|49=BBX|52=20250224-06:01:09.526|56=AMSTEL|10=117|
2025/02/24 06:01:09.585865 8=FIX.4.4|9=52|35=0|34=3|49=AMSTEL|52=20250224-06:01:09.676|56=BBX|10=123|
2025/02/24 06:01:39.527974 8=FIX.4.4|9=52|35=0|34=4|49=BBX|52=20250224-06:01:39.527|56=AMSTEL|10=122|
2025/02/24 06:01:39.584402 8=FIX.4.4|9=52|35=0|34=4|49=AMSTEL|52=20250224-06:01:39.677|56=BBX|10=128|
2025/02/24 06:02:09.529730 8=FIX.4.4|9=52|35=0|34=5|49=BBX|52=20250224-06:02:09.529|56=AMSTEL|10=123|
2025/02/24 06:02:09.584357 8=FIX.4.4|9=52|35=0|34=5|49=AMSTEL|52=20250224-06:02:09.678|56=BBX|10=128|
2025/02/24 06:02:39.531488 8=FIX.4.4|9=52|35=0|34=6|49=BBX|52=20250224-06:02:39.531|56=AMSTEL|10=120|
2025/02/24 06:02:39.596982 8=FIX.4.4|9=52|35=0|34=6|49=AMSTEL|52=20250224-06:02:39.679|56=BBX|10=133|
2025/02/24 06:03:09.535347 8=FIX.4.4|9=52|35=0|34=7|49=BBX|52=20250224-06:03:09.535|56=AMSTEL|10=123|
2025/02/24 06:03:09.602621 8=FIX.4.4|9=52|35=0|34=7|49=AMSTEL|52=20250224-06:03:09.680|56=BBX|10=124|
2025/02/24 06:03:39.538126 8=FIX.4.4|9=52|35=0|34=8|49=BBX|52=20250224-06:03:39.537|56=AMSTEL|10=129|
2025/02/24 06:03:39.584389 8=FIX.4.4|9=52|35=0|34=8|49=AMSTEL|52=20250224-06:03:39.680|56=BBX|10=128|
2025/02/24 06:04:09.540424 8=FIX.4.4|9=52|35=0|34=9|49=BBX|52=20250224-06:04:09.540|56=AMSTEL|10=122|
2025/02/24 06:04:09.590115 8=FIX.4.4|9=52|35=0|34=9|49=AMSTEL|52=20250224-06:04:09.681|56=BBX|10=128|
2025/02/24 06:04:39.542516 8=FIX.4.4|9=53|35=0|34=10|49=BBX|52=20250224-06:04:39.542|56=AMSTEL|10=168|
2025/02/24 06:04:39.593603 8=FIX.4.4|9=53|35=0|34=10|49=AMSTEL|52=20250224-06:04:39.682|56=BBX|10=173|
2025/02/24 06:05:09.545241 8=FIX.4.4|9=53|35=0|34=11|49=BBX|52=20250224-06:05:09.545|56=AMSTEL|10=170|
2025/02/24 06:05:09.601088 8=FIX.4.4|9=53|35=0|34=11|49=AMSTEL|52=20250224-06:05:09.683|56=BBX|10=173|
2025/02/24 06:05:39.546549 8=FIX.4.4|9=53|35=0|34=12|49=BBX|52=20250224-06:05:39.546|56=AMSTEL|10=175|
2025/02/24 06:05:39.595715 8=FIX.4.4|9=53|35=0|34=12|49=AMSTEL|52=20250224-06:05:39.684|56=BBX|10=178|
2025/02/24 06:06:09.548424 8=FIX.4.4|9=53|35=0|34=13|49=BBX|52=20250224-06:06:09.548|56=AMSTEL|10=176|
2025/02/24 06:06:09.591604 8=FIX.4.4|9=53|35=0|34=13|49=AMSTEL|52=20250224-06:06:09.684|56=BBX|10=177|
2025/02/24 06:06:39.549864 8=FIX.4.4|9=53|35=0|34=14|49=BBX|52=20250224-06:06:39.549|56=AMSTEL|10=181|
2025/02/24 06:06:39.587003 8=FIX.4.4|9=53|35=0|34=14|49=AMSTEL|52=20250224-06:06:39.685|56=BBX|10=182|
2025/02/24 06:07:09.551121 8=FIX.4.4|9=53|35=0|34=15|49=BBX|52=20250224-06:07:09.550|56=AMSTEL|10=172|
2025/02/24 06:07:09.602614 8=FIX.4.4|9=53|35=0|34=15|49=AMSTEL|52=20250224-06:07:09.685|56=BBX|10=181|
2025/02/24 06:07:39.537409 8=FIX.4.4|9=53|35=0|34=16|49=BBX|52=20250224-06:07:39.537|56=AMSTEL|10=181|
2025/02/24 06:07:39.579514 8=FIX.4.4|9=53|35=0|34=16|49=AMSTEL|52=20250224-06:07:39.686|56=BBX|10=186|
2025/02/24 06:08:09.536513 8=FIX.4.4|9=53|35=0|34=17|49=BBX|52=20250224-06:08:09.536|56=AMSTEL|10=179|
2025/02/24 06:08:09.581871 8=FIX.4.4|9=53|35=0|34=17|49=AMSTEL|52=20250224-06:08:09.687|56=BBX|10=186|
2025/02/24 06:08:39.538958 8=FIX.4.4|9=53|35=0|34=18|49=BBX|52=20250224-06:08:39.538|56=AMSTEL|10=185|
2025/02/24 06:08:39.570407 8=FIX.4.4|9=53|35=0|34=18|49=AMSTEL|52=20250224-06:08:39.688|56=BBX|10=191|
2025/02/24 06:09:09.542065 8=FIX.4.4|9=53|35=0|34=19|49=BBX|52=20250224-06:09:09.541|56=AMSTEL|10=178|
2025/02/24 06:09:09.573235 8=FIX.4.4|9=53|35=0|34=19|49=AMSTEL|52=20250224-06:09:09.689|56=BBX|10=191|
2025/02/24 06:09:39.543867 8=FIX.4.4|9=53|35=0|34=20|49=BBX|52=20250224-06:09:39.543|56=AMSTEL|10=175|
2025/02/24 06:09:39.569908 8=FIX.4.4|9=53|35=0|34=20|49=AMSTEL|52=20250224-06:09:39.690|56=BBX|10=178|
2025/02/24 06:10:09.545467 8=FIX.4.4|9=53|35=0|34=21|49=BBX|52=20250224-06:10:09.545|56=AMSTEL|10=167|
2025/02/24 06:10:09.569643 8=FIX.4.4|9=53|35=0|34=21|49=AMSTEL|52=20250224-06:10:09.691|56=BBX|10=169|
2025/02/24 06:10:39.547702 8=FIX.4.4|9=53|35=0|34=22|49=BBX|52=20250224-06:10:39.547|56=AMSTEL|10=173|
2025/02/24 06:10:39.572938 8=FIX.4.4|9=53|35=0|34=22|49=AMSTEL|52=20250224-06:10:39.691|56=BBX|10=173|
2025/02/24 06:11:09.550174 8=FIX.4.4|9=53|35=0|34=23|49=BBX|52=20250224-06:11:09.550|56=AMSTEL|10=166|
2025/02/24 06:11:09.569644 8=FIX.4.4|9=53|35=0|34=23|49=AMSTEL|52=20250224-06:11:09.693|56=BBX|10=174|
2025/02/24 06:11:39.552287 8=FIX.4.4|9=53|35=0|34=24|49=BBX|52=20250224-06:11:39.552|56=AMSTEL|10=172|
2025/02/24 06:11:39.610270 8=FIX.4.4|9=53|35=0|34=24|49=AMSTEL|52=20250224-06:11:39.693|56=BBX|10=178|
2025/02/24 06:12:09.554842 8=FIX.4.4|9=53|35=0|34=25|49=BBX|52=20250224-06:12:09.554|56=AMSTEL|10=173|
2025/02/24 06:12:09.572026 8=FIX.4.4|9=53|35=0|34=25|49=AMSTEL|52=20250224-06:12:09.694|56=BBX|10=178|
2025/02/24 06:12:39.555697 8=FIX.4.4|9=53|35=0|34=26|49=BBX|52=20250224-06:12:39.555|56=AMSTEL|10=178|
2025/02/24 06:12:39.579116 8=FIX.4.4|9=53|35=0|34=26|49=AMSTEL|52=20250224-06:12:39.695|56=BBX|10=183|
2025/02/24 06:13:09.558339 8=FIX.4.4|9=53|35=0|34=27|49=BBX|52=20250224-06:13:09.558|56=AMSTEL|10=180|
2025/02/24 06:13:09.570586 8=FIX.4.4|9=53|35=0|34=27|49=AMSTEL|52=20250224-06:13:09.695|56=BBX|10=182|
2025/02/24 06:13:39.559179 8=FIX.4.4|9=53|35=0|34=28|49=BBX|52=20250224-06:13:39.559|56=AMSTEL|10=185|
2025/02/24 06:13:39.571371 8=FIX.4.4|9=53|35=0|34=28|49=AMSTEL|52=20250224-06:13:39.697|56=BBX|10=188|
2025/02/24 06:14:09.561329 8=FIX.4.4|9=53|35=0|34=29|49=BBX|52=20250224-06:14:09.561|56=AMSTEL|10=177|
2025/02/24 06:14:09.574066 8=FIX.4.4|9=53|35=0|34=29|49=AMSTEL|52=20250224-06:14:09.698|56=BBX|10=188|
2025/02/24 06:23:33.110430 8=FIX.4.4|9=94|35=A|34=1|49=BBX|52=20250224-06:23:33.109|56=AMSTEL|98=0|108=30|141=Y|553=Amstel|554=BondbloX|10=003|
2025/02/24 06:23:33.166474 8=FIX.4.4|9=70|35=A|34=1|49=AMSTEL|52=20250224-06:23:33.251|56=BBX|98=0|108=30|141=Y|10=198|
2025/02/24 06:24:03.112284 8=FIX.4.4|9=52|35=0|34=2|49=BBX|52=20250224-06:24:03.112|56=AMSTEL|10=106|
2025/02/24 06:24:03.173265 8=FIX.4.4|9=52|35=0|34=2|49=AMSTEL|52=20250224-06:24:03.251|56=BBX|10=110|
2025/02/24 06:24:33.114355 8=FIX.4.4|9=52|35=0|34=3|49=BBX|52=20250224-06:24:33.114|56=AMSTEL|10=112|
2025/02/24 06:24:33.167218 8=FIX.4.4|9=52|35=0|34=3|49=AMSTEL|52=20250224-06:24:33.252|56=BBX|10=115|
2025/02/24 06:25:03.117300 8=FIX.4.4|9=52|35=0|34=4|49=BBX|52=20250224-06:25:03.117|56=AMSTEL|10=114|
2025/02/24 06:25:03.169141 8=FIX.4.4|9=52|35=0|34=4|49=AMSTEL|52=20250224-06:25:03.253|56=BBX|10=115|
2025/02/24 06:25:33.119497 8=FIX.4.4|9=52|35=0|34=5|49=BBX|52=20250224-06:25:33.119|56=AMSTEL|10=120|
2025/02/24 06:25:33.170084 8=FIX.4.4|9=52|35=0|34=5|49=AMSTEL|52=20250224-06:25:33.254|56=BBX|10=120|
2025/02/24 06:26:03.122348 8=FIX.4.4|9=52|35=0|34=6|49=BBX|52=20250224-06:26:03.122|56=AMSTEL|10=113|
2025/02/24 06:26:03.171455 8=FIX.4.4|9=52|35=0|34=6|49=AMSTEL|52=20250224-06:26:03.255|56=BBX|10=120|
2025/02/24 06:26:33.124469 8=FIX.4.4|9=52|35=0|34=7|49=BBX|52=20250224-06:26:33.124|56=AMSTEL|10=119|
2025/02/24 06:26:33.170547 8=FIX.4.4|9=52|35=0|34=7|49=AMSTEL|52=20250224-06:26:33.257|56=BBX|10=126|
2025/02/24 06:27:03.127369 8=FIX.4.4|9=52|35=0|34=8|49=BBX|52=20250224-06:27:03.127|56=AMSTEL|10=121|
2025/02/24 06:27:03.172341 8=FIX.4.4|9=52|35=0|34=8|49=AMSTEL|52=20250224-06:27:03.258|56=BBX|10=126|
2025/02/24 06:27:33.129346 8=FIX.4.4|9=52|35=0|34=9|49=BBX|52=20250224-06:27:33.129|56=AMSTEL|10=127|
2025/02/24 06:27:33.173430 8=FIX.4.4|9=52|35=0|34=9|49=AMSTEL|52=20250224-06:27:33.259|56=BBX|10=131|
2025/02/24 06:28:03.132478 8=FIX.4.4|9=53|35=0|34=10|49=BBX|52=20250224-06:28:03.132|56=AMSTEL|10=160|
2025/02/24 06:28:03.174366 8=FIX.4.4|9=53|35=0|34=10|49=AMSTEL|52=20250224-06:28:03.260|56=BBX|10=162|
2025/02/24 06:28:33.135255 8=FIX.4.4|9=53|35=0|34=11|49=BBX|52=20250224-06:28:33.135|56=AMSTEL|10=167|
2025/02/24 06:28:33.174694 8=FIX.4.4|9=53|35=0|34=11|49=AMSTEL|52=20250224-06:28:33.262|56=BBX|10=168|
2025/02/24 06:29:03.137369 8=FIX.4.4|9=53|35=0|34=12|49=BBX|52=20250224-06:29:03.137|56=AMSTEL|10=168|
2025/02/24 06:29:03.175800 8=FIX.4.4|9=53|35=0|34=12|49=AMSTEL|52=20250224-06:29:03.263|56=BBX|10=168|
2025/02/24 06:29:33.138681 8=FIX.4.4|9=53|35=0|34=13|49=BBX|52=20250224-06:29:33.138|56=AMSTEL|10=173|
2025/02/24 06:29:33.176498 8=FIX.4.4|9=53|35=0|34=13|49=AMSTEL|52=20250224-06:29:33.264|56=BBX|10=173|
2025/02/24 06:30:03.140618 8=FIX.4.4|9=53|35=0|34=14|49=BBX|52=20250224-06:30:03.140|56=AMSTEL|10=156|
2025/02/24 06:30:03.177434 8=FIX.4.4|9=53|35=0|34=14|49=AMSTEL|52=20250224-06:30:03.265|56=BBX|10=164|
2025/02/24 08:08:46.104583 8=FIX.4.4|9=94|35=A|34=1|49=BBX|52=20250224-08:08:46.104|56=AMSTEL|98=0|108=30|141=Y|553=Amstel|554=BondbloX|10=007|
2025/02/24 08:08:46.162287 8=FIX.4.4|9=70|35=A|34=1|49=AMSTEL|52=20250224-08:08:46.192|56=BBX|98=0|108=30|141=Y|10=211|
2025/02/24 08:09:16.106666 8=FIX.4.4|9=52|35=0|34=2|49=BBX|52=20250224-08:09:16.106|56=AMSTEL|10=118|
2025/02/24 08:09:16.164163 8=FIX.4.4|9=52|35=0|34=2|49=AMSTEL|52=20250224-08:09:16.194|56=BBX|10=125|
2025/02/24 08:09:33.880623 8=FIX.4.4|9=76|35=x|34=3|49=BBX|52=20250224-08:09:33.880|56=AMSTEL|320=SECURITYREQID|559=4|10=162|
2025/02/24 08:09:33.950903 8=FIX.4.4|9=3722|35=y|34=3|49=AMSTEL|52=20250224-08:09:33.969|56=BBX|146=226|55=XS2114327302|55=XS2113136092|55=XS2121187962|55=XS2116222022|55=HK0000910544|55=XS2445374213|55=XS2429304368|55=US00084EAE86|55=XS2585673820|55=US606822BN36|55=XS2109790183|55=XS2101828452|55=US500630DQ87|55=XS2379456895|55=HK0000910189|55=XS2125599626|55=XS2449761076|55=US606822AU87|55=XS2423459242|55=XS2447949475|55=XS2123955952|55=XS2305026762|55=XS2125922349|55=XS2451285253|55=XS0893206747|55=XS2127855711|55=XS2126300479|55=XS2462338612|55=XS2451854991|55=USJ7771YLQ81|55=US438127AA08|55=USG9T27HAD62|55=XS1200840111|55=XS2453962107|55=XS2129684127|55=US00131MAB90|55=US2027A1KH95|55=US2027A1KJ51|55=XS1788514039|55=XS2450979484|55=US718286AP29|55=USY68856AN67|55=XS2133246673|55=XS2140589529|55=XS2248032653|55=US06407F2B71|55=XS2110952962|55=XS2122900330|55=XS2077601610|55=XS2122990737|55=XL2334361271|55=SG7V35954653|55=XS2453395001|55=XS2453372992|55=XS2455213590|55=US55608RBK59|55=US55608RBJ86|55=XS2454321519|55=XS2442748971|55=XS2432576382|55=XS2406886627|55=USJ46186BC59|55=XS2450206516|55=XS2049728004|55=USY6080GAA59|55=XS2460254282|55=XS2436799238|55=US056752AQ10|55=XS2446844834|55=US91127LAG59|55=XS2455963590|55=USV3856JAA17|55=XS2113708155|55=US65504LAN73|55=XS2406805213|55=XS1213177295|55=US44891CBK80|55=XS2426804998|55=XS2461794922|55=USJ4706DLU20|55=XS2484016643|55=XS2450908970|55=XS1791937441|55=XS2471135926|55=XS2458278731|55=XS1811213435|55=XS1810775145|55=XS2203824789|55=US71567RAD89|55=US50066RAR75|55=XS2125052261|55=USU3821WAD93|55=XS2068971980|55=XS2473321037|55=XS2180856440|55=USY0889VAA80|55=XS2133816012|55=XS2155486868|55=XS2445143329|55=USY5749LAA99|55=XS1214406792|55=XS2207192191|55=USG21184AB52|55=XS2158482211|55=USY3815NBE05|55=US82460EAP51|55=XS2471295969|55=XS2471127584|55=XS2432500309|55=XS2472507511|55=XS2465969132|55=XS2471231998|55=XS2158820477|55=XS2461426459|55=XS2471305867|55=XS2471384045|55=USG8201JAC56|55=XS2334361271|55=XS2470956322|55=US09681MAM01|55=XS2247552446|55=XS2163022739|55=XS2250030090|55=XS2227351900|55=XS1810963147|55=US500769GQ12|55=US50050HAM88|55=US12634MAB63|55=USY7133MAC39|55=USY4836TBT70|55=XS2451515279|55=USY4836TCE92|55=XS1226628961|55=XS2161924605|55=XS1227064430|55=XS1230332055|55=XS2078641888|55=XS2162033729|55=USG82016AN96|55=XS2469673698|55=USG5320CAB49|55=USY7140WAE85|55=XS2463140637|55=XS2475862533|55=XS2479371028|55=XS2169280919|55=XS2447552089|55=USY4872AHZ31|55=XS1402177601|55=XS1233275194|55=XS1227947097|55=XS2464646186|55=XS2079668609|55=AU3FN0069209|55=XS2176713613|55=US404280CS68|55=XS2471903331|55=XS1234958459|55=XS2085045503|55=XS2178924739|55=US20271BAJ44|55=XS2178949561|55=XS2481329733|55=XS1242348164|55=XS1234197074|55=XS2345678900|55=XS2470154779|55=XS2485520261|55=XS2446005907|55=XS2446008083|55=XS2484328021|55=USU1793TAA08|55=XS2181972568|55=XS1240913068|55=USY8137FAC24|55=XS2178853375|55=XS2179842898|55=XS2182877865|55=XS2472512354|55=USG5975LAA47|55=XS2487342300|55=XS2496620977|55=HK0000929692|55=HK0000854296|55=XS2485572148|55=XS2563889794|55=XS2473375124|55=USG8850LAA82|55=US55608YAB11|55=XS2590538380|55=XS2475950155|55=XS2433131559|55=CND10006G534|55=XS1822295983|55=XS1252209249|55=US71567RAN61|55=USY4907LAC64|55=XS2489981485|55=XS2484991844|55=XS2480876254|55=USY4899GCB78|55=USY4907LAB81|55=XS2489151709|55=XS2478801942|55=US056752AG38|55=XS2199681774|55=XS2480444970|55=XS2186093766|55=USG60744AE27|55=HK0000611928|55=US45604HAH03|55=XS2189906816|55=XS2179917906|55=FR0013428414|55=XS2190999834|55=XS2489808423|55=XS2190467667|55=US44891CCF86|55=XS1248248343|55=XS2489897343|55=XS1627599654|55=XS2861551898|55=XS2361426559|55=XS2484016642|55=XS2495307865|55=XS1253849357|320=SECURITYREQID|322=SECURITYREQIDRESP|560=0|10=041|
2025/02/24 08:24:11.104198 8=FIX.4.4|9=94|35=A|34=1|49=BBX|52=20250224-08:24:11.103|56=AMSTEL|98=0|108=30|141=Y|553=Amstel|554=BondbloX|10=252|
2025/02/24 08:24:11.158876 8=FIX.4.4|9=70|35=A|34=1|49=AMSTEL|52=20250224-08:24:11.199|56=BBX|98=0|108=30|141=Y|10=208|
2025/02/24 08:24:23.208506 8=FIX.4.4|9=76|35=x|34=2|49=BBX|52=20250224-08:24:23.208|56=AMSTEL|320=SECURITYREQID|559=4|10=151|
2025/02/24 08:24:23.276092 8=FIX.4.4|9=3722|35=y|34=2|49=AMSTEL|52=20250224-08:24:23.309|56=BBX|146=226|55=XS2114327302|55=XS2113136092|55=XS2121187962|55=XS2116222022|55=HK0000910544|55=XS2445374213|55=XS2429304368|55=US00084EAE86|55=XS2585673820|55=US606822BN36|55=XS2109790183|55=XS2101828452|55=US500630DQ87|55=XS2379456895|55=HK0000910189|55=XS2125599626|55=XS2449761076|55=US606822AU87|55=XS2423459242|55=XS2447949475|55=XS2123955952|55=XS2305026762|55=XS2125922349|55=XS2451285253|55=XS0893206747|55=XS2127855711|55=XS2126300479|55=XS2462338612|55=XS2451854991|55=USJ7771YLQ81|55=US438127AA08|55=USG9T27HAD62|55=XS1200840111|55=XS2453962107|55=XS2129684127|55=US00131MAB90|55=US2027A1KH95|55=US2027A1KJ51|55=XS1788514039|55=XS2450979484|55=US718286AP29|55=USY68856AN67|55=XS2133246673|55=XS2140589529|55=XS2248032653|55=US06407F2B71|55=XS2110952962|55=XS2122900330|55=XS2077601610|55=XS2122990737|55=XL2334361271|55=SG7V35954653|55=XS2453395001|55=XS2453372992|55=XS2455213590|55=US55608RBK59|55=US55608RBJ86|55=XS2454321519|55=XS2442748971|55=XS2432576382|55=XS2406886627|55=USJ46186BC59|55=XS2450206516|55=XS2049728004|55=USY6080GAA59|55=XS2460254282|55=XS2436799238|55=US056752AQ10|55=XS2446844834|55=US91127LAG59|55=XS2455963590|55=USV3856JAA17|55=XS2113708155|55=US65504LAN73|55=XS2406805213|55=XS1213177295|55=US44891CBK80|55=XS2426804998|55=XS2461794922|55=USJ4706DLU20|55=XS2484016643|55=XS2450908970|55=XS1791937441|55=XS2471135926|55=XS2458278731|55=XS1811213435|55=XS1810775145|55=XS2203824789|55=US71567RAD89|55=US50066RAR75|55=XS2125052261|55=USU3821WAD93|55=XS2068971980|55=XS2473321037|55=XS2180856440|55=USY0889VAA80|55=XS2133816012|55=XS2155486868|55=XS2445143329|55=USY5749LAA99|55=XS1214406792|55=XS2207192191|55=USG21184AB52|55=XS2158482211|55=USY3815NBE05|55=US82460EAP51|55=XS2471295969|55=XS2471127584|55=XS2432500309|55=XS2472507511|55=XS2465969132|55=XS2471231998|55=XS2158820477|55=XS2461426459|55=XS2471305867|55=XS2471384045|55=USG8201JAC56|55=XS2334361271|55=XS2470956322|55=US09681MAM01|55=XS2247552446|55=XS2163022739|55=XS2250030090|55=XS2227351900|55=XS1810963147|55=US500769GQ12|55=US50050HAM88|55=US12634MAB63|55=USY7133MAC39|55=USY4836TBT70|55=XS2451515279|55=USY4836TCE92|55=XS1226628961|55=XS2161924605|55=XS1227064430|55=XS1230332055|55=XS2078641888|55=XS2162033729|55=USG82016AN96|55=XS2469673698|55=USG5320CAB49|55=USY7140WAE85|55=XS2463140637|55=XS2475862533|55=XS2479371028|55=XS2169280919|55=XS2447552089|55=USY4872AHZ31|55=XS1402177601|55=XS1233275194|55=XS1227947097|55=XS2464646186|55=XS2079668609|55=AU3FN0069209|55=XS2176713613|55=US404280CS68|55=XS2471903331|55=XS1234958459|55=XS2085045503|55=XS2178924739|55=US20271BAJ44|55=XS2178949561|55=XS2481329733|55=XS1242348164|55=XS1234197074|55=XS2345678900|55=XS2470154779|55=XS2485520261|55=XS2446005907|55=XS2446008083|55=XS2484328021|55=USU1793TAA08|55=XS2181972568|55=XS1240913068|55=USY8137FAC24|55=XS2178853375|55=XS2179842898|55=XS2182877865|55=XS2472512354|55=USG5975LAA47|55=XS2487342300|55=XS2496620977|55=HK0000929692|55=HK0000854296|55=XS2485572148|55=XS2563889794|55=XS2473375124|55=USG8850LAA82|55=US55608YAB11|55=XS2590538380|55=XS2475950155|55=XS2433131559|55=CND10006G534|55=XS1822295983|55=XS1252209249|55=US71567RAN61|55=USY4907LAC64|55=XS2489981485|55=XS2484991844|55=XS2480876254|55=USY4899GCB78|55=USY4907LAB81|55=XS2489151709|55=XS2478801942|55=US056752AG38|55=XS2199681774|55=XS2480444970|55=XS2186093766|55=USG60744AE27|55=HK0000611928|55=US45604HAH03|55=XS2189906816|55=XS2179917906|55=FR0013428414|55=XS2190999834|55=XS2489808423|55=XS2190467667|55=US44891CCF86|55=XS1248248343|55=XS2489897343|55=XS1627599654|55=XS2861551898|55=XS2361426559|55=XS2484016642|55=XS2495307865|55=XS1253849357|320=SECURITYREQID|322=SECURITYREQIDRESP|560=0|10=024|
2025/02/24 08:25:40.107964 8=FIX.4.4|9=94|35=A|34=1|49=BBX|52=20250224-08:25:40.107|56=AMSTEL|98=0|108=30|141=Y|553=Amstel|554=BondbloX|10=003|
2025/02/24 08:25:40.164937 8=FIX.4.4|9=70|35=A|34=1|49=AMSTEL|52=20250224-08:25:40.205|56=BBX|98=0|108=30|141=Y|10=199|
2025/02/24 08:25:54.964186 8=FIX.4.4|9=76|35=x|34=2|49=BBX|52=20250224-08:25:54.963|56=AMSTEL|320=SECURITYREQID|559=4|10=164|
2025/02/24 08:25:55.037607 8=FIX.4.4|9=3722|35=y|34=2|49=AMSTEL|52=20250224-08:25:55.070|56=BBX|146=226|55=XS2114327302|55=XS2113136092|55=XS2121187962|55=XS2116222022|55=HK0000910544|55=XS2445374213|55=XS2429304368|55=US00084EAE86|55=XS2585673820|55=US606822BN36|55=XS2109790183|55=XS2101828452|55=US500630DQ87|55=XS2379456895|55=HK0000910189|55=XS2125599626|55=XS2449761076|55=US606822AU87|55=XS2423459242|55=XS2447949475|55=XS2123955952|55=XS2305026762|55=XS2125922349|55=XS2451285253|55=XS0893206747|55=XS2127855711|55=XS2126300479|55=XS2462338612|55=XS2451854991|55=USJ7771YLQ81|55=US438127AA08|55=USG9T27HAD62|55=XS1200840111|55=XS2453962107|55=XS2129684127|55=US00131MAB90|55=US2027A1KH95|55=US2027A1KJ51|55=XS1788514039|55=XS2450979484|55=US718286AP29|55=USY68856AN67|55=XS2133246673|55=XS2140589529|55=XS2248032653|55=US06407F2B71|55=XS2110952962|55=XS2122900330|55=XS2077601610|55=XS2122990737|55=XL2334361271|55=SG7V35954653|55=XS2453395001|55=XS2453372992|55=XS2455213590|55=US55608RBK59|55=US55608RBJ86|55=XS2454321519|55=XS2442748971|55=XS2432576382|55=XS2406886627|55=USJ46186BC59|55=XS2450206516|55=XS2049728004|55=USY6080GAA59|55=XS2460254282|55=XS2436799238|55=US056752AQ10|55=XS2446844834|55=US91127LAG59|55=XS2455963590|55=USV3856JAA17|55=XS2113708155|55=US65504LAN73|55=XS2406805213|55=XS1213177295|55=US44891CBK80|55=XS2426804998|55=XS2461794922|55=USJ4706DLU20|55=XS2484016643|55=XS2450908970|55=XS1791937441|55=XS2471135926|55=XS2458278731|55=XS1811213435|55=XS1810775145|55=XS2203824789|55=US71567RAD89|55=US50066RAR75|55=XS2125052261|55=USU3821WAD93|55=XS2068971980|55=XS2473321037|55=XS2180856440|55=USY0889VAA80|55=XS2133816012|55=XS2155486868|55=XS2445143329|55=USY5749LAA99|55=XS1214406792|55=XS2207192191|55=USG21184AB52|55=XS2158482211|55=USY3815NBE05|55=US82460EAP51|55=XS2471295969|55=XS2471127584|55=XS2432500309|55=XS2472507511|55=XS2465969132|55=XS2471231998|55=XS2158820477|55=XS2461426459|55=XS2471305867|55=XS2471384045|55=USG8201JAC56|55=XS2334361271|55=XS2470956322|55=US09681MAM01|55=XS2247552446|55=XS2163022739|55=XS2250030090|55=XS2227351900|55=XS1810963147|55=US500769GQ12|55=US50050HAM88|55=US12634MAB63|55=USY7133MAC39|55=USY4836TBT70|55=XS2451515279|55=USY4836TCE92|55=XS1226628961|55=XS2161924605|55=XS1227064430|55=XS1230332055|55=XS2078641888|55=XS2162033729|55=USG82016AN96|55=XS2469673698|55=USG5320CAB49|55=USY7140WAE85|55=XS2463140637|55=XS2475862533|55=XS2479371028|55=XS2169280919|55=XS2447552089|55=USY4872AHZ31|55=XS1402177601|55=XS1233275194|55=XS1227947097|55=XS2464646186|55=XS2079668609|55=AU3FN0069209|55=XS2176713613|55=US404280CS68|55=XS2471903331|55=XS1234958459|55=XS2085045503|55=XS2178924739|55=US20271BAJ44|55=XS2178949561|55=XS2481329733|55=XS1242348164|55=XS1234197074|55=XS2345678900|55=XS2470154779|55=XS2485520261|55=XS2446005907|55=XS2446008083|55=XS2484328021|55=USU1793TAA08|55=XS2181972568|55=XS1240913068|55=USY8137FAC24|55=XS2178853375|55=XS2179842898|55=XS2182877865|55=XS2472512354|55=USG5975LAA47|55=XS2487342300|55=XS2496620977|55=HK0000929692|55=HK0000854296|55=XS2485572148|55=XS2563889794|55=XS2473375124|55=USG8850LAA82|55=US55608YAB11|55=XS2590538380|55=XS2475950155|55=XS2433131559|55=CND10006G534|55=XS1822295983|55=XS1252209249|55=US71567RAN61|55=USY4907LAC64|55=XS2489981485|55=XS2484991844|55=XS2480876254|55=USY4899GCB78|55=USY4907LAB81|55=XS2489151709|55=XS2478801942|55=US056752AG38|55=XS2199681774|55=XS2480444970|55=XS2186093766|55=USG60744AE27|55=HK0000611928|55=US45604HAH03|55=XS2189906816|55=XS2179917906|55=FR0013428414|55=XS2190999834|55=XS2489808423|55=XS2190467667|55=US44891CCF86|55=XS1248248343|55=XS2489897343|55=XS1627599654|55=XS2861551898|55=XS2361426559|55=XS2484016642|55=XS2495307865|55=XS1253849357|320=SECURITYREQID|322=SECURITYREQIDRESP|560=0|10=025|
2025/02/24 08:26:24.966679 8=FIX.4.4|9=52|35=0|34=3|49=BBX|52=20250224-08:26:24.966|56=AMSTEL|10=131|
2025/02/24 08:26:25.037266 8=FIX.4.4|9=52|35=0|34=3|49=AMSTEL|52=20250224-08:26:25.076|56=BBX|10=124|
2025/02/24 08:26:46.103011 8=FIX.4.4|9=94|35=A|34=1|49=BBX|52=20250224-08:26:46.102|56=AMSTEL|98=0|108=30|141=Y|553=Amstel|554=BondbloX|10=005|
2025/02/24 08:26:46.247920 8=FIX.4.4|9=70|35=A|34=1|49=AMSTEL|52=20250224-08:26:46.286|56=BBX|98=0|108=30|141=Y|10=215|
2025/02/24 08:26:52.851475 8=FIX.4.4|9=76|35=x|34=2|49=BBX|52=20250224-08:26:52.851|56=AMSTEL|320=SECURITYREQID|559=4|10=159|
2025/02/24 08:26:52.918519 8=FIX.4.4|9=3722|35=y|34=2|49=AMSTEL|52=20250224-08:26:52.948|56=BBX|146=226|55=XS2114327302|55=XS2113136092|55=XS2121187962|55=XS2116222022|55=HK0000910544|55=XS2445374213|55=XS2429304368|55=US00084EAE86|55=XS2585673820|55=US606822BN36|55=XS2109790183|55=XS2101828452|55=US500630DQ87|55=XS2379456895|55=HK0000910189|55=XS2125599626|55=XS2449761076|55=US606822AU87|55=XS2423459242|55=XS2447949475|55=XS2123955952|55=XS2305026762|55=XS2125922349|55=XS2451285253|55=XS0893206747|55=XS2127855711|55=XS2126300479|55=XS2462338612|55=XS2451854991|55=USJ7771YLQ81|55=US438127AA08|55=USG9T27HAD62|55=XS1200840111|55=XS2453962107|55=XS2129684127|55=US00131MAB90|55=US2027A1KH95|55=US2027A1KJ51|55=XS1788514039|55=XS2450979484|55=US718286AP29|55=USY68856AN67|55=XS2133246673|55=XS2140589529|55=XS2248032653|55=US06407F2B71|55=XS2110952962|55=XS2122900330|55=XS2077601610|55=XS2122990737|55=XL2334361271|55=SG7V35954653|55=XS2453395001|55=XS2453372992|55=XS2455213590|55=US55608RBK59|55=US55608RBJ86|55=XS2454321519|55=XS2442748971|55=XS2432576382|55=XS2406886627|55=USJ46186BC59|55=XS2450206516|55=XS2049728004|55=USY6080GAA59|55=XS2460254282|55=XS2436799238|55=US056752AQ10|55=XS2446844834|55=US91127LAG59|55=XS2455963590|55=USV3856JAA17|55=XS2113708155|55=US65504LAN73|55=XS2406805213|55=XS1213177295|55=US44891CBK80|55=XS2426804998|55=XS2461794922|55=USJ4706DLU20|55=XS2484016643|55=XS2450908970|55=XS1791937441|55=XS2471135926|55=XS2458278731|55=XS1811213435|55=XS1810775145|55=XS2203824789|55=US71567RAD89|55=US50066RAR75|55=XS2125052261|55=USU3821WAD93|55=XS2068971980|55=XS2473321037|55=XS2180856440|55=USY0889VAA80|55=XS2133816012|55=XS2155486868|55=XS2445143329|55=USY5749LAA99|55=XS1214406792|55=XS2207192191|55=USG21184AB52|55=XS2158482211|55=USY3815NBE05|55=US82460EAP51|55=XS2471295969|55=XS2471127584|55=XS2432500309|55=XS2472507511|55=XS2465969132|55=XS2471231998|55=XS2158820477|55=XS2461426459|55=XS2471305867|55=XS2471384045|55=USG8201JAC56|55=XS2334361271|55=XS2470956322|55=US09681MAM01|55=XS2247552446|55=XS2163022739|55=XS2250030090|55=XS2227351900|55=XS1810963147|55=US500769GQ12|55=US50050HAM88|55=US12634MAB63|55=USY7133MAC39|55=USY4836TBT70|55=XS2451515279|55=USY4836TCE92|55=XS1226628961|55=XS2161924605|55=XS1227064430|55=XS1230332055|55=XS2078641888|55=XS2162033729|55=USG82016AN96|55=XS2469673698|55=USG5320CAB49|55=USY7140WAE85|55=XS2463140637|55=XS2475862533|55=XS2479371028|55=XS2169280919|55=XS2447552089|55=USY4872AHZ31|55=XS1402177601|55=XS1233275194|55=XS1227947097|55=XS2464646186|55=XS2079668609|55=AU3FN0069209|55=XS2176713613|55=US404280CS68|55=XS2471903331|55=XS1234958459|55=XS2085045503|55=XS2178924739|55=US20271BAJ44|55=XS2178949561|55=XS2481329733|55=XS1242348164|55=XS1234197074|55=XS2345678900|55=XS2470154779|55=XS2485520261|55=XS2446005907|55=XS2446008083|55=XS2484328021|55=USU1793TAA08|55=XS2181972568|55=XS1240913068|55=USY8137FAC24|55=XS2178853375|55=XS2179842898|55=XS2182877865|55=XS2472512354|55=USG5975LAA47|55=XS2487342300|55=XS2496620977|55=HK0000929692|55=HK0000854296|55=XS2485572148|55=XS2563889794|55=XS2473375124|55=USG8850LAA82|55=US55608YAB11|55=XS2590538380|55=XS2475950155|55=XS2433131559|55=CND10006G534|55=XS1822295983|55=XS1252209249|55=US71567RAN61|55=USY4907LAC64|55=XS2489981485|55=XS2484991844|55=XS2480876254|55=USY4899GCB78|55=USY4907LAB81|55=XS2489151709|55=XS2478801942|55=US056752AG38|55=XS2199681774|55=XS2480444970|55=XS2186093766|55=USG60744AE27|55=HK0000611928|55=US45604HAH03|55=XS2189906816|55=XS2179917906|55=FR0013428414|55=XS2190999834|55=XS2489808423|55=XS2190467667|55=US44891CCF86|55=XS1248248343|55=XS2489897343|55=XS1627599654|55=XS2861551898|55=XS2361426559|55=XS2484016642|55=XS2495307865|55=XS1253849357|320=SECURITYREQID|322=SECURITYREQIDRESP|560=0|10=037|
2025/02/24 08:27:22.853079 8=FIX.4.4|9=52|35=0|34=3|49=BBX|52=20250224-08:27:22.852|56=AMSTEL|10=124|
2025/02/24 08:27:22.912185 8=FIX.4.4|9=52|35=0|34=3|49=AMSTEL|52=20250224-08:27:22.950|56=BBX|10=123|
2025/02/24 08:27:52.854711 8=FIX.4.4|9=52|35=0|34=4|49=BBX|52=20250224-08:27:52.854|56=AMSTEL|10=130|
2025/02/24 08:27:52.910736 8=FIX.4.4|9=52|35=0|34=4|49=AMSTEL|52=20250224-08:27:52.951|56=BBX|10=128|
2025/02/24 08:28:22.857820 8=FIX.4.4|9=52|35=0|34=5|49=BBX|52=20250224-08:28:22.857|56=AMSTEL|10=132|
2025/02/24 08:28:22.912754 8=FIX.4.4|9=52|35=0|34=5|49=AMSTEL|52=20250224-08:28:22.952|56=BBX|10=128|
