2025/02/11 12:03:02.003585 8=FIX.4.4|9=93|35=A|34=1|49=TWCL|52=20250211-12:03:02.003|56=ISLD|98=0|108=30|141=Y|553=Amstel|554=BondbloX|10=178|
2025/02/11 12:03:02.107199 8=FIX.4.4|9=74|35=5|34=1|49=ISLD|52=20250211-12:03:02.106|56=TWCL|58=Invalid Credentials|10=046|
2025/02/11 12:03:32.109700 8=FIX.4.4|9=87|35=A|34=2|49=TWCL|52=20250211-12:03:32.109|56=ISLD|98=0|108=30|553=Amstel|554=BondbloX|10=147|
2025/02/11 12:03:32.233013 8=FIX.4.4|9=74|35=5|34=1|49=ISLD|52=20250211-12:03:32.231|56=TWCL|58=Invalid Credentials|10=048|
2025/02/11 12:04:02.236042 8=FIX.4.4|9=87|35=A|34=3|49=TWCL|52=20250211-12:04:02.235|56=ISLD|98=0|108=30|553=Amstel|554=BondbloX|10=146|
2025/02/11 12:04:02.342166 8=FIX.4.4|9=74|35=5|34=1|49=ISLD|52=20250211-12:04:02.340|56=TWCL|58=Invalid Credentials|10=047|
2025/02/11 12:04:32.345245 8=FIX.4.4|9=87|35=A|34=4|49=TWCL|52=20250211-12:04:32.345|56=ISLD|98=0|108=30|553=Amstel|554=BondbloX|10=152|
2025/02/11 12:04:32.528689 8=FIX.4.4|9=74|35=5|34=1|49=ISLD|52=20250211-12:04:32.527|56=TWCL|58=Invalid Credentials|10=057|
2025/02/11 12:05:02.531270 8=FIX.4.4|9=87|35=A|34=5|49=TWCL|52=20250211-12:05:02.531|56=ISLD|98=0|108=30|553=Amstel|554=BondbloX|10=148|
2025/02/11 12:05:02.637074 8=FIX.4.4|9=74|35=5|34=1|49=ISLD|52=20250211-12:05:02.636|56=TWCL|58=Invalid Credentials|10=056|
2025/02/11 12:05:32.639428 8=FIX.4.4|9=87|35=A|34=6|49=TWCL|52=20250211-12:05:32.639|56=ISLD|98=0|108=30|553=Amstel|554=BondbloX|10=161|
2025/02/11 12:05:32.816823 8=FIX.4.4|9=74|35=5|34=1|49=ISLD|52=20250211-12:05:32.816|56=TWCL|58=Invalid Credentials|10=059|
2025/02/11 12:06:02.826245 8=FIX.4.4|9=87|35=A|34=7|49=TWCL|52=20250211-12:06:02.826|56=ISLD|98=0|108=30|553=Amstel|554=BondbloX|10=158|
2025/02/11 12:06:02.929030 8=FIX.4.4|9=74|35=5|34=1|49=ISLD|52=20250211-12:06:02.928|56=TWCL|58=Invalid Credentials|10=061|
2025/02/11 12:06:32.941445 8=FIX.4.4|9=87|35=A|34=8|49=TWCL|52=20250211-12:06:32.941|56=ISLD|98=0|108=30|553=Amstel|554=BondbloX|10=160|
2025/02/11 12:06:33.126296 8=FIX.4.4|9=74|35=5|34=1|49=ISLD|52=20250211-12:06:33.125|56=TWCL|58=Invalid Credentials|10=054|
2025/02/11 12:07:03.129794 8=FIX.4.4|9=87|35=A|34=9|49=TWCL|52=20250211-12:07:03.129|56=ISLD|98=0|108=30|553=Amstel|554=BondbloX|10=158|
2025/02/11 12:07:03.238616 8=FIX.4.4|9=74|35=5|34=1|49=ISLD|52=20250211-12:07:03.237|56=TWCL|58=Invalid Credentials|10=056|
2025/02/11 12:07:33.241503 8=FIX.4.4|9=88|35=A|34=10|49=TWCL|52=20250211-12:07:33.241|56=ISLD|98=0|108=30|553=Amstel|554=BondbloX|10=197|
2025/02/11 12:07:33.415434 8=FIX.4.4|9=74|35=5|34=1|49=ISLD|52=20250211-12:07:33.414|56=TWCL|58=Invalid Credentials|10=056|
2025/02/11 12:08:03.418198 8=FIX.4.4|9=88|35=A|34=11|49=TWCL|52=20250211-12:08:03.418|56=ISLD|98=0|108=30|553=Amstel|554=BondbloX|10=202|
2025/02/11 12:08:03.526371 8=FIX.4.4|9=74|35=5|34=1|49=ISLD|52=20250211-12:08:03.525|56=TWCL|58=Invalid Credentials|10=057|
2025/02/11 12:08:33.529537 8=FIX.4.4|9=88|35=A|34=12|49=TWCL|52=20250211-12:08:33.529|56=ISLD|98=0|108=30|553=Amstel|554=BondbloX|10=209|
2025/02/11 12:08:33.706241 8=FIX.4.4|9=74|35=5|34=1|49=ISLD|52=20250211-12:08:33.705|56=TWCL|58=Invalid Credentials|10=060|
2025/02/11 12:09:03.709016 8=FIX.4.4|9=88|35=A|34=13|49=TWCL|52=20250211-12:09:03.708|56=ISLD|98=0|108=30|553=Amstel|554=BondbloX|10=207|
2025/02/11 12:09:03.811192 8=FIX.4.4|9=74|35=5|34=1|49=ISLD|52=20250211-12:09:03.810|56=TWCL|58=Invalid Credentials|10=055|
2025/02/11 12:09:33.814004 8=FIX.4.4|9=88|35=A|34=14|49=TWCL|52=20250211-12:09:33.813|56=ISLD|98=0|108=30|553=Amstel|554=BondbloX|10=208|
2025/02/11 12:09:34.005712 8=FIX.4.4|9=74|35=5|34=1|49=ISLD|52=20250211-12:09:34.004|56=TWCL|58=Invalid Credentials|10=054|
2025/02/11 12:10:04.009336 8=FIX.4.4|9=88|35=A|34=15|49=TWCL|52=20250211-12:10:04.009|56=ISLD|98=0|108=30|553=Amstel|554=BondbloX|10=196|
2025/02/11 12:10:04.112221 8=FIX.4.4|9=74|35=5|34=1|49=ISLD|52=20250211-12:10:04.111|56=TWCL|58=Invalid Credentials|10=042|
2025/02/11 12:10:34.114663 8=FIX.4.4|9=88|35=A|34=16|49=TWCL|52=20250211-12:10:34.114|56=ISLD|98=0|108=30|553=Amstel|554=BondbloX|10=197|
2025/02/11 12:10:34.293053 8=FIX.4.4|9=74|35=5|34=1|49=ISLD|52=20250211-12:10:34.291|56=TWCL|58=Invalid Credentials|10=054|
2025/02/11 12:11:04.295688 8=FIX.4.4|9=88|35=A|34=17|49=TWCL|52=20250211-12:11:04.295|56=ISLD|98=0|108=30|553=Amstel|554=BondbloX|10=206|
2025/02/11 12:11:04.404052 8=FIX.4.4|9=74|35=5|34=1|49=ISLD|52=20250211-12:11:04.402|56=TWCL|58=Invalid Credentials|10=046|
2025/02/11 12:11:34.406469 8=FIX.4.4|9=88|35=A|34=18|49=TWCL|52=20250211-12:11:34.406|56=ISLD|98=0|108=30|553=Amstel|554=BondbloX|10=204|
2025/02/11 12:11:34.576556 8=FIX.4.4|9=74|35=5|34=1|49=ISLD|52=20250211-12:11:34.575|56=TWCL|58=Invalid Credentials|10=060|
2025/02/11 12:12:04.579401 8=FIX.4.4|9=88|35=A|34=19|49=TWCL|52=20250211-12:12:04.579|56=ISLD|98=0|108=30|553=Amstel|554=BondbloX|10=214|
2025/02/11 12:12:04.685156 8=FIX.4.4|9=74|35=5|34=1|49=ISLD|52=20250211-12:12:04.684|56=TWCL|58=Invalid Credentials|10=059|
2025/02/11 12:12:34.687410 8=FIX.4.4|9=88|35=A|34=20|49=TWCL|52=20250211-12:12:34.687|56=ISLD|98=0|108=30|553=Amstel|554=BondbloX|10=209|
2025/02/11 12:12:34.868419 8=FIX.4.4|9=74|35=5|34=1|49=ISLD|52=20250211-12:12:34.867|56=TWCL|58=Invalid Credentials|10=065|
2025/02/11 12:13:04.872706 8=FIX.4.4|9=88|35=A|34=21|49=TWCL|52=20250211-12:13:04.872|56=ISLD|98=0|108=30|553=Amstel|554=BondbloX|10=204|
2025/02/11 12:13:04.975618 8=FIX.4.4|9=74|35=5|34=1|49=ISLD|52=20250211-12:13:04.975|56=TWCL|58=Invalid Credentials|10=063|
2025/02/11 12:13:34.978387 8=FIX.4.4|9=88|35=A|34=22|49=TWCL|52=20250211-12:13:34.978|56=ISLD|98=0|108=30|553=Amstel|554=BondbloX|10=215|
2025/02/11 12:13:35.158968 8=FIX.4.4|9=74|35=5|34=1|49=ISLD|52=20250211-12:13:35.158|56=TWCL|58=Invalid Credentials|10=060|
2025/02/11 12:14:05.162739 8=FIX.4.4|9=88|35=A|34=23|49=TWCL|52=20250211-12:14:05.162|56=ISLD|98=0|108=30|553=Amstel|554=BondbloX|10=200|
2025/02/11 12:14:05.271638 8=FIX.4.4|9=74|35=5|34=1|49=ISLD|52=20250211-12:14:05.270|56=TWCL|58=Invalid Credentials|10=053|
2025/02/11 12:14:35.274659 8=FIX.4.4|9=88|35=A|34=24|49=TWCL|52=20250211-12:14:35.274|56=ISLD|98=0|108=30|553=Amstel|554=BondbloX|10=208|
2025/02/11 12:14:35.450747 8=FIX.4.4|9=74|35=5|34=1|49=ISLD|52=20250211-12:14:35.449|56=TWCL|58=Invalid Credentials|10=064|
2025/02/11 12:15:05.454496 8=FIX.4.4|9=88|35=A|34=25|49=TWCL|52=20250211-12:15:05.454|56=ISLD|98=0|108=30|553=Amstel|554=BondbloX|10=207|
2025/02/11 12:15:05.557398 8=FIX.4.4|9=74|35=5|34=1|49=ISLD|52=20250211-12:15:05.556|56=TWCL|58=Invalid Credentials|10=061|
2025/02/11 12:15:35.560848 8=FIX.4.4|9=88|35=A|34=26|49=TWCL|52=20250211-12:15:35.560|56=ISLD|98=0|108=30|553=Amstel|554=BondbloX|10=209|
2025/02/11 12:15:35.737080 8=FIX.4.4|9=74|35=5|34=1|49=ISLD|52=20250211-12:15:35.736|56=TWCL|58=Invalid Credentials|10=064|
2025/02/11 12:16:05.740960 8=FIX.4.4|9=88|35=A|34=27|49=TWCL|52=20250211-12:16:05.740|56=ISLD|98=0|108=30|553=Amstel|554=BondbloX|10=208|
2025/02/11 12:16:05.847860 8=FIX.4.4|9=74|35=5|34=1|49=ISLD|52=20250211-12:16:05.846|56=TWCL|58=Invalid Credentials|10=064|
2025/02/11 12:16:35.850657 8=FIX.4.4|9=88|35=A|34=28|49=TWCL|52=20250211-12:16:35.850|56=ISLD|98=0|108=30|553=Amstel|554=BondbloX|10=214|
2025/02/11 12:16:36.036872 8=FIX.4.4|9=74|35=5|34=1|49=ISLD|52=20250211-12:16:36.035|56=TWCL|58=Invalid Credentials|10=058|
2025/02/11 12:17:06.040541 8=FIX.4.4|9=88|35=A|34=29|49=TWCL|52=20250211-12:17:06.040|56=ISLD|98=0|108=30|553=Amstel|554=BondbloX|10=205|
2025/02/11 12:17:06.142253 8=FIX.4.4|9=74|35=5|34=1|49=ISLD|52=20250211-12:17:06.141|56=TWCL|58=Invalid Credentials|10=054|
2025/02/11 12:17:36.146320 8=FIX.4.4|9=88|35=A|34=30|49=TWCL|52=20250211-12:17:36.146|56=ISLD|98=0|108=30|553=Amstel|554=BondbloX|10=207|
2025/02/11 12:17:36.316101 8=FIX.4.4|9=74|35=5|34=1|49=ISLD|52=20250211-12:17:36.315|56=TWCL|58=Invalid Credentials|10=060|
2025/02/11 12:18:06.319649 8=FIX.4.4|9=88|35=A|34=31|49=TWCL|52=20250211-12:18:06.319|56=ISLD|98=0|108=30|553=Amstel|554=BondbloX|10=208|
2025/02/11 12:18:06.446796 8=FIX.4.4|9=74|35=5|34=1|49=ISLD|52=20250211-12:18:06.445|56=TWCL|58=Invalid Credentials|10=062|
2025/02/11 12:18:36.450553 8=FIX.4.4|9=88|35=A|34=32|49=TWCL|52=20250211-12:18:36.450|56=ISLD|98=0|108=30|553=Amstel|554=BondbloX|10=208|
2025/02/11 12:18:36.616138 8=FIX.4.4|9=74|35=5|34=1|49=ISLD|52=20250211-12:18:36.614|56=TWCL|58=Invalid Credentials|10=063|
2025/02/11 12:19:06.621175 8=FIX.4.4|9=88|35=A|34=33|49=TWCL|52=20250211-12:19:06.621|56=ISLD|98=0|108=30|553=Amstel|554=BondbloX|10=207|
2025/02/11 12:19:06.725178 8=FIX.4.4|9=74|35=5|34=1|49=ISLD|52=20250211-12:19:06.724|56=TWCL|58=Invalid Credentials|10=063|
2025/02/11 12:19:36.728759 8=FIX.4.4|9=88|35=A|34=34|49=TWCL|52=20250211-12:19:36.728|56=ISLD|98=0|108=30|553=Amstel|554=BondbloX|10=219|
2025/02/11 12:19:36.900346 8=FIX.4.4|9=74|35=5|34=1|49=ISLD|52=20250211-12:19:36.899|56=TWCL|58=Invalid Credentials|10=079|
2025/02/11 12:20:06.904994 8=FIX.4.4|9=88|35=A|34=35|49=TWCL|52=20250211-12:20:06.904|56=ISLD|98=0|108=30|553=Amstel|554=BondbloX|10=205|
2025/02/11 12:20:07.036807 8=FIX.4.4|9=74|35=5|34=1|49=ISLD|52=20250211-12:20:07.036|56=TWCL|58=Invalid Credentials|10=052|
2025/02/11 12:20:37.040753 8=FIX.4.4|9=88|35=A|34=36|49=TWCL|52=20250211-12:20:37.040|56=ISLD|98=0|108=30|553=Amstel|554=BondbloX|10=201|
2025/02/11 12:20:37.195963 8=FIX.4.4|9=74|35=5|34=1|49=ISLD|52=20250211-12:20:37.194|56=TWCL|58=Invalid Credentials|10=060|
2025/02/11 12:21:07.195799 8=FIX.4.4|9=88|35=A|34=37|49=TWCL|52=20250211-12:21:07.195|56=ISLD|98=0|108=30|553=Amstel|554=BondbloX|10=211|
2025/02/11 12:21:07.300235 8=FIX.4.4|9=74|35=5|34=1|49=ISLD|52=20250211-12:21:07.299|56=TWCL|58=Invalid Credentials|10=064|
2025/02/11 12:21:37.297781 8=FIX.4.4|9=88|35=A|34=38|49=TWCL|52=20250211-12:21:37.297|56=ISLD|98=0|108=30|553=Amstel|554=BondbloX|10=218|
2025/02/11 12:21:37.483125 8=FIX.4.4|9=74|35=5|34=1|49=ISLD|52=20250211-12:21:37.482|56=TWCL|58=Invalid Credentials|10=061|
