2025/02/20 03:17:18.114075 8=FIX.4.4|9=93|35=A|34=1|49=WF|52=20250220-03:17:18.113|56=AMSTEL|98=0|108=30|141=Y|553=Amstel|554=BondbloX|10=189|
2025/02/20 03:17:32.118973 8=FIX.4.4|9=93|35=A|34=1|49=WF|52=20250220-03:17:32.118|56=AMSTEL|98=0|108=30|141=Y|553=Amstel|554=BondbloX|10=190|
2025/02/20 03:17:32.175333 8=FIX.4.4|9=69|35=A|34=1|49=AMSTEL|52=20250220-03:17:32.190|56=WF|98=0|108=30|141=Y|10=140|
