2025/02/11 12:22:09.083234 8=FIX.4.4|9=93|35=A|34=1|49=HSBC|52=20250211-12:22:09.082|56=ISLD|98=0|108=30|141=Y|553=Amstel|554=BondbloX|10=167|
2025/02/11 12:22:09.140559 8=FIX.4.4|9=69|35=A|34=1|49=ISLD|52=20250211-12:22:09.187|56=HSBC|98=0|108=30|141=Y|10=123|
2025/02/11 12:22:34.526429 8=FIX.4.4|9=75|35=x|34=2|49=HSBC|52=20250211-12:22:34.526|56=ISLD|320=SECURITYREQID|559=4|10=058|
2025/02/11 12:22:34.599604 8=FIX.4.4|9=4025|35=y|34=2|49=ISLD|52=20250211-12:22:34.634|56=HSBC|146=245|55=XS2382032956|55=USY20721BG36|55=XS2099045515|55=XS2099372802|55=XS2050614796|55=XS2258819874|55=XS2388867751|55=USY7133MAC39|55=XS2169280919|55=USY7140WAE85|55=US71567RAD89|55=USY8137FAC24|55=XS1268430201|55=XS1681502537|55=XS1891336932|55=XS2093792013|55=USY8137FAE89|55=USY39690AA30|55=USY20721BN86|55=XS2199575569|55=XS2787477277|55=XS2279432384|55=XS2291793573|55=US69370RAK32|55=XS2313088739|55=US71567RAF38|55=XS2577785921|55=XS2322319398|55=XS2340901607|55=US71567RAR75|55=USY8137FAF54|55=USY708CHAB61|55=USN5276YAD87|55=XS2012546714|55=XS2219433765|55=USY20721BQ18|55=XS2744911756|55=USY56607AA51|55=XS2100404396|55=XS2314514477|55=XS2068075980|55=XS2301051541|55=XS2344284893|55=USY6142NAC21|55=US71567RAN61|55=US71567RAH93|55=XS2099273737|55=XS1810775145|55=USY7141BAA18|55=USY8137FAH11|55=XS2207510319|55=USY6142NAF51|55=XS2399476972|55=XS2407048623|55=XS2189919637|55=XS2202749003|55=US455780CD62|55=US455780DQ66|55=USY6142NAG35|55=XS0972298300|55=USY8137FAL23|55=US455780CF11|55=XS2327392234|55=XS2099563228|55=XS1432493440|55=XS2191510713|55=USY59500AA95|55=USY7140WAC20|55=US71567RAX44|55=XS2194913443|55=XS2198145422|55=US71568QAG29|55=XS2419405274|55=US455780CH76|55=US71567RAM88|55=XS2774954650|55=US455780DT06|55=USY8137FAP37|55=XS2774954577|55=XS2209978639|55=XS2208939368|55=USY6142NAH18|55=XS2330597738|55=USY68613AA90|55=US71568QAJ67|55=XS2366690332|55=XS2223798229|55=XS2207510582|55=XS1729875598|55=XS2199718003|55=US71568QAC15|55=US71567RAK23|55=US71567RAU05|55=XS2334361271|55=XS2390472624|55=USY20721BT56|55=XS2104985598|55=US69370RAD98|55=US455780CK06|55=XS1991219442|55=XS2334361354|55=US718286CK14|55=US71568QAL14|55=US455780CQ75|55=USY8137FAR92|55=US718286CN52|55=USY7141MAA72|55=USY7140WAF50|55=US718286AP29|55=US71567RAP10|55=US718286CJ41|55=US71568QAN79|55=US718286CL96|55=US718286CH84|55=US718286CC97|55=USN57445AA17|55=US455780CS32|55=US718286CP01|55=US718286CQ83|55=US69370RAL15|55=US718286CR66|55=XS2322319638|55=XS2349180104|55=US71567RAS58|55=USY6142NAE86|55=XS2069959398|55=US718286CG02|55=US718286BZ91|55=USY6972HLP91|55=USY7141BAB90|55=XS2399787899|55=US455780DN36|55=US718286DE45|55=US455780DR40|55=XS2280331898|55=US718286CY18|55=US69370RAH03|55=US69370RAF47|55=US455780CV60|55=XS2334361511|55=US718286CB15|55=US718286CA32|55=US455780DJ24|55=US455780CY00|55=US718286CW51|55=US71567RAY27|55=US455780DU78|55=US718286BW60|55=XS2387734317|55=USY7329CAA37|55=USY68613AB73|55=US455780DX18|55=US718286DD61|55=US718286DA23|55=USY20721AE96|55=US718286BN61|55=USN54360AD95|55=USN57445AB99|55=USY20721AL30|55=US718286CX35|55=US718286DB06|55=US718286CT23|55=USY7138AAB62|55=USY20721BB49|55=US718286CU95|55=USY7138AAD29|55=US71568QAB32|55=USY20721BE87|55=USY7138AAF76|55=USY20721BK48|55=US69370RAA59|55=USY20721BM04|55=US718286BD89|55=USY7133MAB55|55=US718286BG11|55=USY20721BP35|55=USY20721BR90|55=US718286AY36|55=USY20721BU20|55=XS2921409756|55=US455780CE46|55=USY7140WAD03|55=US71568QAH02|55=US455780CJ33|55=US71568QAK31|55=US69370RAE71|55=USY51478AA66|55=US71568QAF46|55=US71568QAD97|55=US637193BA03|55=US718286CV78|55=US718286BB24|55=USY7083VAD11|55=XS2690996827|55=US455780CN45|55=US71568QAM96|55=USY7140WAG34|55=XS2219370660|55=US71568QAP28|55=US455780CT15|55=US71567RAT32|55=US455780DK96|55=USY7141BAC73|55=XS2399788277|55=US455780DP83|55=US455780DS23|55=US455780DV51|55=USY68613AC56|55=US455780CU87|55=PH0000057598|55=XS2813319816|55=XS2346954873|55=XS2385923722|55=XS2098881654|55=XS2072777381|55=XS2239056174|55=XS2207320701|55=XS2862924532|55=XS2191367734|55=XS2244367269|55=USY20721AJ83|55=XS2314639761|55=XS2343321399|55=XS2322321964|55=USY7140EAA65|55=US69370RAC16|55=US71567RAQ92|55=XS2191367494|55=US71567RAV87|55=US69370RAJ68|55=US69370RAG20|55=US455780CR58|55=US455780DW35|55=US455780CX27|55=PHY7998PAB23|55=PHY7998PAA40|55=XS2205566206|55=XS2758096759|55=US455780DG84|55=US059891AA97|55=US455780CW44|55=US718286DC88|55=XS1506085114|55=US455780DM52|55=XS2785437901|320=SECURITYREQID|322=SECURITYREQIDRESP|560=0|10=245|
2025/02/11 12:23:04.528245 8=FIX.4.4|9=51|35=0|34=3|49=HSBC|52=20250211-12:23:04.527|56=ISLD|10=023|
2025/02/11 12:23:04.595995 8=FIX.4.4|9=51|35=0|34=3|49=ISLD|52=20250211-12:23:04.643|56=HSBC|10=022|
2025/02/11 12:23:34.529975 8=FIX.4.4|9=51|35=0|34=4|49=HSBC|52=20250211-12:23:34.529|56=ISLD|10=029|
2025/02/11 12:23:34.597527 8=FIX.4.4|9=51|35=0|34=4|49=ISLD|52=20250211-12:23:34.644|56=HSBC|10=027|
2025/02/11 12:24:04.532421 8=FIX.4.4|9=51|35=0|34=5|49=HSBC|52=20250211-12:24:04.532|56=ISLD|10=022|
2025/02/11 12:24:04.597563 8=FIX.4.4|9=51|35=0|34=5|49=ISLD|52=20250211-12:24:04.644|56=HSBC|10=026|
2025/02/11 12:24:34.534737 8=FIX.4.4|9=51|35=0|34=6|49=HSBC|52=20250211-12:24:34.534|56=ISLD|10=028|
2025/02/11 12:24:34.600128 8=FIX.4.4|9=51|35=0|34=6|49=ISLD|52=20250211-12:24:34.645|56=HSBC|10=031|
2025/02/11 12:25:04.537312 8=FIX.4.4|9=51|35=0|34=7|49=HSBC|52=20250211-12:25:04.537|56=ISLD|10=030|
2025/02/11 12:25:04.602159 8=FIX.4.4|9=51|35=0|34=7|49=ISLD|52=20250211-12:25:04.646|56=HSBC|10=031|
2025/02/11 12:25:34.539683 8=FIX.4.4|9=51|35=0|34=8|49=HSBC|52=20250211-12:25:34.539|56=ISLD|10=036|
2025/02/11 12:25:34.604167 8=FIX.4.4|9=51|35=0|34=8|49=ISLD|52=20250211-12:25:34.649|56=HSBC|10=038|
2025/02/11 12:26:00.085030 8=FIX.4.4|9=93|35=A|34=1|49=HSBC|52=20250211-12:26:00.084|56=ISLD|98=0|108=30|141=Y|553=Amstel|554=BondbloX|10=164|
2025/02/11 12:26:00.147984 8=FIX.4.4|9=69|35=A|34=1|49=ISLD|52=20250211-12:26:00.191|56=HSBC|98=0|108=30|141=Y|10=113|
2025/02/11 12:26:30.086982 8=FIX.4.4|9=51|35=0|34=2|49=HSBC|52=20250211-12:26:30.086|56=ISLD|10=024|
2025/02/11 12:26:30.148803 8=FIX.4.4|9=51|35=0|34=2|49=ISLD|52=20250211-12:26:30.195|56=HSBC|10=025|
2025/02/11 12:26:44.124036 8=FIX.4.4|9=93|35=A|34=1|49=HSBC|52=20250211-12:26:44.123|56=ISLD|98=0|108=30|141=Y|553=Amstel|554=BondbloX|10=166|
2025/02/11 12:26:44.179525 8=FIX.4.4|9=69|35=A|34=1|49=ISLD|52=20250211-12:26:44.226|56=HSBC|98=0|108=30|141=Y|10=120|
2025/02/11 12:27:05.654518 8=FIX.4.4|9=75|35=x|34=2|49=HSBC|52=20250211-12:27:05.654|56=ISLD|320=SECURITYREQID|559=4|10=063|
2025/02/11 12:27:05.724282 8=FIX.4.4|9=4025|35=y|34=2|49=ISLD|52=20250211-12:27:05.760|56=HSBC|146=245|55=XS2382032956|55=USY20721BG36|55=XS2099045515|55=XS2099372802|55=XS2050614796|55=XS2258819874|55=XS2388867751|55=USY7133MAC39|55=XS2169280919|55=USY7140WAE85|55=US71567RAD89|55=USY8137FAC24|55=XS1268430201|55=XS1681502537|55=XS1891336932|55=XS2093792013|55=USY8137FAE89|55=USY39690AA30|55=USY20721BN86|55=XS2199575569|55=XS2787477277|55=XS2279432384|55=XS2291793573|55=US69370RAK32|55=XS2313088739|55=US71567RAF38|55=XS2577785921|55=XS2322319398|55=XS2340901607|55=US71567RAR75|55=USY8137FAF54|55=USY708CHAB61|55=USN5276YAD87|55=XS2012546714|55=XS2219433765|55=USY20721BQ18|55=XS2744911756|55=USY56607AA51|55=XS2100404396|55=XS2314514477|55=XS2068075980|55=XS2301051541|55=XS2344284893|55=USY6142NAC21|55=US71567RAN61|55=US71567RAH93|55=XS2099273737|55=XS1810775145|55=USY7141BAA18|55=USY8137FAH11|55=XS2207510319|55=USY6142NAF51|55=XS2399476972|55=XS2407048623|55=XS2189919637|55=XS2202749003|55=US455780CD62|55=US455780DQ66|55=USY6142NAG35|55=XS0972298300|55=USY8137FAL23|55=US455780CF11|55=XS2327392234|55=XS2099563228|55=XS1432493440|55=XS2191510713|55=USY59500AA95|55=USY7140WAC20|55=US71567RAX44|55=XS2194913443|55=XS2198145422|55=US71568QAG29|55=XS2419405274|55=US455780CH76|55=US71567RAM88|55=XS2774954650|55=US455780DT06|55=USY8137FAP37|55=XS2774954577|55=XS2209978639|55=XS2208939368|55=USY6142NAH18|55=XS2330597738|55=USY68613AA90|55=US71568QAJ67|55=XS2366690332|55=XS2223798229|55=XS2207510582|55=XS1729875598|55=XS2199718003|55=US71568QAC15|55=US71567RAK23|55=US71567RAU05|55=XS2334361271|55=XS2390472624|55=USY20721BT56|55=XS2104985598|55=US69370RAD98|55=US455780CK06|55=XS1991219442|55=XS2334361354|55=US718286CK14|55=US71568QAL14|55=US455780CQ75|55=USY8137FAR92|55=US718286CN52|55=USY7141MAA72|55=USY7140WAF50|55=US718286AP29|55=US71567RAP10|55=US718286CJ41|55=US71568QAN79|55=US718286CL96|55=US718286CH84|55=US718286CC97|55=USN57445AA17|55=US455780CS32|55=US718286CP01|55=US718286CQ83|55=US69370RAL15|55=US718286CR66|55=XS2322319638|55=XS2349180104|55=US71567RAS58|55=USY6142NAE86|55=XS2069959398|55=US718286CG02|55=US718286BZ91|55=USY6972HLP91|55=USY7141BAB90|55=XS2399787899|55=US455780DN36|55=US718286DE45|55=US455780DR40|55=XS2280331898|55=US718286CY18|55=US69370RAH03|55=US69370RAF47|55=US455780CV60|55=XS2334361511|55=US718286CB15|55=US718286CA32|55=US455780DJ24|55=US455780CY00|55=US718286CW51|55=US71567RAY27|55=US455780DU78|55=US718286BW60|55=XS2387734317|55=USY7329CAA37|55=USY68613AB73|55=US455780DX18|55=US718286DD61|55=US718286DA23|55=USY20721AE96|55=US718286BN61|55=USN54360AD95|55=USN57445AB99|55=USY20721AL30|55=US718286CX35|55=US718286DB06|55=US718286CT23|55=USY7138AAB62|55=USY20721BB49|55=US718286CU95|55=USY7138AAD29|55=US71568QAB32|55=USY20721BE87|55=USY7138AAF76|55=USY20721BK48|55=US69370RAA59|55=USY20721BM04|55=US718286BD89|55=USY7133MAB55|55=US718286BG11|55=USY20721BP35|55=USY20721BR90|55=US718286AY36|55=USY20721BU20|55=XS2921409756|55=US455780CE46|55=USY7140WAD03|55=US71568QAH02|55=US455780CJ33|55=US71568QAK31|55=US69370RAE71|55=USY51478AA66|55=US71568QAF46|55=US71568QAD97|55=US637193BA03|55=US718286CV78|55=US718286BB24|55=USY7083VAD11|55=XS2690996827|55=US455780CN45|55=US71568QAM96|55=USY7140WAG34|55=XS2219370660|55=US71568QAP28|55=US455780CT15|55=US71567RAT32|55=US455780DK96|55=USY7141BAC73|55=XS2399788277|55=US455780DP83|55=US455780DS23|55=US455780DV51|55=USY68613AC56|55=US455780CU87|55=PH0000057598|55=XS2813319816|55=XS2346954873|55=XS2385923722|55=XS2098881654|55=XS2072777381|55=XS2239056174|55=XS2207320701|55=XS2862924532|55=XS2191367734|55=XS2244367269|55=USY20721AJ83|55=XS2314639761|55=XS2343321399|55=XS2322321964|55=USY7140EAA65|55=US69370RAC16|55=US71567RAQ92|55=XS2191367494|55=US71567RAV87|55=US69370RAJ68|55=US69370RAG20|55=US455780CR58|55=US455780DW35|55=US455780CX27|55=PHY7998PAB23|55=PHY7998PAA40|55=XS2205566206|55=XS2758096759|55=US455780DG84|55=US059891AA97|55=US455780CW44|55=US718286DC88|55=XS1506085114|55=US455780DM52|55=XS2785437901|320=SECURITYREQID|322=SECURITYREQIDRESP|560=0|10=248|
2025/02/11 12:27:35.656065 8=FIX.4.4|9=51|35=0|34=3|49=HSBC|52=20250211-12:27:35.655|56=ISLD|10=033|
2025/02/11 12:27:35.726814 8=FIX.4.4|9=51|35=0|34=3|49=ISLD|52=20250211-12:27:35.771|56=HSBC|10=032|
2025/02/11 12:28:05.657841 8=FIX.4.4|9=51|35=0|34=4|49=HSBC|52=20250211-12:28:05.657|56=ISLD|10=034|
2025/02/11 12:28:05.726293 8=FIX.4.4|9=51|35=0|34=4|49=ISLD|52=20250211-12:28:05.772|56=HSBC|10=032|
2025/02/11 12:28:35.659276 8=FIX.4.4|9=51|35=0|34=5|49=HSBC|52=20250211-12:28:35.659|56=ISLD|10=040|
2025/02/11 12:28:35.743608 8=FIX.4.4|9=51|35=0|34=5|49=ISLD|52=20250211-12:28:35.772|56=HSBC|10=036|
2025/02/11 12:29:05.660868 8=FIX.4.4|9=51|35=0|34=6|49=HSBC|52=20250211-12:29:05.660|56=ISLD|10=031|
2025/02/11 12:29:05.737807 8=FIX.4.4|9=51|35=0|34=6|49=ISLD|52=20250211-12:29:05.774|56=HSBC|10=037|
2025/02/11 12:29:35.662753 8=FIX.4.4|9=51|35=0|34=7|49=HSBC|52=20250211-12:29:35.662|56=ISLD|10=037|
2025/02/11 12:29:35.732060 8=FIX.4.4|9=51|35=0|34=7|49=ISLD|52=20250211-12:29:35.777|56=HSBC|10=044|
2025/02/11 12:29:52.274118 8=FIX.4.4|9=75|35=x|34=8|49=HSBC|52=20250211-12:29:52.273|56=ISLD|320=SECURITYREQID|559=4|10=070|
2025/02/11 12:29:52.345034 8=FIX.4.4|9=4025|35=y|34=8|49=ISLD|52=20250211-12:29:52.383|56=HSBC|146=245|55=XS2382032956|55=USY20721BG36|55=XS2099045515|55=XS2099372802|55=XS2050614796|55=XS2258819874|55=XS2388867751|55=USY7133MAC39|55=XS2169280919|55=USY7140WAE85|55=US71567RAD89|55=USY8137FAC24|55=XS1268430201|55=XS1681502537|55=XS1891336932|55=XS2093792013|55=USY8137FAE89|55=USY39690AA30|55=USY20721BN86|55=XS2199575569|55=XS2787477277|55=XS2279432384|55=XS2291793573|55=US69370RAK32|55=XS2313088739|55=US71567RAF38|55=XS2577785921|55=XS2322319398|55=XS2340901607|55=US71567RAR75|55=USY8137FAF54|55=USY708CHAB61|55=USN5276YAD87|55=XS2012546714|55=XS2219433765|55=USY20721BQ18|55=XS2744911756|55=USY56607AA51|55=XS2100404396|55=XS2314514477|55=XS2068075980|55=XS2301051541|55=XS2344284893|55=USY6142NAC21|55=US71567RAN61|55=US71567RAH93|55=XS2099273737|55=XS1810775145|55=USY7141BAA18|55=USY8137FAH11|55=XS2207510319|55=USY6142NAF51|55=XS2399476972|55=XS2407048623|55=XS2189919637|55=XS2202749003|55=US455780CD62|55=US455780DQ66|55=USY6142NAG35|55=XS0972298300|55=USY8137FAL23|55=US455780CF11|55=XS2327392234|55=XS2099563228|55=XS1432493440|55=XS2191510713|55=USY59500AA95|55=USY7140WAC20|55=US71567RAX44|55=XS2194913443|55=XS2198145422|55=US71568QAG29|55=XS2419405274|55=US455780CH76|55=US71567RAM88|55=XS2774954650|55=US455780DT06|55=USY8137FAP37|55=XS2774954577|55=XS2209978639|55=XS2208939368|55=USY6142NAH18|55=XS2330597738|55=USY68613AA90|55=US71568QAJ67|55=XS2366690332|55=XS2223798229|55=XS2207510582|55=XS1729875598|55=XS2199718003|55=US71568QAC15|55=US71567RAK23|55=US71567RAU05|55=XS2334361271|55=XS2390472624|55=USY20721BT56|55=XS2104985598|55=US69370RAD98|55=US455780CK06|55=XS1991219442|55=XS2334361354|55=US718286CK14|55=US71568QAL14|55=US455780CQ75|55=USY8137FAR92|55=US718286CN52|55=USY7141MAA72|55=USY7140WAF50|55=US718286AP29|55=US71567RAP10|55=US718286CJ41|55=US71568QAN79|55=US718286CL96|55=US718286CH84|55=US718286CC97|55=USN57445AA17|55=US455780CS32|55=US718286CP01|55=US718286CQ83|55=US69370RAL15|55=US718286CR66|55=XS2322319638|55=XS2349180104|55=US71567RAS58|55=USY6142NAE86|55=XS2069959398|55=US718286CG02|55=US718286BZ91|55=USY6972HLP91|55=USY7141BAB90|55=XS2399787899|55=US455780DN36|55=US718286DE45|55=US455780DR40|55=XS2280331898|55=US718286CY18|55=US69370RAH03|55=US69370RAF47|55=US455780CV60|55=XS2334361511|55=US718286CB15|55=US718286CA32|55=US455780DJ24|55=US455780CY00|55=US718286CW51|55=US71567RAY27|55=US455780DU78|55=US718286BW60|55=XS2387734317|55=USY7329CAA37|55=USY68613AB73|55=US455780DX18|55=US718286DD61|55=US718286DA23|55=USY20721AE96|55=US718286BN61|55=USN54360AD95|55=USN57445AB99|55=USY20721AL30|55=US718286CX35|55=US718286DB06|55=US718286CT23|55=USY7138AAB62|55=USY20721BB49|55=US718286CU95|55=USY7138AAD29|55=US71568QAB32|55=USY20721BE87|55=USY7138AAF76|55=USY20721BK48|55=US69370RAA59|55=USY20721BM04|55=US718286BD89|55=USY7133MAB55|55=US718286BG11|55=USY20721BP35|55=USY20721BR90|55=US718286AY36|55=USY20721BU20|55=XS2921409756|55=US455780CE46|55=USY7140WAD03|55=US71568QAH02|55=US455780CJ33|55=US71568QAK31|55=US69370RAE71|55=USY51478AA66|55=US71568QAF46|55=US71568QAD97|55=US637193BA03|55=US718286CV78|55=US718286BB24|55=USY7083VAD11|55=XS2690996827|55=US455780CN45|55=US71568QAM96|55=USY7140WAG34|55=XS2219370660|55=US71568QAP28|55=US455780CT15|55=US71567RAT32|55=US455780DK96|55=USY7141BAC73|55=XS2399788277|55=US455780DP83|55=US455780DS23|55=US455780DV51|55=USY68613AC56|55=US455780CU87|55=PH0000057598|55=XS2813319816|55=XS2346954873|55=XS2385923722|55=XS2098881654|55=XS2072777381|55=XS2239056174|55=XS2207320701|55=XS2862924532|55=XS2191367734|55=XS2244367269|55=USY20721AJ83|55=XS2314639761|55=XS2343321399|55=XS2322321964|55=USY7140EAA65|55=US69370RAC16|55=US71567RAQ92|55=XS2191367494|55=US71567RAV87|55=US69370RAJ68|55=US69370RAG20|55=US455780CR58|55=US455780DW35|55=US455780CX27|55=PHY7998PAB23|55=PHY7998PAA40|55=XS2205566206|55=XS2758096759|55=US455780DG84|55=US059891AA97|55=US455780CW44|55=US718286DC88|55=XS1506085114|55=US455780DM52|55=XS2785437901|320=SECURITYREQID|322=SECURITYREQIDRESP|560=0|10=003|
2025/02/11 12:30:22.276205 8=FIX.4.4|9=51|35=0|34=9|49=HSBC|52=20250211-12:30:22.275|56=ISLD|10=027|
2025/02/11 12:30:22.342855 8=FIX.4.4|9=51|35=0|34=9|49=ISLD|52=20250211-12:30:22.388|56=HSBC|10=032|
2025/02/11 12:40:29.075630 8=FIX.4.4|9=93|35=A|34=1|49=HSBC|52=20250211-12:40:29.075|56=ISLD|98=0|108=30|141=Y|553=Amstel|554=BondbloX|10=171|
2025/02/11 12:40:29.148997 8=FIX.4.4|9=69|35=A|34=1|49=ISLD|52=20250211-12:40:29.171|56=HSBC|98=0|108=30|141=Y|10=118|
2025/02/11 12:40:59.077473 8=FIX.4.4|9=51|35=0|34=2|49=HSBC|52=20250211-12:40:59.077|56=ISLD|10=031|
2025/02/11 12:40:59.164761 8=FIX.4.4|9=51|35=0|34=2|49=ISLD|52=20250211-12:40:59.177|56=HSBC|10=032|
2025/02/11 12:41:29.079902 8=FIX.4.4|9=51|35=0|34=3|49=HSBC|52=20250211-12:41:29.079|56=ISLD|10=032|
2025/02/11 12:41:29.152472 8=FIX.4.4|9=51|35=0|34=3|49=ISLD|52=20250211-12:41:29.178|56=HSBC|10=032|
2025/02/11 12:41:42.057022 8=FIX.4.4|9=93|35=A|34=1|49=HSBC|52=20250211-12:41:42.056|56=ISLD|98=0|108=30|141=Y|553=Amstel|554=BondbloX|10=166|
2025/02/11 12:41:42.157275 8=FIX.4.4|9=69|35=A|34=1|49=ISLD|52=20250211-12:41:42.174|56=HSBC|98=0|108=30|141=Y|10=117|
2025/02/11 12:42:12.058601 8=FIX.4.4|9=51|35=0|34=2|49=HSBC|52=20250211-12:42:12.058|56=ISLD|10=021|
2025/02/11 12:42:12.148428 8=FIX.4.4|9=51|35=0|34=2|49=ISLD|52=20250211-12:42:12.175|56=HSBC|10=021|
2025/02/11 12:42:42.061151 8=FIX.4.4|9=51|35=0|34=3|49=HSBC|52=20250211-12:42:42.061|56=ISLD|10=019|
2025/02/11 12:42:42.150938 8=FIX.4.4|9=51|35=0|34=3|49=ISLD|52=20250211-12:42:42.176|56=HSBC|10=026|
2025/02/11 12:43:12.062605 8=FIX.4.4|9=51|35=0|34=4|49=HSBC|52=20250211-12:43:12.062|56=ISLD|10=019|
2025/02/11 12:43:12.151069 8=FIX.4.4|9=51|35=0|34=4|49=ISLD|52=20250211-12:43:12.177|56=HSBC|10=026|
2025/02/11 12:43:42.064174 8=FIX.4.4|9=51|35=0|34=5|49=HSBC|52=20250211-12:43:42.064|56=ISLD|10=025|
2025/02/11 12:43:42.219923 8=FIX.4.4|9=51|35=0|34=5|49=ISLD|52=20250211-12:43:42.177|56=HSBC|10=030|
2025/02/11 12:44:12.065657 8=FIX.4.4|9=51|35=0|34=6|49=HSBC|52=20250211-12:44:12.065|56=ISLD|10=025|
2025/02/11 12:44:12.157290 8=FIX.4.4|9=51|35=0|34=6|49=ISLD|52=20250211-12:44:12.178|56=HSBC|10=030|
2025/02/11 12:44:42.066597 8=FIX.4.4|9=51|35=0|34=7|49=HSBC|52=20250211-12:44:42.066|56=ISLD|10=030|
2025/02/11 12:44:42.153139 8=FIX.4.4|9=51|35=0|34=7|49=ISLD|52=20250211-12:44:42.179|56=HSBC|10=035|
2025/02/11 12:45:12.068181 8=FIX.4.4|9=51|35=0|34=8|49=HSBC|52=20250211-12:45:12.068|56=ISLD|10=031|
2025/02/11 12:45:12.154165 8=FIX.4.4|9=51|35=0|34=8|49=ISLD|52=20250211-12:45:12.179|56=HSBC|10=034|
2025/02/11 12:45:42.069701 8=FIX.4.4|9=51|35=0|34=9|49=HSBC|52=20250211-12:45:42.069|56=ISLD|10=036|
2025/02/11 12:45:42.155507 8=FIX.4.4|9=51|35=0|34=9|49=ISLD|52=20250211-12:45:42.180|56=HSBC|10=030|
2025/02/11 12:46:12.071223 8=FIX.4.4|9=52|35=0|34=10|49=HSBC|52=20250211-12:46:12.071|56=ISLD|10=068|
2025/02/11 12:46:12.160435 8=FIX.4.4|9=52|35=0|34=10|49=ISLD|52=20250211-12:46:12.181|56=HSBC|10=070|
2025/02/11 12:46:42.072704 8=FIX.4.4|9=52|35=0|34=11|49=HSBC|52=20250211-12:46:42.072|56=ISLD|10=073|
2025/02/11 12:46:42.156705 8=FIX.4.4|9=52|35=0|34=11|49=ISLD|52=20250211-12:46:42.182|56=HSBC|10=075|
2025/02/11 12:47:12.075237 8=FIX.4.4|9=52|35=0|34=12|49=HSBC|52=20250211-12:47:12.075|56=ISLD|10=075|
2025/02/11 12:47:12.158074 8=FIX.4.4|9=52|35=0|34=12|49=ISLD|52=20250211-12:47:12.183|56=HSBC|10=075|
2025/02/11 12:47:42.077685 8=FIX.4.4|9=52|35=0|34=13|49=HSBC|52=20250211-12:47:42.077|56=ISLD|10=081|
2025/02/11 12:47:42.158878 8=FIX.4.4|9=52|35=0|34=13|49=ISLD|52=20250211-12:47:42.183|56=HSBC|10=079|
2025/02/11 12:48:12.080246 8=FIX.4.4|9=52|35=0|34=14|49=HSBC|52=20250211-12:48:12.080|56=ISLD|10=074|
2025/02/11 12:48:12.216046 8=FIX.4.4|9=52|35=0|34=14|49=ISLD|52=20250211-12:48:12.184|56=HSBC|10=079|
2025/02/11 12:48:42.082834 8=FIX.4.4|9=52|35=0|34=15|49=HSBC|52=20250211-12:48:42.082|56=ISLD|10=080|
2025/02/11 12:48:42.164126 8=FIX.4.4|9=52|35=0|34=15|49=ISLD|52=20250211-12:48:42.185|56=HSBC|10=084|
2025/02/11 12:49:12.085406 8=FIX.4.4|9=52|35=0|34=16|49=HSBC|52=20250211-12:49:12.085|56=ISLD|10=082|
2025/02/11 12:49:12.162192 8=FIX.4.4|9=52|35=0|34=16|49=ISLD|52=20250211-12:49:12.186|56=HSBC|10=084|
2025/02/11 12:49:42.087960 8=FIX.4.4|9=52|35=0|34=17|49=HSBC|52=20250211-12:49:42.087|56=ISLD|10=088|
2025/02/11 12:49:42.162290 8=FIX.4.4|9=52|35=0|34=17|49=ISLD|52=20250211-12:49:42.186|56=HSBC|10=088|
2025/02/11 12:50:12.090480 8=FIX.4.4|9=52|35=0|34=18|49=HSBC|52=20250211-12:50:12.090|56=ISLD|10=072|
2025/02/11 12:50:12.166019 8=FIX.4.4|9=52|35=0|34=18|49=ISLD|52=20250211-12:50:12.187|56=HSBC|10=079|
2025/02/11 12:50:42.092041 8=FIX.4.4|9=52|35=0|34=19|49=HSBC|52=20250211-12:50:42.091|56=ISLD|10=077|
2025/02/11 12:50:42.165320 8=FIX.4.4|9=52|35=0|34=19|49=ISLD|52=20250211-12:50:42.188|56=HSBC|10=084|
2025/02/11 12:51:12.095711 8=FIX.4.4|9=52|35=0|34=20|49=HSBC|52=20250211-12:51:12.095|56=ISLD|10=071|
2025/02/11 12:51:12.171989 8=FIX.4.4|9=52|35=0|34=20|49=ISLD|52=20250211-12:51:12.190|56=HSBC|10=067|
2025/02/11 12:51:42.106818 8=FIX.4.4|9=52|35=0|34=21|49=HSBC|52=20250211-12:51:42.106|56=ISLD|10=068|
2025/02/11 12:51:42.178660 8=FIX.4.4|9=52|35=0|34=21|49=ISLD|52=20250211-12:51:42.191|56=HSBC|10=072|
2025/02/11 12:52:12.110591 8=FIX.4.4|9=52|35=0|34=22|49=HSBC|52=20250211-12:52:12.110|56=ISLD|10=062|
2025/02/11 12:52:12.187027 8=FIX.4.4|9=52|35=0|34=22|49=ISLD|52=20250211-12:52:12.192|56=HSBC|10=072|
2025/02/11 12:52:42.111603 8=FIX.4.4|9=52|35=0|34=23|49=HSBC|52=20250211-12:52:42.111|56=ISLD|10=067|
2025/02/11 12:52:42.231002 8=FIX.4.4|9=52|35=0|34=23|49=ISLD|52=20250211-12:52:42.199|56=HSBC|10=083|
2025/02/11 12:53:12.114171 8=FIX.4.4|9=52|35=0|34=24|49=HSBC|52=20250211-12:53:12.114|56=ISLD|10=069|
2025/02/11 12:53:12.188807 8=FIX.4.4|9=52|35=0|34=24|49=ISLD|52=20250211-12:53:12.200|56=HSBC|10=065|
2025/02/11 12:53:42.116733 8=FIX.4.4|9=52|35=0|34=25|49=HSBC|52=20250211-12:53:42.116|56=ISLD|10=075|
2025/02/11 12:53:42.190020 8=FIX.4.4|9=52|35=0|34=25|49=ISLD|52=20250211-12:53:42.201|56=HSBC|10=070|
2025/02/11 12:54:12.119174 8=FIX.4.4|9=52|35=0|34=26|49=HSBC|52=20250211-12:54:12.119|56=ISLD|10=077|
2025/02/11 12:54:12.194268 8=FIX.4.4|9=52|35=0|34=26|49=ISLD|52=20250211-12:54:12.202|56=HSBC|10=070|
2025/02/11 12:54:42.121789 8=FIX.4.4|9=52|35=0|34=27|49=HSBC|52=20250211-12:54:42.121|56=ISLD|10=074|
2025/02/11 12:54:42.191962 8=FIX.4.4|9=52|35=0|34=27|49=ISLD|52=20250211-12:54:42.202|56=HSBC|10=074|
2025/02/11 12:55:12.124817 8=FIX.4.4|9=52|35=0|34=28|49=HSBC|52=20250211-12:55:12.124|56=ISLD|10=076|
2025/02/11 12:55:12.194584 8=FIX.4.4|9=52|35=0|34=28|49=ISLD|52=20250211-12:55:12.203|56=HSBC|10=074|
2025/02/11 12:55:42.127390 8=FIX.4.4|9=52|35=0|34=29|49=HSBC|52=20250211-12:55:42.127|56=ISLD|10=083|
2025/02/11 12:55:42.193677 8=FIX.4.4|9=52|35=0|34=29|49=ISLD|52=20250211-12:55:42.204|56=HSBC|10=079|
2025/02/11 12:56:12.130001 8=FIX.4.4|9=52|35=0|34=30|49=HSBC|52=20250211-12:56:12.129|56=ISLD|10=075|
2025/02/11 12:56:12.195451 8=FIX.4.4|9=52|35=0|34=30|49=ISLD|52=20250211-12:56:12.205|56=HSBC|10=070|
2025/02/11 12:56:42.132203 8=FIX.4.4|9=52|35=0|34=31|49=HSBC|52=20250211-12:56:42.132|56=ISLD|10=073|
2025/02/11 12:56:42.197469 8=FIX.4.4|9=52|35=0|34=31|49=ISLD|52=20250211-12:56:42.206|56=HSBC|10=075|
2025/02/11 12:57:12.135345 8=FIX.4.4|9=52|35=0|34=32|49=HSBC|52=20250211-12:57:12.135|56=ISLD|10=075|
2025/02/11 12:57:12.223770 8=FIX.4.4|9=52|35=0|34=32|49=ISLD|52=20250211-12:57:12.207|56=HSBC|10=075|
2025/02/11 12:57:42.138510 8=FIX.4.4|9=52|35=0|34=33|49=HSBC|52=20250211-12:57:42.138|56=ISLD|10=082|
2025/02/11 12:57:42.199094 8=FIX.4.4|9=52|35=0|34=33|49=ISLD|52=20250211-12:57:42.208|56=HSBC|10=080|
2025/02/11 12:58:12.142110 8=FIX.4.4|9=52|35=0|34=34|49=HSBC|52=20250211-12:58:12.141|56=ISLD|10=075|
2025/02/11 12:58:12.200701 8=FIX.4.4|9=52|35=0|34=34|49=ISLD|52=20250211-12:58:12.210|56=HSBC|10=072|
2025/02/11 12:58:42.144471 8=FIX.4.4|9=52|35=0|34=35|49=HSBC|52=20250211-12:58:42.144|56=ISLD|10=082|
2025/02/11 12:58:42.201415 8=FIX.4.4|9=52|35=0|34=35|49=ISLD|52=20250211-12:58:42.210|56=HSBC|10=076|
2025/02/11 12:59:12.147050 8=FIX.4.4|9=52|35=0|34=36|49=HSBC|52=20250211-12:59:12.147|56=ISLD|10=084|
2025/02/11 12:59:12.287404 8=FIX.4.4|9=52|35=0|34=36|49=ISLD|52=20250211-12:59:12.211|56=HSBC|10=076|
2025/02/11 12:59:42.149610 8=FIX.4.4|9=52|35=0|34=37|49=HSBC|52=20250211-12:59:42.149|56=ISLD|10=090|
2025/02/11 12:59:42.204093 8=FIX.4.4|9=52|35=0|34=37|49=ISLD|52=20250211-12:59:42.212|56=HSBC|10=081|
2025/02/11 13:00:12.152391 8=FIX.4.4|9=52|35=0|34=38|49=HSBC|52=20250211-13:00:12.152|56=ISLD|10=069|
2025/02/11 13:00:12.205727 8=FIX.4.4|9=52|35=0|34=38|49=ISLD|52=20250211-13:00:12.213|56=HSBC|10=067|
2025/02/11 13:00:42.155046 8=FIX.4.4|9=52|35=0|34=39|49=HSBC|52=20250211-13:00:42.154|56=ISLD|10=075|
2025/02/11 13:00:42.206076 8=FIX.4.4|9=52|35=0|34=39|49=ISLD|52=20250211-13:00:42.214|56=HSBC|10=072|
2025/02/11 13:01:12.156733 8=FIX.4.4|9=52|35=0|34=40|49=HSBC|52=20250211-13:01:12.156|56=ISLD|10=067|
2025/02/11 13:01:12.209552 8=FIX.4.4|9=52|35=0|34=40|49=ISLD|52=20250211-13:01:12.215|56=HSBC|10=063|
2025/02/11 13:01:42.159411 8=FIX.4.4|9=52|35=0|34=41|49=HSBC|52=20250211-13:01:42.159|56=ISLD|10=074|
2025/02/11 13:01:42.226320 8=FIX.4.4|9=52|35=0|34=41|49=ISLD|52=20250211-13:01:42.216|56=HSBC|10=068|
2025/02/11 13:02:12.157310 8=FIX.4.4|9=52|35=0|34=42|49=HSBC|52=20250211-13:02:12.157|56=ISLD|10=071|
2025/02/11 13:02:12.206993 8=FIX.4.4|9=52|35=0|34=42|49=ISLD|52=20250211-13:02:12.217|56=HSBC|10=068|
2025/02/11 13:09:17.078134 8=FIX.4.4|9=93|35=A|34=1|49=HSBC|52=20250211-13:09:17.077|56=ISLD|98=0|108=30|141=Y|553=Amstel|554=BondbloX|10=176|
2025/02/11 13:09:17.135974 8=FIX.4.4|9=69|35=A|34=1|49=ISLD|52=20250211-13:09:17.154|56=HSBC|98=0|108=30|141=Y|10=122|
2025/02/11 13:09:34.546253 8=FIX.4.4|9=114|35=V|34=2|49=HSBC|52=20250211-13:09:34.546|56=ISLD|146=1|55=XS2314639761|262=MARKETDATAID|263=1|264=0|267=1|269=0|10=080|
2025/02/11 13:09:34.599703 8=FIX.4.4|9=143|35=X|34=2|49=ISLD|52=20250211-13:09:34.620|56=HSBC|262=MARKETDATAID|268=1|269=0|55=XS2314639761|270=98.00|272=11-02-2025|273=12:45|282=C|423=3|10=205|
2025/02/11 13:10:04.546937 8=FIX.4.4|9=51|35=0|34=3|49=HSBC|52=20250211-13:10:04.546|56=ISLD|10=021|
2025/02/11 13:10:04.599949 8=FIX.4.4|9=51|35=0|34=3|49=ISLD|52=20250211-13:10:04.621|56=HSBC|10=015|
2025/02/11 13:10:34.548484 8=FIX.4.4|9=51|35=0|34=4|49=HSBC|52=20250211-13:10:34.548|56=ISLD|10=027|
2025/02/11 13:10:34.600019 8=FIX.4.4|9=51|35=0|34=4|49=ISLD|52=20250211-13:10:34.622|56=HSBC|10=020|
2025/02/11 13:11:04.549903 8=FIX.4.4|9=51|35=0|34=5|49=HSBC|52=20250211-13:11:04.549|56=ISLD|10=027|
2025/02/11 13:11:04.605782 8=FIX.4.4|9=51|35=0|34=5|49=ISLD|52=20250211-13:11:04.623|56=HSBC|10=020|
2025/02/11 13:11:34.551449 8=FIX.4.4|9=51|35=0|34=6|49=HSBC|52=20250211-13:11:34.551|56=ISLD|10=024|
2025/02/11 13:11:34.604690 8=FIX.4.4|9=51|35=0|34=6|49=ISLD|52=20250211-13:11:34.625|56=HSBC|10=026|
2025/02/11 13:12:04.553270 8=FIX.4.4|9=51|35=0|34=7|49=HSBC|52=20250211-13:12:04.553|56=ISLD|10=025|
2025/02/11 13:12:04.605145 8=FIX.4.4|9=51|35=0|34=7|49=ISLD|52=20250211-13:12:04.626|56=HSBC|10=026|
2025/02/11 13:12:14.557149 8=FIX.4.4|9=143|35=X|34=8|49=ISLD|52=20250211-13:12:14.577|56=HSBC|262=MARKETDATAID|268=1|269=0|55=XS2314639761|270=99.00|272=11-02-2025|273=13:12|282=C|423=3|10=210|
2025/02/11 13:12:34.554946 8=FIX.4.4|9=51|35=0|34=8|49=HSBC|52=20250211-13:12:34.554|56=ISLD|10=030|
2025/02/11 13:12:44.640058 8=FIX.4.4|9=51|35=0|34=9|49=ISLD|52=20250211-13:12:44.578|56=HSBC|10=038|
2025/02/11 13:13:04.556568 8=FIX.4.4|9=51|35=0|34=9|49=HSBC|52=20250211-13:13:04.556|56=ISLD|10=031|
2025/02/11 13:13:14.643227 8=FIX.4.4|9=52|35=0|34=10|49=ISLD|52=20250211-13:13:14.579|56=HSBC|10=078|
2025/02/11 13:13:34.558098 8=FIX.4.4|9=52|35=0|34=10|49=HSBC|52=20250211-13:13:34.557|56=ISLD|10=076|
2025/02/11 13:13:44.649662 8=FIX.4.4|9=52|35=0|34=11|49=ISLD|52=20250211-13:13:44.580|56=HSBC|10=074|
2025/02/11 13:14:04.560093 8=FIX.4.4|9=52|35=0|34=11|49=HSBC|52=20250211-13:14:04.559|56=ISLD|10=077|
2025/02/11 13:14:14.593585 8=FIX.4.4|9=52|35=0|34=12|49=ISLD|52=20250211-13:14:14.581|56=HSBC|10=074|
2025/02/11 13:14:17.802652 8=FIX.4.4|9=76|35=x|34=12|49=HSBC|52=20250211-13:14:17.802|56=ISLD|320=SECURITYREQID|559=4|10=108|
2025/02/11 13:14:17.867454 8=FIX.4.4|9=4026|35=y|34=13|49=ISLD|52=20250211-13:14:17.881|56=HSBC|146=245|55=XS2382032956|55=USY20721BG36|55=XS2099045515|55=XS2099372802|55=XS2050614796|55=XS2258819874|55=XS2388867751|55=USY7133MAC39|55=XS2169280919|55=USY7140WAE85|55=US71567RAD89|55=USY8137FAC24|55=XS1268430201|55=XS1681502537|55=XS1891336932|55=XS2093792013|55=USY8137FAE89|55=USY39690AA30|55=USY20721BN86|55=XS2199575569|55=XS2787477277|55=XS2279432384|55=XS2291793573|55=US69370RAK32|55=XS2313088739|55=US71567RAF38|55=XS2577785921|55=XS2322319398|55=XS2340901607|55=US71567RAR75|55=USY8137FAF54|55=USY708CHAB61|55=USN5276YAD87|55=XS2012546714|55=XS2219433765|55=USY20721BQ18|55=XS2744911756|55=USY56607AA51|55=XS2100404396|55=XS2314514477|55=XS2068075980|55=XS2301051541|55=XS2344284893|55=USY6142NAC21|55=US71567RAN61|55=US71567RAH93|55=XS2099273737|55=XS1810775145|55=USY7141BAA18|55=USY8137FAH11|55=XS2207510319|55=USY6142NAF51|55=XS2399476972|55=XS2407048623|55=XS2189919637|55=XS2202749003|55=US455780CD62|55=US455780DQ66|55=USY6142NAG35|55=XS0972298300|55=USY8137FAL23|55=US455780CF11|55=XS2327392234|55=XS2099563228|55=XS1432493440|55=XS2191510713|55=USY59500AA95|55=USY7140WAC20|55=US71567RAX44|55=XS2194913443|55=XS2198145422|55=US71568QAG29|55=XS2419405274|55=US455780CH76|55=US71567RAM88|55=XS2774954650|55=US455780DT06|55=USY8137FAP37|55=XS2774954577|55=XS2209978639|55=XS2208939368|55=USY6142NAH18|55=XS2330597738|55=USY68613AA90|55=US71568QAJ67|55=XS2366690332|55=XS2223798229|55=XS2207510582|55=XS1729875598|55=XS2199718003|55=US71568QAC15|55=US71567RAK23|55=US71567RAU05|55=XS2334361271|55=XS2390472624|55=USY20721BT56|55=XS2104985598|55=US69370RAD98|55=US455780CK06|55=XS1991219442|55=XS2334361354|55=US718286CK14|55=US71568QAL14|55=US455780CQ75|55=USY8137FAR92|55=US718286CN52|55=USY7141MAA72|55=USY7140WAF50|55=US718286AP29|55=US71567RAP10|55=US718286CJ41|55=US71568QAN79|55=US718286CL96|55=US718286CH84|55=US718286CC97|55=USN57445AA17|55=US455780CS32|55=US718286CP01|55=US718286CQ83|55=US69370RAL15|55=US718286CR66|55=XS2322319638|55=XS2349180104|55=US71567RAS58|55=USY6142NAE86|55=XS2069959398|55=US718286CG02|55=US718286BZ91|55=USY6972HLP91|55=USY7141BAB90|55=XS2399787899|55=US455780DN36|55=US718286DE45|55=US455780DR40|55=XS2280331898|55=US718286CY18|55=US69370RAH03|55=US69370RAF47|55=US455780CV60|55=XS2334361511|55=US718286CB15|55=US718286CA32|55=US455780DJ24|55=US455780CY00|55=US718286CW51|55=US71567RAY27|55=US455780DU78|55=US718286BW60|55=XS2387734317|55=USY7329CAA37|55=USY68613AB73|55=US455780DX18|55=US718286DD61|55=US718286DA23|55=USY20721AE96|55=US718286BN61|55=USN54360AD95|55=USN57445AB99|55=USY20721AL30|55=US718286CX35|55=US718286DB06|55=US718286CT23|55=USY7138AAB62|55=USY20721BB49|55=US718286CU95|55=USY7138AAD29|55=US71568QAB32|55=USY20721BE87|55=USY7138AAF76|55=USY20721BK48|55=US69370RAA59|55=USY20721BM04|55=US718286BD89|55=USY7133MAB55|55=US718286BG11|55=USY20721BP35|55=USY20721BR90|55=US718286AY36|55=USY20721BU20|55=XS2921409756|55=US455780CE46|55=USY7140WAD03|55=US71568QAH02|55=US455780CJ33|55=US71568QAK31|55=US69370RAE71|55=USY51478AA66|55=US71568QAF46|55=US71568QAD97|55=US637193BA03|55=US718286CV78|55=US718286BB24|55=USY7083VAD11|55=XS2690996827|55=US455780CN45|55=US71568QAM96|55=USY7140WAG34|55=XS2219370660|55=US71568QAP28|55=US455780CT15|55=US71567RAT32|55=US455780DK96|55=USY7141BAC73|55=XS2399788277|55=US455780DP83|55=US455780DS23|55=US455780DV51|55=USY68613AC56|55=US455780CU87|55=PH0000057598|55=XS2813319816|55=XS2346954873|55=XS2385923722|55=XS2098881654|55=XS2072777381|55=XS2239056174|55=XS2207320701|55=XS2862924532|55=XS2191367734|55=XS2244367269|55=USY20721AJ83|55=XS2314639761|55=XS2343321399|55=XS2322321964|55=USY7140EAA65|55=US69370RAC16|55=US71567RAQ92|55=XS2191367494|55=US71567RAV87|55=US69370RAJ68|55=US69370RAG20|55=US455780CR58|55=US455780DW35|55=US455780CX27|55=PHY7998PAB23|55=PHY7998PAA40|55=XS2205566206|55=XS2758096759|55=US455780DG84|55=US059891AA97|55=US455780CW44|55=US718286DC88|55=XS1506085114|55=US455780DM52|55=XS2785437901|320=SECURITYREQID|322=SECURITYREQIDRESP|560=0|10=047|
2025/02/11 13:14:47.804166 8=FIX.4.4|9=52|35=0|34=13|49=HSBC|52=20250211-13:14:47.804|56=ISLD|10=079|
2025/02/11 13:14:47.867073 8=FIX.4.4|9=52|35=0|34=14|49=ISLD|52=20250211-13:14:47.887|56=HSBC|10=091|
2025/02/11 13:15:17.806876 8=FIX.4.4|9=52|35=0|34=14|49=HSBC|52=20250211-13:15:17.806|56=ISLD|10=080|
2025/02/11 13:15:17.868766 8=FIX.4.4|9=52|35=0|34=15|49=ISLD|52=20250211-13:15:17.888|56=HSBC|10=091|
2025/02/11 13:15:47.807668 8=FIX.4.4|9=52|35=0|34=15|49=HSBC|52=20250211-13:15:47.807|56=ISLD|10=085|
2025/02/11 13:15:47.869203 8=FIX.4.4|9=52|35=0|34=16|49=ISLD|52=20250211-13:15:47.889|56=HSBC|10=096|
2025/02/11 13:16:17.809442 8=FIX.4.4|9=52|35=0|34=16|49=HSBC|52=20250211-13:16:17.809|56=ISLD|10=086|
2025/02/11 13:16:17.869577 8=FIX.4.4|9=52|35=0|34=17|49=ISLD|52=20250211-13:16:17.889|56=HSBC|10=095|
2025/02/11 13:16:47.812161 8=FIX.4.4|9=52|35=0|34=17|49=HSBC|52=20250211-13:16:47.812|56=ISLD|10=084|
2025/02/11 13:16:47.870407 8=FIX.4.4|9=52|35=0|34=18|49=ISLD|52=20250211-13:16:47.890|56=HSBC|10=091|
2025/02/11 13:17:17.814659 8=FIX.4.4|9=52|35=0|34=18|49=HSBC|52=20250211-13:17:17.814|56=ISLD|10=085|
2025/02/11 13:17:17.870193 8=FIX.4.4|9=52|35=0|34=19|49=ISLD|52=20250211-13:17:17.890|56=HSBC|10=090|
2025/02/11 13:17:47.817654 8=FIX.4.4|9=52|35=0|34=19|49=HSBC|52=20250211-13:17:47.817|56=ISLD|10=092|
2025/02/11 13:17:47.872216 8=FIX.4.4|9=52|35=0|34=20|49=ISLD|52=20250211-13:17:47.890|56=HSBC|10=085|
2025/02/11 13:18:17.820197 8=FIX.4.4|9=52|35=0|34=20|49=HSBC|52=20250211-13:18:17.820|56=ISLD|10=076|
2025/02/11 13:18:17.874423 8=FIX.4.4|9=52|35=0|34=21|49=ISLD|52=20250211-13:18:17.891|56=HSBC|10=085|
2025/02/11 13:18:47.822063 8=FIX.4.4|9=52|35=0|34=21|49=HSBC|52=20250211-13:18:47.821|56=ISLD|10=081|
2025/02/11 13:18:47.872893 8=FIX.4.4|9=52|35=0|34=22|49=ISLD|52=20250211-13:18:47.892|56=HSBC|10=090|
2025/02/11 13:19:17.812821 8=FIX.4.4|9=52|35=0|34=22|49=HSBC|52=20250211-13:19:17.812|56=ISLD|10=080|
2025/02/11 13:19:17.862422 8=FIX.4.4|9=52|35=0|34=23|49=ISLD|52=20250211-13:19:17.893|56=HSBC|10=090|
2025/02/11 13:19:47.809099 8=FIX.4.4|9=52|35=0|34=23|49=HSBC|52=20250211-13:19:47.808|56=ISLD|10=089|
2025/02/11 13:19:47.858312 8=FIX.4.4|9=52|35=0|34=24|49=ISLD|52=20250211-13:19:47.894|56=HSBC|10=095|
2025/02/11 13:20:17.810744 8=FIX.4.4|9=52|35=0|34=24|49=HSBC|52=20250211-13:20:17.810|56=ISLD|10=072|
2025/02/11 13:20:17.857610 8=FIX.4.4|9=52|35=0|34=25|49=ISLD|52=20250211-13:20:17.894|56=HSBC|10=085|
2025/02/11 13:20:47.812887 8=FIX.4.4|9=52|35=0|34=25|49=HSBC|52=20250211-13:20:47.812|56=ISLD|10=078|
2025/02/11 13:20:47.859339 8=FIX.4.4|9=52|35=0|34=26|49=ISLD|52=20250211-13:20:47.896|56=HSBC|10=091|
2025/02/11 13:21:17.815051 8=FIX.4.4|9=52|35=0|34=26|49=HSBC|52=20250211-13:21:17.814|56=ISLD|10=079|
2025/02/11 13:21:17.861660 8=FIX.4.4|9=52|35=0|34=27|49=ISLD|52=20250211-13:21:17.897|56=HSBC|10=091|
2025/02/11 15:42:47.114849 8=FIX.4.4|9=93|35=A|34=1|49=HSBC|52=20250211-15:42:47.114|56=ISLD|98=0|108=30|141=Y|553=Amstel|554=BondbloX|10=170|
2025/02/11 15:42:47.178700 8=FIX.4.4|9=69|35=A|34=1|49=ISLD|52=20250211-15:42:47.217|56=HSBC|98=0|108=30|141=Y|10=124|
2025/02/11 15:42:58.125359 8=FIX.4.4|9=93|35=A|34=1|49=HSBC|52=20250211-15:42:58.125|56=ISLD|98=0|108=30|141=Y|553=Amstel|554=BondbloX|10=174|
2025/02/11 15:42:58.202326 8=FIX.4.4|9=69|35=A|34=1|49=ISLD|52=20250211-15:42:58.240|56=HSBC|98=0|108=30|141=Y|10=122|
2025/02/11 15:43:06.100205 8=FIX.4.4|9=75|35=x|34=2|49=HSBC|52=20250211-15:43:06.099|56=ISLD|320=SECURITYREQID|559=4|10=068|
2025/02/11 15:43:06.168357 8=FIX.4.4|9=3721|35=y|34=2|49=ISLD|52=20250211-15:43:06.200|56=HSBC|146=226|55=XS2114327302|55=XS2113136092|55=XS2121187962|55=XS2116222022|55=HK0000910544|55=XS2445374213|55=XS2429304368|55=US00084EAE86|55=XS2585673820|55=US606822BN36|55=XS2109790183|55=XS2101828452|55=US500630DQ87|55=XS2379456895|55=HK0000910189|55=XS2125599626|55=XS2449761076|55=US606822AU87|55=XS2423459242|55=XS2447949475|55=XS2123955952|55=XS2305026762|55=XS2125922349|55=XS2451285253|55=XS0893206747|55=XS2127855711|55=XS2126300479|55=XS2462338612|55=XS2451854991|55=USJ7771YLQ81|55=US438127AA08|55=USG9T27HAD62|55=XS1200840111|55=XS2453962107|55=XS2129684127|55=US00131MAB90|55=US2027A1KH95|55=US2027A1KJ51|55=XS1788514039|55=XS2450979484|55=US718286AP29|55=USY68856AN67|55=XS2133246673|55=XS2140589529|55=XS2248032653|55=US06407F2B71|55=XS2110952962|55=XS2122900330|55=XL2334361271|55=XS2077601610|55=XS2122990737|55=SG7V35954653|55=XS2453395001|55=XS2453372992|55=XS2455213590|55=US55608RBK59|55=US55608RBJ86|55=XS2454321519|55=XS2442748971|55=XS2432576382|55=XS2406886627|55=USJ46186BC59|55=XS2450206516|55=XS2049728004|55=USY6080GAA59|55=XS2460254282|55=XS2436799238|55=US056752AQ10|55=XS2446844834|55=US91127LAG59|55=XS2455963590|55=USV3856JAA17|55=XS2113708155|55=US65504LAN73|55=XS2406805213|55=XS1213177295|55=US44891CBK80|55=XS2426804998|55=XS2461794922|55=USJ4706DLU20|55=XS2484016643|55=XS2450908970|55=XS1791937441|55=XS2471135926|55=XS2458278731|55=XS1811213435|55=XS1810775145|55=XS2203824789|55=US71567RAD89|55=US50066RAR75|55=XS2125052261|55=USU3821WAD93|55=XS2068971980|55=XS2473321037|55=XS2180856440|55=USY0889VAA80|55=XS2133816012|55=XS2155486868|55=XS2445143329|55=USY5749LAA99|55=XS1214406792|55=XS2207192191|55=USG21184AB52|55=XS2158482211|55=USY3815NBE05|55=US82460EAP51|55=XS2471295969|55=XS2471127584|55=XS2432500309|55=XS2472507511|55=XS2465969132|55=XS2471231998|55=XS2158820477|55=XS2461426459|55=XS2471305867|55=XS2471384045|55=USG8201JAC56|55=XS2470956322|55=XS2334361271|55=US09681MAM01|55=XS2247552446|55=XS2163022739|55=XS2250030090|55=XS2227351900|55=XS1810963147|55=US500769GQ12|55=US50050HAM88|55=US12634MAB63|55=USY7133MAC39|55=USY4836TBT70|55=XS2451515279|55=USY4836TCE92|55=XS1226628961|55=XS2161924605|55=XS1227064430|55=XS1230332055|55=XS2078641888|55=XS2162033729|55=USG82016AN96|55=XS2469673698|55=USG5320CAB49|55=USY7140WAE85|55=XS2463140637|55=XS2475862533|55=XS2479371028|55=XS2169280919|55=XS2447552089|55=USY4872AHZ31|55=XS1402177601|55=XS1233275194|55=XS1227947097|55=XS2464646186|55=XS2079668609|55=AU3FN0069209|55=XS2176713613|55=US404280CS68|55=XS2471903331|55=XS1234958459|55=XS2085045503|55=XS2178924739|55=US20271BAJ44|55=XS2178949561|55=XS2481329733|55=XS1234197074|55=XS2345678900|55=XS2470154779|55=XS2485520261|55=XS2446005907|55=XS2446008083|55=XS2484328021|55=USU1793TAA08|55=XS2181972568|55=XS1240913068|55=USY8137FAC24|55=XS2178853375|55=XS2179842898|55=XS2182877865|55=XS1242348164|55=XS2472512354|55=USG5975LAA47|55=XS2487342300|55=XS2496620977|55=HK0000929692|55=HK0000854296|55=XS2485572148|55=XS2563889794|55=XS2473375124|55=USG8850LAA82|55=US55608YAB11|55=XS2590538380|55=XS2475950155|55=XS2433131559|55=CND10006G534|55=XS1822295983|55=XS1252209249|55=US71567RAN61|55=USY4907LAC64|55=XS2489981485|55=XS2484991844|55=XS2480876254|55=USY4899GCB78|55=USY4907LAB81|55=XS2489151709|55=XS2478801942|55=US056752AG38|55=XS2199681774|55=XS2480444970|55=XS2186093766|55=USG60744AE27|55=HK0000611928|55=US45604HAH03|55=XS2189906816|55=XS2179917906|55=FR0013428414|55=XS2190999834|55=XS2489808423|55=XS2190467667|55=US44891CCF86|55=XS1248248343|55=XS2489897343|55=XS1627599654|55=XS2861551898|55=XS2361426559|55=XS2484016642|55=XS2495307865|55=XS1253849357|320=SECURITYREQID|322=SECURITYREQIDRESP|560=0|10=179|
